:020000021000EC
:10F0000000000120D1610200F9610200FB610200F1
:10F01000FD610200FF6102000162020000000000C9
:10F020000000000000000000000000000362020079
:10F03000056202000000000007620200096202008F
:10F04000CD0902000B6202000B620200E9230200FC
:10F050000B6202005D5D02009D0F02007D18020040
:10F060000B6202000B6202000B6202000B620200E4
:10F070000B6202000D1802000B6202000B6202001C
:10F080000B620200294D02000B6202000B620200BB
:10F09000E54D02000B620200156102000B620200E6
:10F0A0000B6202000B6202000B620200F55A0200C2
:10F0B0009D1602006912020000000000000000001E
:10F0C0000B6202000B6202000B6202000B62020084
:10F0D0000B6202000B6202000B62020000000000E3
:10F0E0000000000000000000000000000000000020
:10F0F0000000000000000000000000000000000010
:10F1000000000000000000000000000000000000FF
:10F1100000000000000000000000000000000000EF
:10F1200000000000000000000000000000000000DF
:10F1300000000000000000000000000000000000CF
:10F1400000000000000000000000000000000000BF
:10F1500000000000000000000000000000000000AF
:10F16000000000000000000000000000000000009F
:10F17000000000000000000000000000000000008F
:10F18000000000000000000000000000000000007F
:10F19000000000000000000000000000000000006F
:10F1A000000000000000000000000000000000005F
:10F1B000000000000000000000000000000000004F
:10F1C000000000000000000000000000000000003F
:10F1D000000000000000000000000000000000002F
:10F1E000000000000000000000000000000000001F
:10F1F000000000000000000000000000000000000F
:10F2000010B5054C237833B9044B13B10448AFF360
:10F2100000800123237010BD604400200000000026
:10F2200088B00400084B10B51BB108480849AFF37B
:10F2300000800848036803B910BD074B002BFBD0C2
:10F24000BDE81040184700BF0000000088B004006F
:10F25000644400203C44002000000000154B002BBB
:10F2600008BF134B9D46A3F5803A00218B460F46FD
:10F270001348144A121A1BF0F5F90F4B002B00D05B
:10F2800098470E4B002B00D0984700200021040027
:10F290000D000D48002802D00C48AFF300801BF091
:10F2A00085F9200029000BF087FF1BF06BF900BFE8
:10F2B0000000080000000120000000000000000025
:10F2C000604400207C770020000000000000000067
:10F2D00073DF7047F0B5854D85B006460021844840
:10F2E00007221BF0BFF96B78FBB9AB78814F002B7D
:10F2F00061D17F4C6378002B63D1A378002B60D160
:10F30000E378002B5DD12379002B5AD16379002B50
:10F3100057D1A379003318BF0123701E032800F2D0
:10F32000E180DFE800F0163B1B43724F3B78012B76
:10F3300004D0AA78002ADCD0022BDAD16E4B6F4AB7
:10F340001B68002B00F0C580012108201170984730
:10F35000CFE76A7812B3002B40F0BD80EB782BB377
:10F360000322654B3A701B681BB12A78002A40F0D3
:10F37000A380634B00221A701022684600211BF004
:10F3800071F93B7800228DF800208DF80820042BBD
:10F3900039D8DFE803F085795D3B1800AA78002AA8
:10F3A000DCD0002BDAD002233B70E2E72B79002B74
:10F3B000FAD00422D5E73B78012BBFD0022B98D19D
:10F3C000BCE70123A9E72B78A969EA69ADF80A101F
:10F3D000ADF80C20002B67D04A4B1978002963D177
:10F3E000494B1B78002B5FD0484B0424022218465F
:10F3F000DC708DF8082000F025FE00286ED1444A0C
:10F400003B7806211170002B35D02EE02B7829692E
:10F410006A69ADF80A10ADF80C20002B48D0394BC2
:10F420001978002944D1384B1B78002B40D0374B3A
:10F43000042402221846DC708DF8082000F002FE39
:10F4400000284BD1324A3B78052111709BB10CE06A
:10F450002F48EA68AB6801940121022404708DF8FA
:10F460000010ADF80C20ADF80A302A4B6846197828
:10F47000FFF72EFF30B9204B1B6813B1244A1078D8
:10F480009847002005B0F0BD2149019401220023D6
:10F490000A708DF80020ADF80C30ADF80A30E4E7C2
:10F4A0001B4B00221A70E6E7194B04221A70DCE7A6
:10F4B000174B03221A70D8E7124A1278002A7FF4F9
:10F4C00058AF11480E490270012207200A70984770
:10F4D00052E713700DE701233B704AE73B78002B9E
:10F4E000C9D0C2E700233B7043E700BFFC440020C3
:10F4F000F444002045450020C84400204645002033
:10F5000043450020EF440020B84400207C44002004
:10F510005445002044450020014B1870704700BF3F
:10F52000444500202DE9F04F83B0DDF830E000289D
:10F5300000F09A80002A00F09780144605461F4686
:10F5400001910FCC4A4EDFF84C91DFF84CC1DFF847
:10F550004CA1DFF84C81DFF84CB1CCF800700FC63D
:10F5600094E80F00002486E80F00424E424B4348C7
:10F57000CBF800E0012289F80020214607224FF64F
:10F58000FF79A3F800908AF8004088F800401BF04B
:10F5900069F821463C2230461BF064F805F110035F
:10F5A00093E80300AA78EB7895F800E0B270F37066
:10F5B00006F1100395F801C086F800E083E8030027
:10F5C00005F1080393E8030006F1080E05F118039E
:10F5D0008EE8030093E803006A6A86F801C006F12A
:10F5E000180383E803009AB1254A7262696A254BC1
:10F5F00093608888B1F800E0A2F800E0908038B10C
:10F60000013B8A68125D03F8012F01348442F8D16E
:10F61000AB6AB3B11C4BB362A86A1C4A9A60848877
:10F620009C800188198044B1013A00238168C95C3B
:10F6300002F8011F0133A342F8D195F82C3086F867
:10F640002C302B6A33B1124B33622A6A51885980AD
:10F6500012881A806B6803B173600199054803B082
:10F66000BDE8F04F00F0EEBC0E2003B0BDE8F08F17
:10F67000FC4400207C4400201C450020F444002071
:10F68000BC440020D04400204845002024450020F0
:10F690002045002047450020C84400204545002063
:10F6A00044450020F04400200C4B1B780BB9082087
:10F6B000704710B50A4B82B0044601A81C7004F0D4
:10F6C00017FD019B2BB1074B01221A70002002B0DD
:10F6D00010BD2046FFF7FEFDF9E700BF47450020BB
:10F6E00045450020CC44002010B50388112B82B082
:10F6F0001BD01B2B0AD0102B01D002B010BDC37B36
:10F700008288012BF9D1214B1A80F6E7037A002B6E
:10F71000F3D11F4B1F4A19781378F1B908201E4BFB
:10F720001B68002BE9D09847E7E7184A83881288BE
:10F730001A4900209A420870DFD1154B1B78002B24
:10F74000ECD0144B012401A81C7004F0D1FC019BE7
:10F75000ABB1134B01221A70CFE7124C013384FB7B
:10F760000314D917C1EB640404EB84041B1BDCB243
:10F7700001A8147004F0BCFC019B002BE9D12046C9
:10F78000FFF7A8FD0028B8D0C9E700BF1C4500203E
:10F790004745002045450020F0440020EF4400206C
:10F7A000CC440020676666660238012815D830B55B
:10F7B000114C237883B00BB903B030BD0F4B104A06
:10F7C0001B7815780022227043B908200D4B1B6866
:10F7D000002BF1D0984703B030BD704701A804F06A
:10F7E00087FC019B13B101232370E5E72846FFF74F
:10F7F00071FD0028E0D0E9E7CC4400204745002017
:10F8000045450020F0440020A0DF7047A2DF70478C
:10F81000A6DF7047A8DF704762DF70473ADF7047A6
:10F820003BDF704711DF704713DF70472DE9F04F62
:10F83000464B95B09A6806460D4618685968DB68CD
:10F8400004AC0FC4002E7CD0002D7AD04FF6FF728E
:10F8500014A94FF65963B28021F8483D2B683361F3
:10F860004FF0010800233375B3734046B21C344691
:10F870008DF80A80FFF7C8FF002863D104A831463D
:10F88000FFF7CAFF844600285CD1010A02460546FC
:10F8900083460E4668F3030268F3030168F34205EA
:10F8A00068F3071168F3071268F3030B68F30306A4
:10F8B0008646C7B2EDB294F80090CDF834C068F334
:10F8C000071B68F3071668F3420ECDF82CC045F00D
:10F8D000110547F028076088CDF838C04FF00308BD
:10F8E000A31D0DF10C0ACDF83CC0CDF840C0CDF8F9
:10F8F00044C0CDF84CC0CDF828C0CDF830C0172496
:10F900000DF1040C8DF801108DF804200DA908AA42
:10F910008DF800B08DF805608DF806508DF802E086
:10F920008DF83470CDF848D08DF80E90ADF80C807D
:10F93000CDF820A0CDF824C0ADF82C40FFF766FF2D
:10F9400000E00E2015B0BDE8F08F00BF40150400A8
:10F95000002858D0002956D02DE9F0430B88502BB1
:10F960008BB005460C464FD00CD8102B00F0DB8036
:10F97000112B04D18B8882889A4200F0D9800BB079
:10F98000BDE8F083512B63D0532BF8D1CA88C388CC
:10F990009A42F4D1037D002BF1D000204FF0FF31CB
:10F9A000FFF73EFF0028EAD1B121FFF737FF00281B
:10F9B000E5D1FFF737FF0028E1D14FF01023586958
:10F9C000FFF732FF0028DAD1604A4FF48003C2F813
:10F9D000803114680346012000FA03F1214203F14B
:10F9E000010318BFC2F88010202BF5D1BFF34F8F51
:10F9F0005749584BCA6802F4E0621343CB60BFF327
:10FA00004F8F00BFFDE77047CA8843899A42B6D13D
:10FA10000B8A022BB3D11234204600F02BFF06468E
:10FA2000A873204600F022FF324603464A490320CD
:10FA300004F028FF2B69002BA1D0AA7B0AA9002A79
:10FA400014BF0122022201F8102D2846984796E79C
:10FA50008A8883889A4292D18E79022E8FD10A8920
:10FA6000C3889A428BD18B7B043B022B87D902A897
:10FA7000002110221AF0F6FDAB7B8DF80860002BF8
:10FA80005AD09DF80E3043F001038DF80E3000235C
:10FA9000ADF80C30A88802A9FFF7BCFE1128F9D0F8
:10FAA000BDF80C30002B7FF46AAF03202B4904F023
:10FAB000CBFE267D012E42D002270021102206A86F
:10FAC0001AF0D0FD8DF8056002264FF0200CB5F835
:10FAD00006E0A8888DF806700DEB060201AB4FF02A
:10FAE000000806A94FF00309ADF802908DF804C094
:10FAF000ADF818E08DF81A60ADF81C8008920993F3
:10FB0000FFF786FE012F7FF43AAF237D012B7FF4B0
:10FB100036AF2B6923B18DF8188006A9284698477F
:10FB200001232B752BE78B8883800BB0BDE8F08316
:10FB30004FF6FF73838022E740F2FD13A8E704200D
:10FB40000749374604F080FE267DB6E700E100E075
:10FB500000ED00E00400FA05A815040050150400AB
:10FB60007C1504006DDF704772DF704779DF7047E6
:10FB70007DDF704764DF7047F0B50488012C83B0E7
:10FB800007D0148804F1020E9E4505D90C2003B05D
:10FB9000F0BD072003B0F0BD0578012D04D14578F4
:10FBA00002352544AB42F1D3023B0F461C1B02A990
:10FBB000A4B2054621F8024D07EB0E001646FFF7EA
:10FBC000D7FF0028E3D12B78022B17D0012B11D0BF
:10FBD00023460821FE2BD9D83288581CB8543288C5
:10FBE000013292B23280B9543288013213443380E8
:10FBF0000020CCE76B789C42EBD2E9E7BDF80630F9
:10FC00009C42E5D30921E5E72DE9F04F85B0834615
:10FC10000E9D00882C880194BDF83C9000284ED0A1
:10FC200000278A46164698463C4604E0BBF800305A
:10FC30000134A34226DDDBF8043053F8240003909E
:10FC40000DF10B0103A80022FFF794FF18BB9DF8EC
:10FC50000B30B342EAD10FB32A8893194B4519DC14
:10FC6000424403A80DF10B010127FFF783FF90B970
:10FC70002B889DF80B2013442B80BBF800300134F7
:10FC8000A342D8DCDFB12B88019A013B9B1A9BB2BF
:10FC9000FF2B12D90C2005B0BDE8F08F2B885A1C21
:10FCA000334402334B4592B2F4DC2A8008F802A0B8
:10FCB0002A88013292B22A80D2E708F80230002066
:10FCC00005B0BDE8F08F00BF2DE9F047002317888D
:10FCD000138090F82D3086B0144605460E46002B52
:10FCE00040F0C880AA78002A40F0F080EA78002A24
:10FCF0002CD1696899B1DA1CBA42097822D802225B
:10FD0000F254238801339BB20A222380F2542388C1
:10FD100001339BB22380F1542388013323802B8944
:10FD2000002B40F0F7802B8A002B40F00C812B8BAE
:10FD3000002B40F021812B6A002B5CD02288911D82
:10FD4000B94218D90C2006B0BDE8F087D91CB942D9
:10FD5000F8D80221F154238801339BB2012123807A
:10FD6000F15423880B449BB22380F25423880B4424
:10FD70009BB22380BDE71988052940F2C9806FF442
:10FD8000486801EB080080B24FF27D3E704540F2BA
:10FD9000BF805888052840F2BB806FF4486C8444CB
:10FDA0001FFA8CFCF44540F2B3804FF6FF7E71459C
:10FDB00004D0704502D0814200F2AA800521B154DE
:10FDC0002288013292B212212280B154228801325B
:10FDD00092B222801988B1543244090A51702288A3
:10FDE000023292B222805B88B35432441B0A5370B1
:10FDF0002388023323806B6A002B2BD099882088BC
:10FE00000A1D0244BA429DD88A1CFE2A9AD80331A0
:10FE100031542288013292B2FF212280B1542288CB
:10FE2000013292B222801988B1543244090A5170C9
:10FE30002088023080B220809A885AB19968039352
:10FE4000002965D030441AF0E7FB039B22889B8889
:10FE50001344238095F82C30002B40F0A68028789E
:10FE600000283FF470AF2846314622463B46FFF754
:10FE700083FE68E7082F7FF665AF04A8FFF772FEE0
:10FE800000287FF460AF23880822F25423880133CE
:10FE90009BB21B222380F2542088013080B2208044
:10FEA000062230440DF111011AF0B6FB23889DF8AB
:10FEB000102006339BB212F0FE0218BF01222380ED
:10FEC000F254238801339BB223800BE70433BB42F7
:10FED0003FF638AF04A8FFF749FE00287FF433AFA0
:10FEE0002388BDF810200321F154238801339BB2ED
:10FEF00019212380F154238801339BB2F118238008
:10FF0000100AF2544870238802339BB22380EDE636
:10FF1000072018E705F1080802218DE89000404607
:10FF20000A463346FFF770FE00287FF40CAF8DE8D9
:10FF300090004046062110223346FFF765FE002858
:10FF40007FF401AFEFE605F110088DE89000404620
:10FF5000032102223346FFF757FE00287FF4F3AE59
:10FF60008DE890004046072110223346FFF74CFEF3
:10FF700000287FF4E8AEDAE605F118088DE8900075
:10FF80004046142102223346FFF73EFE00287FF44C
:10FF9000DAAE8DE890004046152110223346FFF777
:10FFA00033FE00287FF4CFAEC5E6D5F82880B8F13F
:10FFB000000FADD0B8F804200232FE2A3FF6C2AEE0
:10FFC00023884FF000094FF0160A0132F2542388BB
:10FFD00001339BB2238006F803A0238801339BB230
:10FFE0002380B8F80020F2543344120A5A70238850
:10FFF00002339BB22380B8F80410F0180A4661B1AE
:020000022000DC
:10000000D8F808301946002B82D01AF005FBB8F852
:100010000430228813449BB2238009F1010995F82A
:100020002C205FFA89F94A4509EB49087FF617AF9A
:10003000AA6A02EB8808B8F804200232FE2AC4D962
:1000400080E600BF2DE9F04794B01F230D46ADF8C0
:100050000E30044600285AD0C278530753D590F882
:100060002D300021ADF80C10002B6BD18378002BC4
:1000700040F0AB801846032114AE5F1C02333044BD
:1000800016FA87F716FA83F64FF0020E8BB20121AB
:1000900000F840ECADF80C3007F8401C06F8402C96
:1000A0006268B2B1D91C1F29167828D814AF581C21
:1000B0009A1C17FA80F03B4417FA82F24FF0020EB6
:1000C0000A2703F840ECADF80C1000F8407C02F869
:1000D000406C2389002B40F08581238A002B40F05F
:1000E0009F81238B002B40F0B981236A002B00F005
:1000F000D880BDF80C20911D1F2940F28F800C2064
:1001000014B0BDE8F087072014B0BDE8F087ADF863
:100110000C00002D00F00481EB78002BF3D1284671
:100120000CA90DF10E02FFF7CFFD0028ECD19DF8D0
:100130000E300CAA20469DF80C10FFF715FD14B0E8
:10014000BDE8F0870CAF3846FFF70CFD0028DBD187
:10015000BDF80C3014AA03F1010C12FA8CFC03F167
:10016000020E13441FFA8EFE04AE4FF008094FF042
:100170001B0803F8409C0DF13101062206EB0E002E
:100180000CF8408CADF80CE01AF046FABDF80C20E3
:100190009DF83010931D11F0FE019BB240F07C8160
:1001A00014A8034403F8401CD31DA2789BB2ADF8F9
:1001B0000C30002A40F01181E278002A3FF470AF41
:1001C000D91C1F2918469AD856E70CAF3846FFF7B6
:1001D000CDFC002898D1BDF80C30BDF83070E27825
:1001E000991C0DF1500E581C89B204AE0EEB030998
:1001F0001EFA80F0043306EB010E4FF0030A4FF0B5
:1002000019089BB24FEA172C09F840ACADF80C3036
:1002100000F8408C77548EF801C0CEE71888052886
:100220007FF671AF6FF4486C00EB0C06B6B24FF27C
:100230007D37BE427FF667AF5E88052E7FF663AFDF
:100240006FF4486EB6441FFA8EFEBE457FF65BAF74
:100250004FF6FF77B84204D0BE4202D0B0423FF61C
:1002600052AF14A8561C10FA86F600EB020E901C32
:1002700080B212274FF0050C0EF840CCADF80C0000
:1002800006F8407C1F88ADF80C1004AE31183754C6
:1002900004323F0A4F7092B25B88B35432441B0A57
:1002A0005370676A9FB3B888BDF80C30811C9A1CE4
:1002B00056181F2E3FF623AFFE293FF620AF14AE8F
:1002C000591C06EB030E16FA81F192B20330FF2699
:1002D0000EF8400CADF80C2001F8406C398804AEE3
:1002E000B018B154090A41700433BA8898B2ADF815
:1002F0000C0062B1B96800293FF405AF30441AF030
:100300008BF9BDF80C30BA881344ADF80C3094F872
:100310002C3053B904AE2378002B53D13446F8E681
:100320002B46ADF80E502A4604E7A76A002F3FF48B
:10033000EAAEB9880231FE293FF6E1AE9E46BDF82D
:100340000C304FF0000804AE4FF0160914AA581CE8
:1003500002EB030C12FA80F09A1C92B201310CF8F5
:10036000401CADF80C2000F8409C3988B154324450
:10037000090A51700433B9889BB20A46F018ADF8E7
:100380000C3079B1BB681946002B3FF4BCAE1AF0B3
:1003900043F9BDF80C30BA8894F82CE013449BB2B2
:1003A000ADF80C3008F101085FFA88F8F04508EB69
:1003B0004802B0D2A76A07EB8207B9880231FE294A
:1003C000C4D99CE62046314603AA1F23FFF7D4FB7D
:1003D00000287FF499AE34469BE604331F2B3FF68A
:1003E0008EAEF3E603AA04F1080704AE4FF01F082F
:1003F00002218DE80401384633460A46FFF704FC23
:1004000000287FF481AE03AB8DE8080138463346FF
:1004100006211022FFF7F8FB00287FF475AE5CE69A
:1004200003AA04F1100704AE4FF01F088DE8040181
:100430003846334603210222FFF7E6FB00287FF40B
:1004400063AE03AB8DE8080138463346072110221E
:10045000FFF7DAFB00287FF457AE42E603AA04F167
:10046000180704AE4FF01F088DE8040138463346E4
:1004700014210222FFF7C8FB00287FF445AE03AB2E
:100480008DE808013846334615211022FFF7BCFBE2
:1004900000287FF439AE28E614A90B44012103F8A3
:1004A000401C81E675DF704776DF70477ADF704762
:1004B0007BDF7047184B18884FF6FF7398422AD09D
:1004C00010B5164A164C1378217B0133DBB29942E2
:1004D00082B013700CD2237C002111708BB9636938
:1004E00023B102A8002200F8042D984702B010BDE5
:1004F0000C49FFF7D7FF0028F8D0A369002BF4D1EF
:10050000F4E73B21FFF7D0FF0028E8D0A369002BD8
:10051000E5D09847E3E77047A045002060450020FC
:1005200064450020A445002070B51E4B1E4A5B8820
:100530001188994282B00FD852889A420CD31B4B33
:100540005B6923B102A8012200F8042D9847184CDA
:100550000023237002B070BD154C227862B1134B9A
:100560005B69002BF4D002A8002200F8042D984704
:100570000023237002B070BD0C4D0E4869680678E8
:10058000AB680D48002E18BF194605F00FF800287B
:10059000DED0AB69002BDBD098470023237002B07C
:1005A00070BD00BF58450020A445002064450020D0
:1005B000554500206045002080450020F8B50546DF
:1005C0000FCD144C144F0FC4064695E807000023C6
:1005D00084E807003B70B6B13068104B716803C304
:1005E000A3F10800FFF762FF90B90D4D0D4C0E48C6
:1005F0000E4A00234FF6FF762E8023701946BDE881
:10060000F84004F0C1BF0548FFF752FF0028ECD0C6
:10061000F8BD00BF6445002055450020A4450020DA
:10062000A045002060450020E8150400B504020044
:1006300070B50388112B27D012D9122B07D0502B5D
:1006400047D1244CC288E3899A4230D070BD08302B
:1006500003C8214B83E80300BDE87040FFF764BF87
:10066000102B35D11D491B4C1B4B1D4DE48900F14E
:1006700010028088088092E80300002283E80300CB
:100680002A70002CE8D070BD1449154B15484FF660
:10069000FF7400220C801A7004F0E2FF0028D5D00D
:1006A0000C4B9B69002BD1D0BDE870401847038AE2
:1006B000022BCBD1123000F0D9F80028CCD1094858
:1006C00004F0CEFF0028C1D0A369002BECD1BDE718
:1006D00070BD70BD6445002058450020A045002035
:1006E000604500208045002030B50346154C006869
:1006F0005968234603C383B02046FFF7D7FE05465B
:1007000078B9114B22885B889A420DD862889A4248
:100710000AD30E4B5A6922B102A8012300F8043D06
:100720009047284603B030BD094A0A4B1088054956
:1007300001241C70FFF7B6FE074B054628461C70C7
:1007400003B030BDA445002058450020644500207A
:10075000A045002055450020604500200388112B4E
:10076000024672D02DE9F0431A2B95B0804651D045
:10077000102B02D015B0BDE8F083DFF8EC90D9F86B
:100780004820D9F8443009F1040123EA020203A801
:1007900005F076F8039E7EB1002427460DF10E0584
:1007A000304835F8023F0097013400F140011D2226
:1007B00005F03AF8B442F3D1D9F84400B8F804602F
:1007C000294CC04304F0FCFF4FF6FF73984243D01E
:1007D00004EB400504F14801201D32460123AE80A0
:1007E00005F004F83246201D04F14401012304F011
:1007F000FDFF98F80F30B8F80420A3F10203201D84
:10080000B3FA83F304F14C015B0915B0BDE8F04382
:1008100004F0ECBF037A134892881F2B94BF002387
:10082000012300F14C0104F0E1FF98F808300D4875
:10083000B8F804202F2B94BF0023012300F15001AE
:1008400015B0BDE8F04304F0D1BF0648928800F12E
:100850004401002304F0CABF042015B0BDE8F043F2
:1008600004F040BFB0450020AC450020007800F007
:10087000010070470078C0F3400070473FDF7047C9
:1008800040DF704710B50E4C23780BB1852010BDAA
:100890000C4A6360E3601068A36010F001002361FC
:1008A00002D1062100F018F905F0C0FB20B94FF085
:1008B00080430122C3F8182501232370002010BDB6
:1008C0006446002000E100E030B5254D6B7883B030
:1008D000044603F0FF0293B110B14368002098472B
:1008E00002A8002300F8043D04F00CFF6B689DF89B
:1008F000040001336B6004F02DFF03B030BD02A88B
:1009000000F8052D04F0FEFE64B1AA6842B19442DD
:1009100008D0134601E09C4204D01B68002BFAD19A
:100920002260AC606B6843B16B689DF803000133D3
:100930006B6004F00FFF03B030BD05F077FB58B9D2
:10094000084B18601B6801934FF080430122019906
:10095000C3F804231A60E7E7FFF790FFE4E700BF5E
:10096000644600200001004010B582B002A80023B8
:10097000144C00F8013D04F0C5FE6368013B636060
:1009800063682BB19DF8070004F0E4FE02B010BDCF
:1009900005F04CFB98B90C4B01221A604FF08042D5
:1009A000D2F80C3403F00113B3F1011FF8D0002387
:1009B0009DF80700637004F0CDFE02B010BDFFF794
:1009C0005FFFDFE7644600200400004010B51D4BC8
:1009D0001A6882B0F2B91C4B1A680AB902B010BD8D
:1009E00000221A601B6801934FF080430222174CCB
:1009F0000199C3F8082323690122A270002BEDD0CE
:100A00001A6822615B68012098472369002BF7D19F
:100A100002B010BD00221A601B6800934FF08043A3
:100A200001220A4C0099C3F80823A3686270002BC6
:100A3000D1D01A68A2605B6800209847A368002B99
:100A4000F7D1C8E7000100400401004064460020DF
:100A500000B1704710B5064CA3683BB11A68A2609C
:100A60005B6800209847A368002BF7D110BD00BF3A
:100A70006446002010B582B002A80023144C00F890
:100A8000013D04F03FFE237893B9124A6360E360AE
:100A90001068A36010F00100236114D005F0C6FABD
:100AA00020B94FF080430122C3F818250123237099
:100AB000E3689DF8070001330122E360A27004F0AF
:100AC00049FE02B010BD062100F006F8E6E700BFBF
:100AD0006446002000E100E0002810B418DB00F1BB
:100AE000604303F561434901C9B283F80013C3B2FF
:100AF0004009800000F1604000F5614003F01F02F2
:100B000001239340C0F8803103605DF8044B7047C7
:100B1000C3B2044A03F00F0449012244C9B211765A
:100B2000E6E700BFFCEC00E030B5234C94F86850D9
:100B300083B015B1082003B030BD06204FF0FF335D
:100B40000146FF2223646364A364E3642365636551
:100B5000A365E36523606360A360E3602361636171
:100B6000A361E361236284F860306362A36284F866
:100B70006230E36284F86330236384F86430636333
:100B800084F86530A36384F86630E36384F86730E3
:100B900084F86120FFF7A0FF084B094A1D601B681D
:100BA000019301984FF000430121284684F8681012
:100BB000C2F8043303B030BD784600207C610040A9
:100BC00000600040034B93F86800003018BF01201C
:100BD000704700BF78460020F0B5734C251895F992
:100BE0004030002B01DB0820F0BD91F803E0944673
:100BF000BEF1000F77D02368013300F0CE800826C5
:100C000000256B1C684F54F82320013272D0AB1CB6
:100C10009E4266D957F8232001326BD0EB1C9E42CE
:100C20005FD957F82320013264D02B1D9E4258D93A
:100C300057F8232001325DD06B1D9E4251D957F8E1
:100C40002370013756D0AB1D9E424AD954F8232059
:100C5000554F01324ED0EB1D9E4242D957F823200A
:100C6000013247D005F108039E423AD957F82320B4
:100C700001323FD005F109039E4232D957F82320B3
:100C8000013237D005F10A039E422AD957F8237062
:100C900001372FD005F10B039E4222D954F82320AF
:100CA000414F013226D005F10C039E4219D957F865
:100CB000232001321ED005F10D039E4211D957F8B1
:100CC0002320013216D005F10E039E4209D957F8B0
:100CD000232001320ED00F35AE4202D9FB6B013317
:100CE00007D00420F0BD236A01334ED0102608251A
:100CF00087E70F232618DDB244F823C086F840505A
:100D0000BEF1000F02D1234483F858008B78ABB9B1
:100D10004A784FF0A04600F5E073920046F8232091
:100D2000CB78ABB96AB2083A1444097894F86020D9
:100D300042EA811284F860201846F0BD830003F176
:100D4000A043D3F8002722F00202C3F80027E7E708
:100D50006BB29B0003F1804303F5C0430A78D3F8DC
:100D6000101521F4473121F44071C3F81015120415
:100D7000000202F44031D3F8104500F4F8520A435F
:100D80002243C3F810250020F0BD082685F84060F6
:100D90003346C4F820C03546B5E7002385F8403017
:100DA000C4F800C01D46B1E778460020F0B42E4DCF
:100DB0002E1882B096F8402053B2072B1CDD2B442E
:100DC00093F858309B09032B40D0012B0CBF4FF4F4
:100DD00000314FF44031800000F1A040D0F80027EE
:100DE00022F44032C0F80027D0F800370B43C0F897
:100DF000003702B0F0BC7047072AFAD8980000F11B
:100E0000804000F5C04003F140029200D0F8104548
:100E100092B202F18042002744F0010402F5C04280
:100E2000C0F810450197019817600029E1D096F9A4
:100E3000402055F82220002ADBD001220B4902FA7B
:100E400003F3C1F8043302B0F0BC70474FF0A04385
:100E5000D3F81035C34013F0010F14BF4FF44031E5
:100E60004FF40031B7E700BF784600200060004033
:100E7000154B034493F8402053B2072B16DC072A86
:100E800013D810B49A0002F1804202F5C0420F4C10
:100E9000D2F81005012120F0010001FA03F3C2F895
:100EA0001005C4F808335DF8044B7047800000F16A
:100EB000A040D0F8003723F44033C0F80037D0F812
:100EC0000037C0F8003770477846002000600040C7
:100ED0002DE9F0472A4C231893F8402053B2072BF2
:100EE0002CDCD2B2072A37D8990001F1804101F5F4
:100EF000C0410126D1F81075DFF888E003F5A2792A
:100F000000F5E0754FF0A04C06FA03F327F0010757
:100F10004FF0000A4FF002084FF0FF362044C1F8AE
:100F20001075CEF808334EF829A0FF234CF8258021
:100F300044F8226080F84030BDE8F087830003F178
:100F4000A043D2B2D3F8001721F44031C3F8001700
:100F5000D3F80017C3F8001700F5E0734FF0A04670
:100F60004FF0FF31A5180227204446F82370FF23D5
:100F700044F8221085F8581080F84030BDE8F0871A
:100F800078460020006000404FF0A043D3F81035B1
:100F900023FA00F000F00100704700BF2DE9F04790
:100FA00086B00026A34B01961A68012A00F034810E
:100FB000A14B1A68012A00F02181A04B1A68012A6E
:100FC00000F00E819E4B1A68012A00F0FB809D4BB9
:100FD0001A68012A00F0E8809B4B1A68012A00F089
:100FE000D5809A4B1A68012A00F0C280984B1A6883
:100FF000012A00F0AF80974B1A68012A00F09D800B
:1010000016F0FF0F1AD0944F01250024A30003F11E
:101010008043354203F5C0434FEA45050BD0D3F872
:10102000100557F82420D3F81015C0F30420C1F39D
:10103000014102B190470134082CE7D1002E02DBB8
:1010400006B0BDE8F087854D00224FF0FF33A5F1D3
:10105000670702920393824C4FF00008012603E0D9
:10106000032A65D0AC4237D014F8011FFF29F9D00C
:10107000C9B221F0C00006AB4FEAD00E03EB0E025E
:1010800001F0070312F80CCC06FA03F31CEA030F75
:10109000E8D007EB000C89099CF940C057F82CC038
:1010A000BCF1000F39D0032939D04FEA800E0EF180
:1010B000A04E12F8149CDEF8002719EA030FC2F3C1
:1010C0000142CDD0022ACDD1032913D0BCF1000FAB
:1010D000C8D0E047AC42C7D1B8F1000FB0D04FF054
:1010E000A043019AD3F810359342A9D0029A0193F4
:1010F0000392B0E74FF44039DEF8002722F4403283
:10110000CEF80027DEF8003708F1010849EA0303AA
:101110005FFA88F8CEF80037D8E70329A2D10DF19D
:10112000080A1AF80E9049EA03090AF80E90BCE77B
:101130000329CBD14FF40039DEE700221A601B6887
:1011400005934FF0A043059AD3F81035019346F06C
:10115000004655E7434AD2F8042312067FF54BAF09
:1011600000221A601B680493049B46F0800642E745
:101170003C4AD2F8042351067FF538AF00221A60AA
:101180001B680493049B46F040062FE7354AD2F8CB
:10119000042390067FF525AF00221A601B68049394
:1011A000049B46F020061CE72E4AD2F80423D406FE
:1011B0007FF512AF00221A601B680493049B46F06F
:1011C000100609E7274AD2F8042315077FF5FFAE7A
:1011D00000221A601B680493049B46F00806F6E69A
:1011E000204AD2F8042357077FF5ECAE00221A609C
:1011F0001B680493049B46F00406E3E6194AD2F800
:10120000042392077FF5D9AE00221A601B6804936D
:10121000049B46F00206D0E61249D1F8041311F0FF
:10122000010105D01E601B680493049B1646BFE6AF
:101230000E46BDE6006100400461004008610040C8
:101240000C610040106100401461004018610040D2
:101250001C6100407C61004078460020DF46002091
:10126000D74600200060004000B5204B1A6885B0CA
:1012700092B100221A6019681D4A1E4B0191019912
:10128000D868D2F860251989904208BF18695A6851
:10129000904705B05DF804FB174B1968B1B11A60AF
:1012A0001968144A0291A3F58073012151700299C3
:1012B000D168D3F86005814208BF11691289C3F86B
:1012C0006015C3F8642505B05DF804FB0B4B1A6884
:1012D000002ADED0196018680390054A054B039870
:1012E000C2F80015597005B05DF804FB08D1014043
:1012F00000D00140E446002000D1014004D101406B
:10130000F0B590F804E0724D4FEACE042B1989B085
:101310001B7913B1082009B0F0BD45F83E200A78CA
:10132000FF2A00F0C48022F080031706049340F1E6
:10133000B78001224FF0A0469A40C6F8082503F571
:10134000E0734FF0A042032642F823604A78FF2A58
:1013500000F0B98022F080031606059340F19980D1
:1013600001224FF0A0469A40C6F8082503F5E07325
:101370004FF0A042032642F823608A78FF2A00F04B
:101380009E8022F08003120606937BD501224FF047
:10139000A0469A40C6F8082503F5E0734FF0A04236
:1013A000032642F82360CA78FF2A00F0848022F0E6
:1013B000800312F0800F4FF0A0464FF0010202FAB6
:1013C00003F2079314BFC6F80825C6F80C2503F5E9
:1013D000E0734FF0A042032642F823600368049FA5
:1013E000059E069AC3F86075C3F86465C3F868255E
:1013F000079AC3F86C2503680122C3F80025036827
:101400008E790A894F79C3F80C75C3F80465C3F85F
:101410000825CE7A8B7A026843EA0623C2F8103593
:1014200002680023C2F800320268C2F80033026882
:10143000C2F81C31D2F81C6102680196019EC2F804
:101440001031D2F8106102680296029EC2F814317F
:10145000D2F8146102680396039EC2F80431D2F8F0
:10146000042155F83E300492049A2BB100680979A2
:1014700040F30730FFF730FB2C4401230020237199
:1014800009B0F0BD01224FF0A0469A40C6F80C25E5
:1014900082E701224FF0A0469A40C6F80C2565E786
:1014A00001224FF0A0469A40C6F80C2547E74FF0BE
:1014B000FF3304934AE74FF0FF3307938EE74FF073
:1014C000FF3306936FE74FF0FF33059355E700BFF7
:1014D000F8460020F0B404680E680579C4F8206569
:1014E0008E88C4F824658E68C4F82865CE68C4F870
:1014F0002C6504680E68C4F840658E88C4F844659D
:101500008E68C4F84865C968C4F84C15046802F0D0
:10151000010101EB5202C4F81425DA0782B03DD470
:1015200013F002023CD104680029C4F8002214BF61
:101530000C260826DAB2244C04EBC50154F83540D9
:101540004A7102250D71C4B102F0040100290BBFDC
:1015500029461221822492240BBF22273227A2255A
:10156000B22512F0080F1CBF39462C4612F0100F9E
:10157000026808BF2146C2F8001301680022C1F8C2
:101580000421D1F8041101911B06019917D40368B5
:1015900001211046995102B0F0BC70471022C2E7F9
:1015A00031B102680821C2F800120C26DAB2C2E793
:1015B00002680421C2F800120826DAB2BBE700680C
:1015C000304402B0F0BC7047F846002070B40468A4
:1015D0000E680579C4F820658E88C4F824658E6885
:1015E000C4F82865C968C4F82C1501681468C1F8E6
:1015F00040459488C1F844459468C1F84845D2688C
:10160000C1F84C2583B00168069AC1F81435D30798
:101610003BD412F0020F14BF042600261E4B0168B3
:1016200053F83540C1F8006203EBC503D1B202257F
:101630001D715971C4B101F00403002B0BBF2B467F
:101640001223822492240BBF22263226A225B22501
:1016500011F0080F1CBF33462C4611F0100F016823
:1016600008BF2346C1F8003301680023C1F80431E4
:10167000D1F8041101911206019908D402680121E0
:101680001846916003B070BC70471026C6E700682A
:10169000083003B070BC7047F846002000B52B4BF3
:1016A000D3F8102185B052B10021294AC3F8101196
:1016B000D3F81011537903910399590740D4234B60
:1016C000D3F8142152B10021214AC3F81411D3F8E0
:1016D0001411537902911B0702992BD41B4BD3F899
:1016E0001C216AB100221A49C3F81C214A79D3F897
:1016F0001C31019302F0100303F0FF00019AA3B123
:10170000124BD3F804216AB10021114AC3F8041125
:10171000D3F80411136800910121009811710BB1E5
:101720000320984705B05DF804FB0B68002BE7D059
:101730009847E5E71368002BD0D002209847CDE703
:101740001368002BBBD001209847B8E700C00140C8
:10175000F84600202FDF704730DF704710B5044691
:1017600004F064FC18B12046FFF7F4FF20B10348F1
:1017700003F0B0F9207010BD10BD00BFEC150400DF
:101780002DE9F043DFF87C90DFF87C8083B00746DA
:101790000E460EE09DF8030003F0DCFF38463146AC
:1017A000FFF7DAFF42F207039842044623D0022CE7
:1017B00022D100230DF103008DF8033003F0A2FFC6
:1017C00004F034FC05460028E4D1324639460C4882
:1017D00003F028F9C9F80050D9F80030019301232B
:1017E000019AC8F80433C8F8003004469DF8030095
:1017F00003F0B0FFDBE70524204603B0BDE8F0832B
:10180000EC15040000D1004000D0004010B582B0BB
:1018100002A8002300F8063D03F074FF04F006FC64
:1018200038B9124B1A6822B1114CD4F80823D207E8
:1018300005D49DF8020003F08DFF02B010BD1860C2
:101840001B68019302A9019BD4F8083501F8053DF6
:10185000084803F073F8074803F062F80028E8D05E
:10186000054A0123C4F808331360E2E700D10040C1
:1018700000D00040EC15040004D000402DE9F041F8
:10188000684B1A6888B0002A3CD1674F97F82E3011
:10189000002B45D1654B1A68002A5FD1644B1D6847
:1018A000002D6BD17C699CB14FF000480126B4FA41
:1018B00084F18B0003F58C7303F1804202F5E04262
:1018C00028FA01F0116824EA000421B9002CEED1B5
:1018D00008B0BDE8F0811560A3F58C73126804921E
:1018E00083F00401C1F38002DB088DF819208DF824
:1018F00018308DF814603B68049A05A89847002CAE
:10190000D5D1E5E70022484F1A60196897F82E30C4
:1019100000910099002B3AD097F82F30002B4FD12F
:10192000444B1A68002AB5D00021196097F82D4061
:101930001A687B8B0192A5B2AB42019A3A4A4ED803
:101940005FD0384B3C4A002119601B680293012389
:1019500002991360354B1A68002A9FD000221A6042
:1019600008A81B680393022100F80C1D3B6803992B
:101970003A7498472E4B1D68002D93D000221A60B0
:101980001B680593059B3A7408B0BDE8F081FA68BE
:10199000786839898DF814300690ADF81C10002A4B
:1019A0002CD02648398B7A600122FB6079833981FB
:1019B00002603B6805A89847002387F82F3065E749
:1019C000FB68786839898DF814200690ADF81C10F2
:1019D000A3B1398B7B60FA6079833981E9E711899A
:1019E0005068164E5B1B9BB289B2C91A00EB4101CD
:1019F0005383C6F82C16C6F83046A2E700233B7482
:101A0000D7E7D3684BB10D4851830121C0F82C367C
:101A100082F82F10C0F8304693E70121538382F8F3
:101A20002F108EE7047100403047002010710040F5
:101A300014710040007100400470004000700040CC
:101A40002DE9F0438FB0002442F210750095C1F8E3
:101A50000441D1F804510195019DC1F82441D1F808
:101A600024510295029DC1F81C41D1F81C510395E7
:101A7000039DC1F80841D1F8085104950125049E41
:101A8000C1F8004280F8264080F823400D628D6046
:101A900090F826409DF858609C4213D2145DC1F81E
:101AA0001C4590F826402C4480F8264004687CB100
:101AB00040F2862383608368C1F8043300200FB0AE
:101AC000BDE8F083002E36D0CD610468002CEFD144
:101AD000009D002D1FDD03F1FF3E01274FF0020C9A
:101AE00090F823504DBBD1F8248190F82690B8F19E
:101AF000000F44D0C1F82451D1F824510A950A9D11
:101B00004F6180F823704B4529D0009D013D009521
:101B1000009D002DE4DC90F82330002B6ED10020D6
:101B2000009B002BCBDC00220523C1F800250320FD
:101B3000C1F80035C3E74D61B8E7C1F82441D1F8D9
:101B400024510D950D9DC1F81C41D1F81C510C95E7
:101B50000C9DC1F80841D1F808510B950B9DD1F8A7
:101B60000451002DD1D00023C1F80431D1F8043143
:101B70000593059B90F82330002B3FD1CFE7D1F898
:101B80001C51ADB1C1F81C81D1F81C510995099DBA
:101B9000D1F8245145BB90F82650AB425ED9555D33
:101BA000C1F81C5590F82650013580F82650AAE758
:101BB000D1F80881B8F1000FA5D0C1F80851D1F8CB
:101BC0000881CDF81C80DDF81C80D1F82481B8F1A3
:101BD000000F2DD0C1F82451D1F824510695069D4F
:101BE0004F6180F823708EE7C1F82481D1F8245129
:101BF0000895089D4F6180F8237084E7D1F8C434BC
:101C0000C1F8C434002B8AD013F0010F18BF4FF471
:101C1000024048F2012208BF032013F0020F18BF50
:101C2000104648F2022213F0040F18BF104677E75F
:101C300090F82650AB427FF666AFD1F8188502F8CF
:101C4000058090F826500135EDB2754580F8265094
:101C50000AD0AB423FF457AF0F6254E716B10123ED
:101C6000CB6158E74F614EE7C1F800C2F4E700BF0F
:101C70002DE9F0418EB0002442F210750095C1F8B4
:101C80000441D1F804510195019DC1F82441D1F8D6
:101C900024510295029DC1F81C41D1F81C510395B5
:101CA000039DC1F80841D1F808510495012B80F833
:101CB000264080F82340049D0CBF02240124012506
:101CC000C1F800420D620D6004684CB140F28623F9
:101CD00083608368C1F8043300200EB0BDE8F08152
:101CE000009E002E1EDD2E4603F1FF3E4FF0020C3B
:101CF00090F8235035BBD1F8247190F82680002F3E
:101D000042D0C1F82451D1F824510A950A9D4E6160
:101D100080F82360434527D0009D013D0095009D3C
:101D2000002DE5DC90F82330002B67D10020009BCC
:101D3000002BD2DC00220523C1F800250320C1F8C6
:101D40000035CAE7C1F82441D1F824510D950D9D05
:101D5000C1F81C41D1F81C510C950C9DC1F80841EB
:101D6000D1F808510B950B9DD1F80451002DD3D01B
:101D70000023C1F80431D1F804310593059B90F894
:101D80002330002B3AD1D1E7D1F81C51ADB1C1F8C5
:101D90001C71D1F81C510995099DD1F824511DBB26
:101DA00090F82650AB4258D9555DC1F81C5590F8B3
:101DB0002650013580F82650ACE7D1F80871002F85
:101DC000A8D0C1F80851D1F808710797079FD1F83A
:101DD00024716FB3C1F82451D1F824510695069DA2
:101DE0004E6180F8236095E7C1F82471D1F8245141
:101DF0000895089D4E6180F823608BE7D1F8C434C4
:101E0000C1F8C434002B91D013F0010F18BF4FF468
:101E1000024048F2012208BF032013F0020F18BF4E
:101E2000104648F2022213F0040F18BF10467EE756
:101E300090F82650AB427FF66DAFD1F81875575524
:101E400090F826500135EDB2754580F8265006D041
:101E5000AB423FF45FAF0E625CE74E615AE7C1F8F8
:101E600000C2F8E72DE9F04F0579244EAF0007EBEB
:101E7000050E4FEACE0E06EB0E0883B098F822400E
:101E80001CB1082003B0BDE8F08F46F80E20C8F85A
:101E90000840C8F8043088F8254088F824408B7B37
:101EA00088F827304B7B5BBB0B684FF0A04403F5F1
:101EB000E07340F20C6E44F823E04B6803F5E073E6
:101EC00044F823E091E810400368C3F80845C3F8DC
:101ED0000CE58C68C3F824452AB10068097B40F3FF
:101EE0000730FEF7F9FD3D4406EBC5050123002050
:101EF00085F8223003B0BDE8F08F00BF60470020B6
:101F00000B68DFF8A092DFF8A0E24FF0A04C03F5D9
:101F1000E07340F20C6A4CF823A04B6803F5E073C1
:101F20004FF001084CF823A00B6808FA03F3CCF833
:101F300008354B6808FA03F3CCF808350B6803F54D
:101F4000E07340F20D6B4CF823B04B6803F5E0737F
:101F50004FF0040A4CF823B05346D9F8009000BF64
:101F600000BF00BF00BF00BF00BF00BF00BFF14502
:101F70002FD000BF00BF00BF00BF00BF00BF00BF29
:101F800000BF00BF00BF00BF00BF00BF00BF00BF59
:101F900000BF00BF00BF00BF00BF00BF00BF00BF49
:101FA00000BF00BF00BF00BF00BF00BF00BF00BF39
:101FB00000BF00BF00BF00BF00BF00BF00BF00BF29
:101FC00000BF00BF00BF00BF00BF00BF00BF00BF19
:101FD00000BF013BC3D1F3460195DCF81035D1F8C1
:101FE00004E023FA0EF3DB07554600F1D5800B68B9
:101FF00008FA03F3CCF80C3500BF00BF00BF00BFE8
:1020000000BF00BF00BF00BFD9452FD000BF00BF39
:1020100000BF00BF00BF00BF00BF00BF00BF00BFC8
:1020200000BF00BF00BF00BF00BF00BF00BF00BFB8
:1020300000BF00BF00BF00BF00BF00BF00BF00BFA8
:1020400000BF00BF00BF00BF00BF00BF00BF00BF98
:1020500000BF00BF00BF00BF00BF00BF00BF00BF88
:1020600000BF00BF00BF00BF00BF00BF013DC3D124
:102070000B6808FA03F3CCF80835534600BF00BFDD
:1020800000BF00BF00BF00BF00BF00BFD9452FD0B9
:1020900000BF00BF00BF00BF00BF00BF00BF00BF48
:1020A00000BF00BF00BF00BF00BF00BF00BF00BF38
:1020B00000BF00BF00BF00BF00BF00BF00BF00BF28
:1020C00000BF00BF00BF00BF00BF00BF00BF00BF18
:1020D00000BF00BF00BF00BF00BF00BF00BF00BF08
:1020E00000BF00BF00BF00BF00BF00BF00BF00BFF8
:1020F000013BC3D10134092C7FF46FAF4B68019DC4
:10210000984601234FF0A04E03FA08F8DFF898C074
:10211000CEF80C85042400BF00BF00BF00BF00BF85
:1021200000BF00BF00BFE1452FD000BF00BF00BF10
:1021300000BF00BF00BF00BF00BF00BF00BF00BFA7
:1021400000BF00BF00BF00BF00BF00BF00BF00BF97
:1021500000BF00BF00BF00BF00BF00BF00BF00BF87
:1021600000BF00BF00BF00BF00BF00BF00BF00BF77
:1021700000BF00BF00BF00BF00BF00BF00BF00BF67
:1021800000BF00BF00BF00BF00BF013CC3D14C680F
:10219000A340CEF8083587E6019DF046002CB0D16B
:1021A00082E600BFD04200200024F400F0B502799E
:1021B000244B9500A91853F83110002940D001682C
:1021C000214F090B4CB26409203401F01F01012694
:1021D00006FA01F147F8241001790468AE1803EB00
:1021E000C60601EB810103EBC10196F827704FF0A1
:1021F000FF36C4F808634FF0010E002681F822E094
:10220000D4F80012C4F80062C4F800658FB9016800
:10221000D1F808154FF0A04401F5E07140F2023604
:1022200044F821600168D1F80C1501F5E07144F81B
:1022300021602A4403EBC203002283F82220F0BD70
:102240001146CAE76047002000E100E00379064A32
:10225000016803EB830302EBC3030220052283F82A
:102260002200C1F8002570476047002010B40279B1
:102270000B49036802EB82024FF0FF3001EBC20210
:10228000C3F8080300210120D3F8004282F822009D
:10229000C3F80012C3F800155DF8044B704700BF87
:1022A000604700202DE9F04F87B000249DF8405092
:1022B0000394884696469C4604940594CDB9A94655
:1022C0000379214F066803EB8303DC0007EB040B63
:1022D0004FF0FF330BF1200AC6F808339AF80430A8
:1022E0005BB1DBF80830C6F80433112007B0BDE855
:1022F000F08F01254FF02009E2E78DF80D808DF871
:102300000EC0CDF810E006AB13E907000BF10C038B
:1023100083E8070001228AF804206346C6F888850E
:102320005846009572463146CBF818908BF820C07D
:10233000CBF81CE08AF80150FFF782FB3B59002BD9
:10234000D4D18AF80430D1E7604700202DE9F04F5E
:102350000479DFF89080066804EB8404E40008EB5D
:1023600004054FF0FF3005F12009C6F8080385B0D9
:1023700099F80470002007F0FF0C01900290039080
:1023800037B1AB68C6F80433112005B0BDE8F08F53
:10239000012796468DF8063002928DF804708DF86C
:1023A000051004AA8A4612E9070089F8047005F1AD
:1023B0000C0787E8070085F82030C6F888A528466E
:1023C00031467246C5F818C0C5F81CE089F801C04E
:1023D000FFF74EFC58F80430002BD6D189F80430B2
:1023E000D3E700BF60470020F0B5714B714A93F806
:1023F0002310DE6993F8200093F8217091B099B909
:10240000D2F8244193F82650002C4AD0C2F8241167
:10241000D2F8241108910121089C83F823105161FE
:10242000A84214D011B0F0BD0021C2F82411D2F896
:1024300024010B900B98C2F81C11D2F81C010A90D1
:102440000A98C2F80811D2F808210992099A594A43
:10245000D2F804110029E5D00021C2F80411D2F805
:1024600004210392039A93F823205148002A30D183
:10247000017B8A1E012A65D94F4A07CA10AD05E9BA
:10248000070000248DF830409A694948002154071C
:1024900083F82410C6D4036841680CA8984711B08B
:1024A000F0BDD2F81C1151B3C2F81C41D2F81C1176
:1024B00007910799D2F82411002957D0C2F8244176
:1024C000D2F8241106910121069C83F82310516152
:1024D000A6E70C3007C810AC04E907003549D1F86D
:1024E000C424C1F8C424910703D501228DF83020FB
:1024F000CAE7550744BF02228DF83020C4E7D2F85E
:102500000841002C8CD0C2F80811D2F8084105947B
:10251000059CD2F82441002C35D1A84280D9D2F8AC
:102520001815715593F826100131C9B2441EA14205
:1025300083F8261032D088423FF472AF1D4A012141
:1025400011626DE7C4690269944295D18469426958
:10255000C37BC261C4F34014032980F8214080F892
:1025600020301FD01349FFF783FB5BE7A84203D855
:1025700001218FB1D16176E7715DC2F81C156A1C2B
:1025800083F826204CE7C2F82411D2F824110491D4
:10259000049C012183F82310516141E70221C2F814
:1025A0000012CBE700940349FFF74AFA3AE700BF6D
:1025B00060470020003000406C4700202DE9F84FB4
:1025C000234B1A788AB3DFF88CB0DFF88C80DFF801
:1025D0008C9000244FF0010A03E00134E4B29442ED
:1025E00023D226B2D8F80050DBF8003015F83600B8
:1025F0000AFA00F1194205EBC607EED0154A23EAA4
:1026000001031360FEF7C0FC15F83650D9F800300E
:102610000AFA05F10B4000FA05F18B4207D00C4B8A
:1026200001341A78E4B29442DBD3BDE8F88F7978AC
:102630007B68A1F10101B1FA81F14909002BEED0CB
:10264000091A2846B1FA81F149099847E7E700BF1E
:1026500090470020B84700208C470020B447002056
:1026600070B50646114802F0FBFF40B9104D012439
:102670002B68B4401C4203D023EA04042C6070BDD4
:102680003046FEF781FC0B4E326860B122432B6866
:10269000094932601C432C60044809680022BDE8E7
:1026A000704002F083BF22EA0402F0E79447002062
:1026B000B8470020B447002088470020F0B5042A1E
:1026C00085B0174602D8072005B0F0BD0191054638
:1026D000FEF778FA0199002830D01C4CDFF888E02A
:1026E0001B481C4A1C4B256000264C1E07608EF8B8
:1026F000001016601E60E4B2032709B918E01C46FA
:1027000023B205EBC30215F833009378134A8DF812
:102710000D3003A98DF80C708DF80E608DF80F60E8
:10272000FEF75AFA631E0028CED1DBB2002CE6D1A8
:102730000B4A0C48002102F027FFC5E70191FEF784
:10274000F3F901990028C8D0BEE700BF8C470020EC
:1027500088470020B4470020B847002061260200C7
:10276000BD250200001604009047002070B5084DFA
:102770002B785BB1074E00243368012113F8340035
:10278000FEF714FB2B780134A342F5D8002070BD6E
:10279000904700208C470020033080B240F2FD3388
:1027A000984201D90920704730B4294B1C783CB9B4
:1027B0005D891A892A44024492B2B2F5806F37D3F8
:1027C0001A7C234C3AB9658B228B2A44024492B27C
:1027D000B2F5806F35D393F820201D4C3AB9658D42
:1027E000228D2A44024492B2B2F5806F2CD393F822
:1027F0003020174C3AB9658F228F2A44024492B296
:10280000B2F5806F13D393F84020114C12B107201A
:1028100030BC7047B4F84A50B4F848202A44024407
:1028200092B2B2F5806FF2D20424224601E0032472
:10283000224603EB02130C805A8910445881002071
:10284000E6E701242246F4E702242246F1E700BF2E
:1028500034480020F0B543684BB1404A1468A342A5
:1028600005D35268934202D813F003023BD00023F1
:10287000DFF8F0E00B804FF0010C4FF6FF75DEF84B
:102880000470002307F5805453B35A88033203EBD6
:1028900082039C4217D91A68013214D09A881E8884
:1028A000AA420AD04EB19E6802689642ECD12C4AE8
:1028B0004360138903810120F0BD5A88033203EB82
:1028C0008203A342E7D30CF10103A1F800C01FFA71
:1028D00083FCBCF1060F0EF1100ED0D10020F0BD2C
:1028E00007F10803D5E71E4C05892489A542BED10E
:1028F00005689C68A542BAD11A484468A34205D924
:1029000004F58054A34201D213461BE0426993426E
:1029100005D902F58052934201D2012312E0426AA6
:10292000934212D8426B934203D902F580529342EC
:1029300011D3426C9342D1D902F58052934238BFF1
:102940000423CBD20B800120F0BD02F580529342CC
:10295000E8D20223F6E70323F4E700BF4044002057
:1029600084480020344800202DE9F04FB64CD4F8BC
:10297000A850EF007E1BB6008FB0A35D5A1E8246A2
:1029800004EB060BA046052A00F20981DFE802F0FD
:102990005230301D1D0300285AD1DFF8CC9299F82F
:1029A0000F30002B00F0CE8399F8003089F80F002B
:1029B000013B062B00F2F280DFE813F05203BA026B
:1029C000B0018C01F000FC020E03002841D1C5EBE0
:1029D000070904EB890999F80420012A00F01F84F3
:1029E000C0F00684022A40F0DA8000220A9238E021
:1029F0007A1B04EB820202F108019448B1F80A90B4
:102A0000029000EB0919BAF1000F40F0B780B9F855
:102A10000800D9F80420097A02EB8002062900F2A6
:102A20000984DFE811F0920166024602FB01E2012F
:102A3000CB01C801002840F099809BF80430032B9B
:102A400000F2C284DFE813F039011401EF00BD0089
:102A50000623012018F806200A90023A012A40F2C3
:102A6000A680013B052B07D8DFE803F038715A49EF
:102A70003C0305238DF82430754D05F1200655F8EB
:102A8000043F0BB109A89847B542F8D1D4F8A80083
:102A90006D4DC0EBC0001C2204EB8000002117F03C
:102AA000E1FDD4F8AC208AB1D5F8A810694B01310A
:102AB000A3FB01039B0803EB4303013AA1EB430390
:102AC000C5F8AC20C5F8A830002A6AD1624A13784C
:102AD00023F0040313700FB0BDE8F08F00238DF8CE
:102AE0002430C9E77B1B04EB83030422DB88ADF8A9
:102AF000303000238DF82420ADF83230BCE77B1B4A
:102B000004EB83031A46DB8832F8081FADF8303037
:102B100053680B930323ADF832108DF82430ABE7E4
:102B20007B1B04EB83031A7C1889DD6899880B955D
:102B3000A2F106030222B3FA83F35B098DF8343065
:102B4000ADF83000ADF832108DF8242094E77B1BEF
:102B500004EB8303012218899988DB68ADF8300003
:102B6000ADF832100B938DF8242085E73A490A78A6
:102B7000012322F001020A7018466BE7D088B9F8E9
:102B80000A20B9F8081000F1030E121A7144033A32
:102B9000A9F80810A9F80A2001205BE706230F20F6
:102BA00058E70020FFF7E0FE0FB0BDE8F08F2B4A9A
:102BB0009BF81660106C516C3044891B1064516492
:102BC0004FE7DFF8A890264AD9F8001025484FF0C3
:102BD000000A0223CDF800A001F0F8F9224BDFF83B
:102BE0006CC05B88D9F80010B9F804E08BF804A039
:102BF0001B010CEB03020CF803A05368C9F800306A
:102C000002235160A2F808E0A9F8043000283FF43C
:102C100062AF7B1B14F823300F490A7822F00102BF
:102C20000A700E2016E7DFF844900E48D9F800101D
:102C30000122002301F014FA02220023A9F8042043
:102C40008BF80430E2E700BF9448002034480020AD
:102C50000C480020ABAAAAAA54490020BC47002077
:102C60000816040040440020844800204449002005
:102C7000C54B029319461B78022B00F0A3830B7CF3
:102C8000022B00F09D8391F82030022B00F06A8324
:102C900091F83030022B00F0648391F84030022B21
:102CA00008BF042300F05E83B84A137843F00203A0
:102CB00023F001031370012397E6B54BB54819685B
:102CC000B54A00230093022301F080F901238BF819
:102CD00004309BE7B9F80220AB4BDFF8D09203EB4E
:102CE00002129389002B00F01883DFF8A4E2A948B0
:102CF000DEF800104FF0020A4FF0050C012200230D
:102D0000AEF804A089F800C001F0AAF900283FF449
:102D1000E2AE1C2303FB05F3E35C9BE6D9F8042039
:102D20009B495388B1F804C009689A484FF0000ED7
:102D3000CDF800E003334FF0030E9BB201EB8C01A2
:102D400089F800E001F042F9E0E7C5EB070A4FEA35
:102D50008A0A04EB0A0C0023114600930CF10402CA
:102D600001238C48CDF808C001F030F9DDF808C027
:102D700002238CF8103000283FF4ADAE874B13F8D7
:102D80000A300E20791B04EB8101B9F80A20B1F852
:102D900006E0B9F808100EF1030CCEEB020241F682
:102DA0001D5E6144033A7045A9F80810A9F80A208D
:102DB0003FF41BAE4EE641F61D50E3E7784B794AEF
:102DC000B3F800A051687348774A002300930123A9
:102DD00001F0FCF8002800F0B7827B1B9B00E21892
:102DE0000621E35C11740E20CCE77B1B4FEA830ABB
:102DF00004EB0A016B4B886918604FF0000E6849BC
:102E000002921846C3F804E0FFF724FD029A002856
:102E10009BD1624B0A2013F80A301BE6DFF890E1E1
:102E2000DEF844300293002B00F00682DEF84010FA
:102E300058485EF8311005917B1BDEF8401004EB1A
:102E4000830303F1100A013103910299BAF804C017
:102E500004930139DEF84030CEF8441002EB8C01C7
:102E6000039A0EEBC30302F0070CCEF840C04FF0FC
:102E7000000E0693059A9B88CDF800E001F0A6F8B5
:102E8000069A9AF806309188BAF80420013B0A4461
:102E9000DBB2AAF804208AF8063013B9049A012399
:102EA000137400283FF417AE7B1B0E2014F8233058
:102EB00068E7C5EB070A4FEA8A0A04EB0A00002319
:102EC00002F10801009300F10C020123314801F0E6
:102ED0007DF804EB0A0331499A7D002A14BF0322CE
:102EE00001221A7400283FF4F6AD11F80A300E20C2
:102EF00048E77B1B4FEA830C04EB0C0A0AF1080A33
:102F00000023111D0093524601232248CDF808C02A
:102F100001F05CF8DDF808C014F80C30032B0CBF8E
:102F2000052206228AF8082000287FF45CAFD2E54B
:102F3000D9F80430B9F802E0002B00F03182124ACF
:102F4000029211464FEA0E1E5A88714403324968B4
:102F500003EB820201F58050824280F0E580136825
:102F6000013318BF4FF6FF7C00F0DE809388B2F883
:102F700000A0634500F0CE80BAF1000F00F0CA80D7
:102F8000C9F80420CCE600BF344800205449002092
:102F900044490020404400201016040094480020BA
:102FA0005C490020044800200416040084480020E6
:102FB000BC470020B9F80230B44A02921B011A44FF
:102FC000002351680093062389F80030B04AB148C5
:102FD000022300F0FBFF99E6AF4BB04A1968AD48F9
:102FE0004FF0000E4FF0070CCDF800E00223C9F8B7
:102FF00004E089F800C000F0E9FF87E6A34BB9F8C8
:1030000008C093F800E0BEFA8EFE4FEA5E1E187C00
:1030100093F8201093F83020B0FA80F0B1FA81F1E3
:103020004009B2FA82F24909520993F8403089F80E
:103030000AE0B3FA83F30CF1010C5B094FF0000ACC
:103040004FF0010E89F80B0089F80C1089F80D205B
:1030500089F80E30A9F808C089F80FA089F800E0B7
:1030600099F80A308E4A53B1884B02939B8900210C
:10307000917223B9854A927B002A40F0A88199F881
:103080000B30874A53B1814B02939B8B0021D17245
:1030900023B97E4B9B7F002B40F0D48199F80C30F4
:1030A0007F4A5BB1794B02939B8D002111732BB941
:1030B000764B93F82E30002B40F0C78199F80D30F5
:1030C000774A5BB1714B02939B8F002151732BB9EF
:1030D0006E4B93F83E30002B40F0788199F80E301B
:1030E0006F4A63B1694B0293B3F84C30002191737E
:1030F0002BB9664B93F84E30002B40F0A9817B1B17
:10310000002214F8233089F80020A9F80220C9F819
:1031100004206AE45388033302EB8302904203D90C
:10312000136801337FF422AF029B73449B89002B09
:103130007FF4DBAD5748012200F092FF042389F8A9
:103140000030E3E599F80030072B3BD801A252F894
:1031500023F000BFFD2F0200C5310200C53102007F
:10316000A93102007D310200D92F0200D92F0200BF
:1031700075310200012389F8003071E7434AB9F83C
:103180000230029211461B01434A19441068B2F8FA
:1031900004E0D1F804C048600220C2F800C090806A
:1031A000A1F808E0029A0AE73B48D9F80430818880
:1031B0005A88B9F802E0114403310222818089F86B
:1031C0000020BCE6013B062B3FF6E8AC01A252F81A
:1031D00023F000BF61300200312F02001D2D0200DC
:1031E000D52C02009D2B0200B52F0200D92F020022
:1031F0000EA8D9F80C3040F8143D0DF12201CDF89D
:1032000028A0CDF82CA0FFF725FB002840F08780F0
:103210000A207B1B04EB830302221A7176E5214B03
:103220001B789B070AD4014608221F4817F01AFA98
:1032300002206EE50F20A5E51B68FFDEDFF868E0E1
:10324000BEF80430042B17D8104A06900395049654
:1032500002924FF6FF701E464D464FEA061A02993B
:1032600011F80A3001EB0A0203B3731C9EB2052E5B
:10327000AEF80460F1D1039D0B480021082217F03D
:10328000F1F97B1B14F82330FFF7AFBB3448002063
:103290000816040040440020444900201016040091
:1032A00084480020544900204C4900205368DEF82F
:1032B0000090079303F580520596B9F1000F6BD08B
:1032C000B9F80210033109EB8101914220D20B6859
:1032D00001331DD08B880E88834214D09EB1B5F87F
:1032E00006C0CEF800109C458946E6D10023009325
:1032F00059485A4A039D049E012300F067FE0028A6
:1033000042D00E2005E54B88033301EB8301DCE757
:10331000069B059ECEF80030A7E751680AE70A9998
:103320004D488B88A9F80630B1F800E04B4ACDF83B
:1033300000A00123A9F808E0BDF8229000F046FEA5
:10334000002836D00E2064E7029B7D1B03EB0A1A8F
:1033500004EB85040622012322748AF80E30FFF75D
:10336000BABB03234FEA0319029B3B483C4A4B4438
:103370004FF0000A5968CDF800A0022300F026FEA5
:10338000029B03F809A041E4029B53449A4601239F
:103390008AF80E30FFF79FBB079B03F1080194E703
:1033A000304B02934FEA0E1E7344596801F1080234
:1033B000D0E52C4B03EB0913012250469A7328E702
:1033C0000123CFE70023CDE7012325E4032319469A
:1033D000D9F80420A9F802306AB3029B03EB01116B
:1033E00053884968033302EB830201F58050904211
:1033F00018D91368013318BF4FF6FF7E03D111E0CF
:10340000136801330ED09388B2F800C0734503D01F
:10341000BCF1000F7FF4B4AD5388033302EB830299
:103420009042EDD800230C48012200F019FE04233D
:1034300089F800306AE4029B03EB0111496801F14D
:103440000802D2E701231946C2E702231946BFE763
:1034500004231946BCE700BF4044002004160400C2
:1034600008160400344800200846FFF77DBA00BF64
:10347000074A1378082B09D010B4591C054C117059
:1034800044F8230000205DF8044B70470C2070477F
:1034900030480020104800202DE9F04FDFF8EC8282
:1034A0008BB098F8002000230593069307930893A8
:1034B000099393070DD5AD4C04F1200554F8043F52
:1034C00005A803B19847AC42F8D100200BB0BDE885
:1034D000F08F12F00104F8D142F0010288F80020C8
:1034E00000F018FDA24BA34A1B681668029403F56E
:1034F000BF417C3103F1080E03F58050009427464C
:103500000191043B4FF6FF745A689B498A4203F1CC
:1035100004055ED003F5805102E0994200F0E3809B
:1035200053F8042F0132F8D03B01944D03220137A8
:10353000EA54BFB2019A91420EF5805E00F58050C8
:103540000B46E1D18B4A9DF8003016600B2B0FD84B
:10355000DFE813F0E400FF00E400FF000E00FC00D1
:10356000E900FC000E000C00E6000C0003230393AE
:103570008349D1F8AC0005281AD8824B5B6C082B24
:1035800016D8D1F8A830804CC218A4FB02439B087F
:1035900003EB4303A2EB4303C3EBC3039B00CA1833
:1035A0000124CC5401309DF80C301371C1F8AC00EB
:1035B00098F80030754903F0040202F0FF04002A75
:1035C00083D143F0040320460B70FFF7CDF920466A
:1035D0007CE79A686E498A4249D001318A4299D182
:1035E000029A82BB6B490D604FF0020CA1F804C037
:1035F000DA680132754604D1B5E02A68B2F1FF3FBE
:1036000016D0AA88B5F80090A24206D0B9F1000FF2
:1036100003D0AA68964238BF16466A88033294449B
:1036200005EB82051FFA8CFCA842A1F804C0E4D87F
:10363000BCF1020F0CBF0422082200991143009133
:1036400003F5805176E74D4A390107F1010A514FE0
:1036500002EB01094FF0020C3F6802F801C0C9F803
:1036600004704C49A9F808C01FFA8AF7BBE7434A1F
:103670004FEA071902EB090C4FF0000A02F809A003
:103680000221CCF80450ACF80810DD680135724610
:1036900011D11BE09568AE4238BF2E4655880335E0
:1036A000294402EB850289B29042ACF808100DD98A
:1036B000156801350AD09588B2F800B0A54202D04D
:1036C000BBF1000FE6D14FF0010AE7E72B4A914426
:1036D000009A89F80EA0013742F00202BFB20092B0
:1036E00003F5805126E72B4B1B68ABB3234ADFF869
:1036F000A8903B0102EB030C0222CCF804501F4DB2
:10370000ACF80820EA5407F1010CA9F802701FFA7E
:103710008CF7009B43F0010300930BE70B20D5E6E9
:103720000223039324E798F80030104C43F002037F
:1037300023F0010388F8003004F1200554F8043F19
:1037400005A803B19847AC42F8D1BEE60123039324
:103750000EE7002303930BE70E4A02239380012315
:1037600015600293D5E7042267E700BF0C480020EC
:103770004044002058490020DEC0ADDE344800201F
:1037800094480020BC470020ABAAAAAA54490020B4
:10379000FE011EF1444900208448002060B159B167
:1037A00030B583B00C460DF106010546FFF752F81F
:1037B00020B90A2003B030BD05207047BDF80620AF
:1037C000074B686803EB021301219A890A449A8126
:1037D00020606B6800200C336360A97203B030BDB9
:1037E00034480020D0B110B582B00DF10601044676
:1037F000FFF730F810B90A2002B010BDBDF806205E
:10380000094B03EB021308339A884AB1A17A39B104
:103810000021013A9A800846A172EDE70520704721
:10382000062002B010BD00BF344800209B4A137828
:1038300013F0020F01D10220704771B12DE9F04F52
:103840000D8804464FF6FF70854287B001D0488846
:1038500028B9042007B0BDE8F08F0520704708891B
:103860004E68F8B1356815F0030504D018E056F835
:103870003570BF0714D10135A842F8D1354606EBA3
:10388000C0060020AF8808353844B54280B2F9D16F
:10389000C51CADB240F2FD36B54204D90920D9E7C6
:1038A0000320D7E703257E4F3E7856B9B7F80AE0E4
:1038B000B7F808C0F444AC441FFA8CFCBCF5806F28
:1038C00041D397F810E0764EBEF1000F09D1B6F85B
:1038D0001AE0368B76442E44B6B2B6F5806FC0F04F
:1038E000D48097F820E06E4EBEF1000F09D1B6F8F3
:1038F0002AE0368D76442E44B6B2B6F5806FC0F01D
:10390000C88097F830E0664EBEF1000F09D1B6F8D6
:103910003AE0368F76442E44B6B2B6F5806FC0F0EA
:10392000AC8097F84060DFF878C156B9BCF84AE03F
:10393000BCF8486076442E44B6B2B6F5806FC0F04D
:10394000A080072086E7B146B4464FEA0C1607EB85
:1039500006087544ADB2A8F80A50DFF854B10196D4
:10396000DFF850A10E88B1F808E003964E88496848
:10397000DAF8ACC00591DBF80010049601315FFA6B
:103980008EF8BCF1050FCDF808800091CBF800103F
:1039900062D8444ED6F844B0CEF108018B455BD8CE
:1039A000DAF8A810404DBDF810806144A5FB017500
:1039B000AD0805EB4505A1EB4501C1EBC10189004F
:1039C0000AEB010702250AF80150F8800098A7F8D1
:1039D00004800025F8600CF1010C0321BDF80C8077
:1039E0009DF80800A7F80880A7F81290B875B9826A
:1039F0007D813D74CAF8ACC0BEF1000F1CD0316CA3
:103A0000DDF814800BEB010707F0070706EBC7078B
:103A100006F1380908EBC50103C9013507F1080CA7
:103A200087E803004F4514BF67463746AE451D493A
:103A3000F0D1486C704448643CB100211B48009DA3
:103A4000256061600089A172208103F0040101F00A
:103A5000FF0451B10020FDE6019BC0F57F40FD3021
:103A60001F44284478810820F4E643F004032046EC
:103A70001370FEF779FF2046ECE64FF00309CC46C1
:103A800063E74FF00409CC465FE74FF00109CC46ED
:103A90005BE74FF00209CC4657E700BF54490020CE
:103AA00034480020BC470020ABAAAAAA84480020C2
:103AB000584900209448002050B12DE9F04F6D4E38
:103AC0003578AF0789B005D4022009B0BDE8F08F82
:103AD00005207047002900F0BF800A884FF6FF7369
:103AE0009A4201D04B881BB9042009B0BDE8F08F81
:103AF0000F894A68B7B1136813F0030305D0ADE02E
:103B000052F83340A40740F0A98001339F42F7D117
:103B1000134602EBC70200279C88083327449342D0
:103B2000BFB2F9D10446894638460DF11E01FEF7B1
:103B300033FE0028C9D15049DFF84CC10B6801930E
:103B4000B9F80230B9F80820DCF8AC800493019B86
:103B50000292B9F800200392D9F804E02268BDF877
:103B60001EA0059203F10109B8F1050FC1F80090FC
:103B700076D8424A029B516C0191C3F108039942E5
:103B80006ED8DCF8A810DFF804B14144ABFB013B70
:103B90004FEA9B0B0BEB4B0BA1EB4B0BCBEBCB0B8C
:103BA0004FEA8B0B0CEB0B0108F101034FF00308FC
:103BB0000CF80B80BDF810B0A1F812A0DDF808A039
:103BC000A1F804B0CF80A1F81480BDF80CB0059F17
:103BD000A1F808B04FF004084881C1F80C9081F8B2
:103BE00016A08F6181F81080CCF8AC305346E3B159
:103BF000116C019F0F4407F00707844602EBC707CB
:103C000002F1380A0EEBCC0103C90CF1010C07F1EB
:103C1000080887E80300574514BF47461746634521
:103C20001649EFD14A6C13444B640020144BC4F87E
:103C3000009060601A89A07205F00403228103F0ED
:103C4000FF04002B7FF441AF204645F0040535709A
:103C5000FEF78AFE204638E7052036E7032034E7E2
:103C6000084B03EB0A1308205A89033AD71B5F81DC
:103C70002BE700BF5449002058490020BC470020D2
:103C8000844800203448002094480020ABAAAAAA07
:103C9000F8B51C4A1378990701D40220F8BD1A4ED2
:103CA000D6F8AC40052C22D81849496C08291ED8F2
:103CB000D6F8A810164D174F6018A5FB00518908BB
:103CC00001EB4101A0EB4101C1EBC10138780134A6
:103CD000062506F82150C6F8AC4008B10121F97359
:103CE00003F0040101F0FF0419B10020F8BD082021
:103CF000F8BD43F0040320461370FEF735FE20465E
:103D0000F8BD00BF5449002094480020BC47002063
:103D1000ABAAAAAA844800202DE9F047314C2478A8
:103D2000A40702D40220BDE8F0879046002A3DD0C7
:103D3000002B3BD0B3F804C0BCF1040F49D8DFF826
:103D4000AC908A464FF6FF7700224FEA0C1409EB3D
:103D5000040E19F80440002C32D11C68002C3BD012
:103D60006588DEF80460033504EB850406F58056AB
:103D7000B44224D22568013521D0A5882188BD42CE
:103D800017D0B1B11C60A5888542E7D1258855457B
:103D9000E4D1A268C8F800201A68134BC8F80420C0
:103DA0001B89A8F808300020BDE8F0870520BDE891
:103DB000F0876588033504EB8504B442DAD31A60D2
:103DC0000CF1010C1FFA8CFCBCF1050FA3F804C028
:103DD000BBD10A20BDE8F087DEF8046006F10804D4
:103DE000C4E700BF54490020844800203448002024
:103DF00029DF704728DF704770B50D4DD5F8C41026
:103E0000082913D0D5F8C0300B44072B88BF083BD6
:103E1000182202FB035406464B1C20460021C5F81D
:103E2000C43016F01FFC3460012070BD002070BD4E
:103E300060490020F0B5354B1D7815F0060F85B0B0
:103E400062D1334A1C46D2F8C410D2F8C07045F093
:103E5000020316462370002956D0182303FB0723BC
:103E60001A7A012A05D0022A21D19889FFF7C2FFC8
:103E700014E0D98A9A8A182303FB076308339868E9
:103E80005B68521AB2F5806F4FEA81010844B4BFF3
:103E900092B24FF480621944FFF7AAFF112805D1AE
:103EA00025F0020545F0040525702DE060B30021E2
:103EB0001022684616F0D6FB182303FB076303F1B4
:103EC00008011A7A012A0CD0022A12D18B88CA88DA
:103ED000ADF80A309B1A0122ADF808308DF80020A9
:103EE00007E09A8A896802910023ADF80C208DF8CA
:103EF0000030182303FB07F7F219F35952680192B7
:103F000068469B680921984705B0F0BD5E490020CE
:103F1000604900202DE9F0434FF010235D696B1CD0
:103F200049D0DFF8A48098F800C01CF0010F3FD101
:103F3000DFF890E02248CEEB0000000934D00EEB11
:103F40000011734607461A6812B15A6802B1013F60
:103F500010338B42F7D13FB300260022194B914614
:103F6000F4B206E0596839B10132824203F110031C
:103F70000ED019680029F5D1597B494588BFD4B2C4
:103F800002F1010288BF8946824203F11003F0D199
:103F900024010EEB040301361A7B5D60BE42A5EBE3
:103FA00002354EF80450D8D14CF0010C88F800C00E
:103FB0000020BDE8F0834FF080535D692D03B0E72A
:103FC00060440020404400205E49002030B5214C70
:103FD0002578EC0787B012D5044610B11E488442FC
:103FE00002D2022007B030BD1C488442F9D24AB147
:103FF00041B142EA0100800706D00620F2E7012025
:1040000007B030BD0320EDE72068814201D20520D2
:10401000E8E7656801EB83008542F8D30BB904201B
:10402000E0E705A8039302920191FFF7E5FE01A9DD
:104030000EC908B90720D5E7059D2C6005980A9C94
:104040006C600124C260016183820472FFF7F2FE9A
:104050000020C7E75E490020404400206044002063
:1040600030B5204C2578EC0787B010D5044610B148
:104070001D48844202D2022007B030BD1B48844252
:10408000F9D261B1C1F30B0020B10620F4E70120A1
:1040900007B030BD2068814203D20520ECE7032041
:1040A000EAE7656801EB02308542F6D30AB90420DD
:1040B000E2E705A8039302920191FFF79DFE01A993
:1040C0000EC908B90720D7E7059D2C6005986B60DD
:1040D000090B0223818102820372FFF7ABFE0020ED
:1040E000CAE700BF5E490020404400206044002031
:1040F00028B1044BD3F8C43003600020704703207C
:10410000704700BF604900202DE9F04FAF4FB04C21
:104110003B78D4F8C050990785B05FD502286AD0A3
:10412000032840F08980DFF8ACE29EF800300133CC
:10413000DBB2062B8EF800307ED94FF000084146E6
:10414000102268466E008EF8008016F08BFA731904
:1041500004EBC303E9461A7A012A03F1080100F0CF
:10416000DE80022A09D18B88CA88ADF80A309B1AF2
:104170000122ADF808308DF800203544ED006219B9
:104180006359526801929B68484608219847D4F8C1
:10419000C430013BC4F8C4301BB93A7822F00202A3
:1041A0003A70D4F8C0508A4A0135082D08BF00255E
:1041B000C2F8C0507BB16E00731904EBC3031A7AC6
:1041C000012A3ED0022A5CD19889FFF713FE1128FC
:1041D0004ED0002855D105B0BDE8F08F5A072BD539
:1041E000D4F8C42003F0FB033B70002AF3D043F063
:1041F00002033B70DFE76E0006EB050804EBC8081E
:10420000744A98F808304FF0000B012B08F1080AA7
:1042100082F800B065D0022B0ED1BAF80630BAF899
:104220000420BAF8081001339BB201329942AAF86F
:104230000630AAF804207AD0D4F8C430002BBAD1C2
:10424000C9E7D98A9A8A731904EBC30308339868BB
:104250005B68521AB2F5806F4FEA8101B4BF92B227
:104260004FF4806208441944FFF7C2FD1128B0D111
:104270003B7823F0020343F004033B7005B0BDE834
:10428000F08F00211022684616F0ECF9731904EB48
:10429000C303E9461A7A012A03F1080118D0022A59
:1042A00009D18B88CA88ADF80A309B1A0122ADF873
:1042B00008308DF800203544ED00621963595268CA
:1042C000019248469B680921984705B0BDE8F08FE8
:1042D0009A8A896802910023ADF80C208DF800308D
:1042E000E9E7B8F81410B8F81630CA1AB2F5806FBA
:1042F000B4BF92B24FF4806206EB050804EBC80825
:1043000013449BB208F1100A9942AAF80630304AC9
:104310002FD0D2F8C430002B7FF44DAF5BE78A6812
:104320009B8A0292ADF80C308DF8008025E7684634
:104330005946102216F096F998F80830012BE946F4
:1043400030D0022B0BD1BAF80430BAF80620ADF801
:104350000A309B1A0122ADF808308DF80020354450
:10436000EB00E218E3585268019248469B6800212E
:104370000CE710226846002116F074F998F808201E
:10438000012AE94608F1080316D0022AE7D19A88E3
:10439000DB88ADF80A20D21A0123ADF808208DF889
:1043A0000030DCE7DAF80820B8F814300292ADF8F3
:1043B0000C308DF800B0D2E79B68BAF80420029365
:1043C0000023ADF80C208DF80030C8E75E490020CE
:1043D00060490020284A00202DE9F04F1646C5B05C
:1043E0001D460C46002900F02781002B00F0F280CA
:1043F0000A2301930023194604AF4F9B519A2026AC
:1044000003EB020B8A4601980AEB000808F131031E
:10441000FB18029307EB0A0300285FD05A4202F010
:104420000302824228BF0246062800F2FC80019A5D
:1044300007F80A60012A03F1010100F0F280022A64
:104440005E7003F1020100F0EC80032A9E7003F11C
:10445000030100F0E680042ADE7003F1040100F09D
:10446000E080062A1E7103F1050140F0E2805E71D2
:10447000991D9646019890422ED0019CA01A039057
:1044800004F1FF3C04388008C2EB0C0C0130BCF195
:10449000020F4FEA800913D952444FF0203C012803
:1044A00007EB020A47F802C005D00228CAF804C088
:1044B00001D0CAF808C0039A91454944CE440BD0B4
:1044C000019C0E700EF10102944205D90EF1020E0C
:1044D00074454E7000D98E70019A13445A4A02995D
:1044E000D2F800900393DA1C481C03F1330C4F9C64
:1044F0000CE002F8036C02F8026C02F8016C033263
:10450000624500F8016C00F1010031D0AB45F0D9F3
:10451000AC4240F282804E99495D02F8016C4FEA4C
:10452000211E5FFA8EFABEF1090F01F00F0ED4BF03
:104530000AF1300A0AF1370ABEF1090F02F803AC9A
:1045400094BF0EF1300E0EF1370E09EB010A02F89E
:1045500002EC9AF801E003321EF0970F08BF2E21FB
:10456000624500F8011C05F1010500F10100CDD103
:10457000039B4F94029C354908F143000D224FF0F4
:104580000A09227484F81190384483F830600422B8
:1045900016F042F84F9B08F1470A54464FF00008C6
:1045A0009A4607EB08012246002001F0BDFF804437
:1045B000241A10B9B9F1010901D0002CF1D1AB4591
:1045C000CDF83CA14FF0000A3FF61DAF284645B09C
:1045D000BDE8F08F04AF1D490422384616F01CF8E0
:1045E00023681B4A05A84FF4807116F0D5FC0028FB
:1045F000ECDB0A23041D0193304616F03AFDC22875
:1046000028BFC220804631460246381916F004F809
:1046100008EB040300251946EFE6291B509B595C63
:104620007BE7964626E7002A7FF402AF19469646B6
:1046300023E74FF0050E1DE713B1019104AFDCE64F
:104640002C46019504AFD7E79043002018160400CC
:10465000201604002DE9F0411646C6B01D460C4652
:10466000E9B106AF5E490422384615F0D5FF23684C
:104670005C4A07A84FF4807116F08EFC00280ADB14
:104680004C9B041D062B00F2A880DFE803F048587D
:1046900063707F901400002046B0BDE8F0814C9B11
:1046A000062B00F29780DFE803F0394853606F80F3
:1046B0000400002406AF2A1D92E8041129692B6822
:1046C0006D6904950092039138193246CDF8048043
:1046D000CDF808C0C4F5807116F05EFC0546002DCB
:1046E000D9DB2819041DB4F5807FD4D806AF38442F
:1046F0003B49042215F090FF0A260025791922462D
:10470000002001F011FF0544241A08B9013E01D030
:10471000002CF3D1012046B0BDE8F08100243046E2
:1047200016F0A7FC0319FF2B0546D8D806AB314677
:1047300018192A4615F070FFD1E7002406AF2B6840
:1047400038193246C4F5807116F026FC0546C6E7D6
:10475000002406AF6A682B68009238193246C4F507
:10476000807116F019FC0546B9E7002406AF6A68A7
:10477000A9682B680092019138193246C4F58071FE
:1047800016F00AFC0546AAE7002406AF6A68A96885
:104790002B68ED6802950092019138193246C4F5F4
:1047A000807116F0F9FB054699E7002406AF6A68A8
:1047B000E9682B68D5F808C02D690395009202912D
:1047C00038193246CDF804C0C4F5807116F0E4FB08
:1047D000054684E70020042488E7002581E700BF20
:1047E000181604002016040070B5074C074D2378F6
:1047F000064613B12B78834204D002F05BF8012304
:104800002E702370002070BD2A4A0020294A002003
:10481000004870475546020000487047D9430200DF
:1048200038B50120FFF7E0FF044638B9FFF7F0FF85
:104830000546FFF7F1FF024B5D619861204638BDE8
:104840002C4A0020704700BF10B5054C82B00A46C4
:104850000021646900910B46A04702B010BD00BF63
:104860002C4A002030B585B004AB054C43F8042D2C
:1048700001250A46646900950021A04705B030BDB6
:104880002C4A002030B5064C85B0022502920393D5
:104890000A4664690095002102ABA04705B030BD0F
:1048A0002C4A002070B586B0064C0A9E0392032560
:1048B0000A460493646905960095002103ABA0475E
:1048C00006B070BD2C4A0020F0B587B0074C0C9F95
:1048D0000D9E029204250A46039364690497059687
:1048E0000095002102ABA04707B0F0BD2C4A002084
:1048F000F0B589B0094C0E9F0F9E109D0292039354
:104900000A46119B64690793062100910497059656
:104910000695002102ABA04709B0F0BD2C4A00204B
:104920000368826818685B68934234BF01330023D0
:10493000C01AB0FA80F04009704700BFF0B583B0EC
:1049400002AB002503F8015D044618460F4600F04F
:10495000D9FE2368A2681E685868904238BF451C7B
:10496000AE4209D1217CB9B104249DF8070000F0C2
:10497000F1FE204603B0F0BD5D6859688A424DD90A
:1049800001315960E268531E072B3DD8DFE803F080
:1049900038333C253C3C3C125D68586882423AD82A
:1049A00059602268A16813688B4234BF0133002329
:1049B0001360E7E76068D7E9002300EBC500C0E9B2
:1049C000002321680D684B689D420FD85B1B8A68E5
:1049D0009A4238BF8B600024C7E763683A6843F89F
:1049E000252021680D684B689D42EFD95A1CA068AC
:1049F000531B0344EBE763683A8823F81520E0E78C
:104A000063683A785A55DCE76068394602FB05006E
:104A100015F002FED5E701305860C2E700225A6067
:104A2000B0E700BF0AB9104670472DE9F04182B0E7
:104A3000054602A8002300F8013D0E46144600F08A
:104A400061FE296808684B6898420ED95A1CAF6805
:104A5000131A3B449C420BD905259DF8070000F032
:104A600079FE284602B0BDE8F0811B1A9C42F3D8BB
:104A7000D1F800804F68EA686968B84584BFAF68BC
:104A80000137C8EB0707BC4208FB02110ED802FB36
:104A900004F2304615F0C0FDA9682B6804EB08024B
:104AA0008A4288BF00221A600025D6E702FB07F879
:104AB0004246304615F0B0FDEA686968E41B06EB33
:104AC000080002FB04F215F0A7FD2B6800251C600E
