:020000021000EC
:10F0000000000120159C02003D9C02003F9C020074
:10F01000419C0200439C0200459C0200000000004D
:10F02000000000000000000000000000479C0200FB
:10F03000499C0200000000004B9C02004D9C020015
:10F04000951702004F9C02004F9C02002D440200C5
:10F050004F9C020021930200F12202000D330200B6
:10F060004F9C02004F9C02004F9C02004F9C0200EC
:10F070004F9C0200E93102004F9C02004F9C0200AD
:10F080004F9C0200318402004F9C02004F9C020002
:10F09000718402004F9C0200F19A02004F9C020012
:10F0A0004F9C02004F9C02004F9C02005D900200AA
:10F0B000C92F02008D2602000000000000000000A1
:10F0C0004F9C02004F9C02004F9C02004F9C02008C
:10F0D0004F9C02004F9C02004F9C02000000000069
:10F0E0000000000000000000000000000000000020
:10F0F0000000000000000000000000000000000010
:10F1000000000000000000000000000000000000FF
:10F1100000000000000000000000000000000000EF
:10F1200000000000000000000000000000000000DF
:10F1300000000000000000000000000000000000CF
:10F1400000000000000000000000000000000000BF
:10F1500000000000000000000000000000000000AF
:10F16000000000000000000000000000000000009F
:10F17000000000000000000000000000000000008F
:10F18000000000000000000000000000000000007F
:10F19000000000000000000000000000000000006F
:10F1A000000000000000000000000000000000005F
:10F1B000000000000000000000000000000000004F
:10F1C000000000000000000000000000000000003F
:10F1D000000000000000000000000000000000002F
:10F1E000000000000000000000000000000000001F
:10F1F000000000000000000000000000000000000F
:10F2000010B5054C237833B9044B13B10448AFF360
:10F2100000800123237010BD604400200000000026
:10F22000D0350500084B10B51BB108480849AFF3AD
:10F2300000800848036803B910BD074B002BFBD0C2
:10F24000BDE81040184700BF00000000D0350500A1
:10F25000644400203C44002000000000154B002BBB
:10F2600008BF134B9D46A3F5803A00218B460F46FD
:10F270001348144A121A23F0FDF90F4B002B00D04B
:10F2800098470E4B002B00D0984700200021040027
:10F290000D000D48002802D00C48AFF3008023F089
:10F2A0008DF92000290011F0FFF823F073F900BF59
:10F2B0000000080000000120000000000000000025
:10F2C000604400207C770020000000000000000067
:10F2D00073DF7047184600BF80B400AF034B1B7844
:10F2E0001846BD465DF8047B704700BF52450020BC
:10F2F00080B485B000AF78600023FB600AE07A68D4
:10F30000FB6813441B78002B01D0012306E0FB6847
:10F310000133FB60FB68052BF1D900231846143735
:10F32000BD465DF8047B704780B483B000AF0346F0
:10F33000FB71FB795A1C084B83FB02135910D3173E
:10F34000C91A0B469B000B44D11ACBB218460C3796
:10F35000BD465DF8047B70476766666680B483B01F
:10F3600000AF78607B68DB7B012B03D17B689A88D8
:10F37000034B1A800C37BD465DF8047B704700BF15
:10F380004445002080B584B000AF78600D4B00226A
:10F390001A707B689A880C4B1B889A420ED1012008
:10F3A00000F06CFAF860FB68002B07D0074B1B6875
:10F3B000002B03D0054B1B68F86898471037BD46F3
:10F3C00080BD00BF50450020444500204C45002032
:10F3D00080B584B000AF78607B681B7A002B00D0CA
:10F3E00014E00C4B1B781846FFF79EFF03461846A7
:10F3F00000F044FAF860FB68002B07D0064B1B684E
:10F40000002B03D0044B1B68F86898471037BD46A3
:10F4100080BD00BF7F4400204C45002080B582B0F5
:10F4200000AF3B1D184607F0FBF97B68002B14BFAB
:10F4300001230023DBB218460837BD4680BD00BF5C
:10F4400080B584B000AF0346FB711C48FFF750FF46
:10F450000346FB73FB79013B032B29D801A252F829
:10F4600023F000BF75F4010087F4010099F4010056
:10F47000A5F40100124B5B78002B04D0FB7B002B22
:10F4800001D0012315E00E4B9B78002B04D0FB7BB1
:10F49000002B01D002230CE0094BDB78002B01D0BC
:10F4A000032306E0064B1B79002B01D0042300E068
:10F4B000002318461037BD4680BD00BFA54400207C
:10F4C0008044002080B483B000AF78600A4B0122F2
:10F4D0001A707B68094A5A607B6801221A707B683F
:10F4E00000229A817B6800225A81002318460C373B
:10F4F000BD465DF8047B70477E440020A444002094
:10F5000080B483B000AF78600C4B02221A707B6825
:10F510000B4A5A607B6801221A700A4BDB689AB268
:10F520007B689A81074B9B689AB27B685A8100235B
:10F5300018460C37BD465DF8047B70477E440020BA
:10F54000A44400208044002080B584B000AF7860DF
:10F550001A4B1B699AB27B685A81184B5B699AB245
:10F560007B689A81154B1B78002B1FD0144B1B789E
:10F5700083F00103DBB2002B18D0FFF7ADFE03468A
:10F58000002B13D07B6802221A720E4B0422DA7011
:10F590000C48002101F064FBF860FB68002B01D0EF
:10F5A000FB6807E0084B05221A7002E0064B0322B5
:10F5B0001A70002318461037BD4680BD80440020D5
:10F5C00050450020AC4400207E44002080B584B02B
:10F5D00000AF78601A4B9B699AB27B685A81184BCE
:10F5E000DB699AB27B689A81154B1B78002B1FD080
:10F5F000144B1B7883F00103DBB2002B18D0FFF70C
:10F600006BFE0346002B13D07B6802221A720E4B4E
:10F610000422DA700C48002101F022FBF860FB683C
:10F62000002B01D0FB6807E0084B06221A7002E0AD
:10F63000064B04221A70002318461037BD4680BDC1
:10F640008044002050450020AC4400207E4400202F
:10F6500080B483B000AF0346FB71044AFB7913709A
:10F660000C37BD465DF8047B704700BFA044002006
:10F67000B0B588B000AFF860B9607A603B60FB68F5
:10F68000002B02D07B68002B01D10E23D5E06D4BFF
:10F6900001221A706C4B00221A706C4A7B68144667
:10F6A0001D460FCD0FC495E80F0084E80F00684B8E
:10F6B00000221A70674A3B681360674A3B6B13600D
:10F6C000664B4FF6FF721A8065480021072222F030
:10F6D000D1FF644800213C2222F0CCFFFB681A785D
:10F6E000604B1A70FB689A785E4B9A70FB68DA7808
:10F6F0005C4BDA70FB685A785A4B5A70594BFA686F
:10F700001033103292E8030083E80300554BFA6887
:10F710000833083292E8030083E80300514BFA688B
:10F720001833183292E8030083E80300FB685B6A31
:10F73000002B29D04B4B4C4A5A624B4B4B4A9A6098
:10F74000484B5B6AFA68526A12881A80454B5B6ABA
:10F75000FA68526A92889A800023FB610DE0FB6888
:10F760005B6A9A68FB6913441978404AFB69134441
:10F770000A461A70FB690133FB613A4B5B6A9B884E
:10F780001A46FB699A42EAD8FB689B6A002B33D081
:10F79000374B384A9A60334B354A9A62314B9B6AF1
:10F7A000344A9A602F4B9B6AFA68926A92889A80D0
:10F7B0002C4B9B6AFA68926A12881A800023BB61FC
:10F7C0000DE0FB689B6A9A68BB6913441978294A63
:10F7D000BB6913440A461A70BB690133BB61214BF4
:10F7E0009B6A9B881A46BB699A42EAD8FB6893F8E1
:10F7F0002C201C4B83F82C20FB681B6A002B0ED09E
:10F80000184B1D4A1A62174B1B6AFA68126A528813
:10F810005A80144B1B6AFA68126A12881A80FB68B5
:10F820005B68002B03D0FB685B680E4A53600D4891
:10F83000B96801F015FA78617B6918462037BD4632
:10F84000B0BD00BF7C4400207F44002080440020E5
:10F85000A0440020484500204C450020444500209D
:10F86000A4440020AC440020E8440020F4440020DC
:10F8700014450020204500204045002080B588B078
:10F8800000AF0346FB71664B1B7883F00103DBB2CC
:10F89000002B01D00823BFE0624AFB791370FFF709
:10F8A000BDFD0346002B04D05F4B01221A700023DC
:10F8B000B2E05E480021072222F0DCFE5C4B5B7860
:10F8C000002B03D0574B1B78012B0FD0584B9B7844
:10F8D000002B03D0534B1B78012B07D0544B9B7844
:10F8E000002B12D04F4B1B78022B0ED1514B1B68B3
:10F8F000002B07D0504B01221A704E4B1B6808207A
:10F90000984702E04C4B00221A70FB791846FFF72B
:10F9100097FD03461A46434B1A70464B1B68002B53
:10F920001DD0404B1B78032B03D03E4B1B78042B80
:10F9300015D13F4B1B78002B11D0404B1B7883F027
:10F940000103DBB2002B0AD03D4B00221A703D4B65
:10F9500001221A70374B1B680720984702E0394B89
:10F9600000221A7007F10C0318460021102222F021
:10F9700081FE00233B7300233B752A4B1B78042B2D
:10F980002CD801A252F823F0D5F901009DF901000D
:10F99000ABF90100B9F90100C7F9010007F10C0347
:10F9A0001846FFF78FFDF86119E007F10C031846C0
:10F9B000FFF7A6FDF86112E007F10C031846FFF708
:10F9C000C3FDF8610BE007F10C031846FFF7FEFDDD
:10F9D000F86104E01C4B00221A7000E000BF114BDC
:10F9E0001B78002B0DD0194B1B7807F10C02104629
:10F9F0001946FFF76DFCF861FB69002B01D0FB692C
:10FA00000AE00C4B1B68002B05D00A4B1B680E4A02
:10FA1000127810469847002318462037BD4680BD0F
:10FA20007C4400207F4400207D440020A44400202A
:10FA30008044002048450020AB4400205045002071
:10FA400052450020514500207E440020A044002063
:10FA500080B582B000AF78607B681B88112B08D01E
:10FA60001B2B0AD0102B00D00BE07868FFF776FC38
:10FA700007E07868FFF786FC03E07868FFF7A8FCEA
:10FA800000BF0837BD4680BD80B584B000AF786048
:10FA90007B68023B012B19D80E4B1B78002B14D02E
:10FAA0000C4B00221A700C4B1B781846FFF7E6FE31
:10FAB000F860FB68002B08D0084B1B68002B04D0B3
:10FAC000064B1B68F868984701E000E000BF10375C
:10FAD000BD4680BD7D4400207F4400204C45002071
:10FAE00080B483B000AF0346FB71094997F9073032
:10FAF0005B09FA7902F01F02012000FA02F22033BA
:10FB000041F823200C37BD465DF8047B704700BFE9
:10FB100000E100E080B483B000AF0346FB71094907
:10FB200097F907305B09FA7902F01F02012000FA09
:10FB300002F2603341F823200C37BD465DF8047BA8
:10FB4000704700BF00E100E080B400AFBFF34F8F0B
:10FB50000549054BDB6803F4E062044B1343CB60BB
:10FB6000BFF34F8F00BFFDE700ED00E00400FA0592
:10FB7000A0DF7047184600BFA2DF7047184600BFDD
:10FB8000A6DF7047184600BFA8DF7047184600BFC1
:10FB900062DF7047184600BF3ADF7047184600BF63
:10FBA0003BDF7047184600BF11DF7047184600BFA3
:10FBB00013DF7047184600BF80B582B000AF0F4B0F
:10FBC0001B683B6000237B6011E07B68012202FA26
:10FBD00003F31A463B681340002B05D07B68DBB269
:10FBE0005BB21846FFF77CFF7B6801337B607B6864
:10FBF0001F2BEAD90837BD4680BD00BF00E100E0F9
:10FC000080B582B000AF00204FF0FF31FFF7C8FF92
:10FC100078607B68002B01D07B6825E00020B12153
:10FC2000FFF7BAFF78607B68002B01D07B681BE090
:10FC3000FFF7BAFF78607B68002B01D07B6813E088
:10FC40004FF010235B691846FFF7B2FF78607B68BE
:10FC5000002B01D07B6807E01620FFF75BFFFFF762
:10FC6000ABFFFFF771FF002318460837BD4680BD84
:10FC700080B584B000AF78607B681B69002B08D02A
:10FC800000233B737B681B6907F10C0278681146FF
:10FC900098477B6801221A751037BD4680BD00BFAA
:10FCA00080B592B000AF7860396007F12C03002274
:10FCB0001A60043300221A60043300221A600433ED
:10FCC00000221A60043300221A60043300221A60F2
:10FCD000043300221A60043300233B85002387F895
:10FCE0002A3007F1140300221A60043300221A603C
:10FCF000043300221A60043300221A600433002205
:10FD00001A60043300233B820023BB7497F8283029
:10FD1000012262F3030387F8283097F82830012284
:10FD200062F3071387F8283097F82930012262F32D
:10FD3000030387F8293097F82930012262F307136B
:10FD400087F8293097F82A30012262F3420387F8B6
:10FD50002A3097F82C3043F0200387F82C3097F89E
:10FD60002C3043F0080387F82C3000233B6300233A
:10FD7000BB630023FB6307F128033B6400237B6420
:10FD80007B681B78BB730323BB813B7C012262F33E
:10FD900003033B743B7C012262F307133B747B7CBF
:10FDA000012262F303037B747B7C012262F307135D
:10FDB0007B74BB7C012262F34203BB74BB7C6FF398
:10FDC000C303BB74BB7C43F01003BB74BB7C43F028
:10FDD0000103BB7407F10C037B6107F11003BB61E6
:10FDE0000023BB830023FB8317233B8400237B6218
:10FDF0007B6858887B68063307F12C0107F11402F1
:10FE0000FFF7BAFE034618464837BD4680BD00BF1F
:10FE100090B589B000AF78603960284B07F10804CD
:10FE2000186859689A68DB680FC47B68002B01D199
:10FE30000E233EE03B68002B01D10E2339E07B68A6
:10FE40004FF6FF729A803B681A687B681A617B687C
:10FE500000221A757B6800229A730123BB764FF645
:10FE600059633B837B68023307F118020120114676
:10FE70001A46FFF77DFEF861FB69002B01D0FB6994
:10FE800017E07B6807F1080210461946FFF780FE6D
:10FE9000F861FB69002B01D0FB690AE078683968DA
:10FEA000FFF7FEFEF861FB69002B01D0FB6900E063
:10FEB000002318462437BD4690BD00BF509504006E
:10FEC00080B588B000AF78600B46FB7013463B806E
:10FED00007F1080318460021102222F0CBFB032370
:10FEE000FB8320233B76FB787B763B88DBB2BB76BB
:10FEF0007B68DB883B810223BB720023BB8107F157
:10FF00001E033B6107F118037B617B689A8807F148
:10FF1000080310461946FFF733FE2037BD4680BD63
:10FF200080B588B000AF786039600423FB8307F1A7
:10FF3000080318460021102222F09CFB02233B728A
:10FF40007B689B7B002B06D0BB7B43F00103BB731C
:10FF50000023BB8102E040F2FD13BB817B689A88DD
:10FF600007F1080310461946FFF70EFEB861BB699A
:10FF7000112BF3D0BB89002B23D10320124907F0AA
:10FF8000FFF83B681B7B012B06D104200F4907F0CB
:10FF9000F7F80123FB8302E00223FB8300BF3B68E9
:10FFA0001A7BFB8B786811461A46FFF789FFFB8B9B
:10FFB000012B06D13B681B7B012B02D17868FFF730
:10FFC00057FE2037BD4680BD609504008C95040027
:10FFD00080B584B000AF786039603B689A887B68F0
:10FFE0009B889A4200D01EE03B680633FB60FB68AA
:10FFF0001B78022B17D1FB685A887B68DB889A42F2
:020000022000DC
:1000000011D1FB681B7A042B0DD0FB681B7A062BE1
:1000100009D0FB681B7A052B05D0FB680233786892
:100020001946FFF77DFF1037BD4680BD80B483B011
:1000300000AF786039603B689A887B689A800C379B
:10004000BD465DF8047B704780B483B000AF786034
:1000500039607B689A883B689B889A4200D003E0AD
:100060007B684FF6FF729A800C37BD465DF8047BC3
:10007000704700BF90B585B000AF786039603B68CD
:100080000633FB60FB681A887B685B899A4200D064
:100090002EE0FB685B89022B2AD1FB680C331846E3
:1000A00001F08CF903461A467B689A737B689B7B48
:1000B0001C46FB680C33184601F06AF9034603201E
:1000C0000D49224607F082F87B681B69002B0FD090
:1000D0007B689B7B002B02D001233B7201E0022353
:1000E0003B727B681B6907F10802786811469847E4
:1000F0001437BD4690BD00BFB895040080B584B0EC
:1001000000AF786039603B680633FB60FB681A8893
:100110007B68DB889A4205D17B681B7D002B01D070
:10012000FFF76EFD1037BD4680BD00BF80B582B0C1
:1001300000AF786039607B68002B00D12CE03B6811
:10014000002B00D128E03B681B88502B1AD0502B85
:1001500004DC102B07D0112B0AD01DE0512B0CD042
:10016000532B14D018E078683968FFF75FFF13E06D
:1001700078683968FFF768FF0EE078683968FFF73C
:1001800027FF09E078683968FFF774FF04E07868B2
:100190003968FFF7B3FF00BF0837BD4680BD00BF19
:1001A0006DDF7047184600BF72DF7047184600BF0A
:1001B00079DF7047184600BF7DDF7047184600BFE3
:1001C00064DF7047184600BF80B483B000AF0346B9
:1001D0003960FB80FB88DAB23B681A703B680133F8
:1001E000FA88120A92B2D2B21A70022318460C3759
:1001F000BD465DF8047B704780B588B000AFF860FD
:10020000B9601346FB80BB681B8803F10902FB88B9
:100210009A4201D90C2353E007F114031846FFF763
:10022000BFFFF861FB69002B01D0FB6948E0BB68A8
:100230001B881A46FB68134408221A70BB681B8887
:1002400001339AB2BB681A80BB681B881A46FB68E8
:1002500013441B221A70BB681B8801339AB2BB6817
:100260001A80BB681B881A46FB681A4407F11403FE
:10027000013310461946062222F0D6F9BB681B88C6
:1002800006339AB2BB681A803B7D23F00103DBB2D0
:10029000002B07D1BB681B881A46FB681344002259
:1002A0001A7006E0BB681B881A46FB6813440122DB
:1002B0001A70BB681B8801339AB2BB681A8000238E
:1002C00018462037BD4680BD80B588B000AFF860C5
:1002D000B9607A607B80FB681B78012B05D1FB68D5
:1002E0005B78002B01D1072377E07B681B889A1C81
:1002F0007B889A420DD8FB681B78012B0BD17B6859
:100300001B881A46FB685B7813449A1C7B889A42C8
:1003100001D90C2361E07B681B887A88D31A9BB2D1
:10032000023BBB83BB8BFB827B681B880233BA68B2
:100330001A4407F1160310461946FFF73DFFB8614E
:10034000BB69002B01D0BB6947E0FB681B78022B1F
:1003500006D1FB8ABA8B9A4202D30923FB7712E0BB
:100360000823FB77FB681B78012B0AD1FB685B78BD
:100370009BB2BA8B9A4204D3FB685B789BB2FB8238
:1003800001E0BB8BFB82FB8AFE2B01D90C2324E00E
:100390007B681B881A46BB681344FA8AD2B20132C2
:1003A000D2B21A707B681B8801339AB27B681A80BC
:1003B0007B681B881A46BB681344FA7F1A707B68F7
:1003C0001B8801339AB27B681A807B681A88FB8A83
:1003D00013449AB27B681A80002318462037BD4622
:1003E00080BD00BF80B586B000AFF860B96013462D
:1003F000FB80BB681B881A1DFB889A4201D90C231D
:1004000038E007F112031846FFF7D2FE78617B69E6
:10041000002B01D07B692DE0BB681B881A46FB6866
:10042000134403221A70BB681B8801339AB2BB685D
:100430001A80BB681B881A46FB68134419221A707D
:10044000BB681B8801339AB2BB681A807A8ABB6882
:100450001B881946FB680B4410461946FFF7B4FE8B
:1004600003461946BB681A888BB213449AB2BB681C
:100470001A80002318461837BD4680BD80B485B069
:1004800000AFB9607A601A460346FB731346BB811E
:100490007B681B88DA1CBB899A4201D90C2327E0B0
:1004A0007B681B881A46BB68134402221A707B685B
:1004B0001B8801339AB27B681A807B681B881A46B6
:1004C000BB68134401221A707B681B8801339AB2FF
:1004D0007B681A807B681B881A46BB681344FA7BCA
:1004E0001A707B681B8801339AB27B681A800023DC
:1004F00018461437BD465DF8047B704780B485B05C
:1005000000AFB9607A601A460346FB731346BB819D
:100510007B681B88DA1CBB899A4201D90C2327E02F
:100520007B681B881A46BB68134402221A707B68DA
:100530001B8801339AB27B681A807B681B881A4635
:10054000BB6813440A221A707B681B8801339AB275
:100550007B681A807B681B881A46BB681344FA7B49
:100560001A707B681B8801339AB27B681A8000235B
:1005700018461437BD465DF8047B704780B58AB0D5
:1005800000AFF8607B600B46FB721346BB72002322
:1005900087F823303B6B1B883B8400237B626BE036
:1005A000FB685A687B6A9B001A4407F110031068C5
:1005B000186007F1100207F11703104619460022D0
:1005C000FFF7FEFDF861FB69002B01D0FB6970E0CD
:1005D000FB7DBA7A9A424CD197F82330002B01D098
:1005E000002300E00223FB763B6B1B881A46FB7D51
:1005F0001A44FB7E1A44BB8E9A4201DD0C2358E05C
:1006000097F8233083F00103DBB2002B15D03B6B4E
:100610001B8801339AB23B6B1A803B6B1B881A46CE
:100620007B681344FA7A1A703B6B1B8801339AB2C9
:100630003B6B1A80012387F823303B6B1B881A46DB
:100640007B68134407F1100107F1170208461146B1
:100650001A46FFF7B5FDF861FB69002B01D0FB6975
:1006600027E03B6B1A88FB7D9BB213449AB23B6B2D
:100670001A807B6A01337B62FB681B881A467B6A9F
:100680009A428DDC97F82330002B11D03B6B1A88EF
:100690003B8CD31A9BB2013B3B833B8BFF2B01D995
:1006A0000C2306E03B8C7A6813443A8BD2B21A7062
:1006B000002318462837BD4680BD00BF80B588B0EE
:1006C00002AFF8607B600B46FB721346BB72FA7A8E
:1006D0003B6A0093BB8C0193F868114602227B6849
:1006E000FFF74CFF78617B69002B01D07B6911E03B
:1006F000BA7A3B6A0093BB8C0193F86811461022CA
:100700007B68FFF73BFF78617B69002B01D07B6939
:1007100000E0002318461837BD4680BD80B483B082
:1007200000AF78607B681B88052B0AD97B681B8823
:10073000B3F5486F07D97B681B884FF6FF72934269
:1007400001D0072325E07B685B88052B0AD97B68ED
:100750005B88B3F5486F07D97B685B884FF6FF72FB
:10076000934201D0072314E07B681B884FF6FF7289
:1007700093420DD07B685B884FF6FF72934207D09F
:100780007B681A887B685B889A4201D9072300E05E
:10079000002318460C37BD465DF8047B704700BF48
:1007A00080B586B000AFF860B9607A607B807B6806
:1007B0001B889A1D7B889A4201D90C234BE0F8686C
:1007C000FFF7ACFF78617B69002B01D07B6942E0C9
:1007D0007B681B881A46BB68134405221A707B6825
:1007E0001B8801339AB27B681A807B681B881A4683
:1007F000BB68134412221A707B681B8801339AB2BB
:100800007B681A80FB681A887B681B881946BB685E
:100810000B4410461946FFF7D7FC034619467B6880
:100820001A888BB213449AB27B681A80FB685A8884
:100830007B681B881946BB680B4410461946FFF7B6
:10084000C3FC034619467B681A888BB213449AB2DC
:100850007B681A80002318461837BD4680BD00BF4C
:1008600080B586B000AFF860B9607A607B80FB68C5
:100870009B8802337B617B681B881A467B69134423
:100880009A1C7B889A4201D90C2356E07B69FE2B87
:1008900001D90C2351E07B681B881A46BB681344BE
:1008A0007A69D2B20132D2B21A707B681B880133E6
:1008B0009AB27B681A807B681B881A46BB6813440F
:1008C000FF221A707B681B8801339AB27B681A80FA
:1008D000FB681A887B681B881946BB680B44104666
:1008E0001946FFF771FC034619467B681A888BB2DC
:1008F00013449AB27B681A80FB689B88002B1BD03C
:10090000FB689B68002B01D1072316E07B681B88DE
:100910001A46BB689918FB689A68FB689B8808466A
:1009200011461A4621F080FE7B681A88FB689B8876
:1009300013449AB27B681A80002318461837BD46C4
:1009400080BD00BF80B588B000AFF860B9607A6044
:100950007B80FB689B6A002B01D107236FE000239B
:10096000FB7765E0FB68996AFA7F13465B001344E6
:100970009B000B44BB61BB699B8802337B617B6935
:10098000FE2B01D90C235AE07B681B881A46BB68F2
:1009900013447A69D2B20132D2B21A707B681B88D2
:1009A00001339AB27B681A807B681B881A46BB6841
:1009B000134416221A707B681B8801339AB27B6835
:1009C0001A80BB691A887B681B881946BB680B4470
:1009D00010461946FFF7F8FB034619467B681A884C
:1009E0008BB213449AB27B681A80BB699B88002B38
:1009F0001BD0BB699B68002B01D107231FE07B68DC
:100A00001B881A46BB689918BB699A68BB699B88A2
:100A1000084611461A4621F007FE7B681A88BB6912
:100A20009B8813449AB27B681A80FB7F0133FB7763
:100A3000FB6893F82C30FA7F9A4293D30023184630
:100A40002037BD4680BD00BF80B588B002AFF860DA
:100A5000B9607A6000237B617B681B887B827B683E
:100A600000221A80FB6893F82D30002B0BD07B8A74
:100A7000B86879681A46FFF7BFFB78617B69002B7D
:100A800001D07B69C2E0FB689B78002B0BD07B8A8E
:100A9000B86879681A46FFF7A5FC78617B69002B76
:100AA00001D07B69B2E0FB68DB78002B0FD0FB68DC
:100AB000DB78DBB25AB27B8A1046B9687A68FFF7F6
:100AC000DDFC78617B69002B01D07B699EE0FB68CF
:100AD0005B68002B0FD0FB685B681B785AB27B8A7F
:100AE0001046B9687A68FFF709FD78617B69002BC9
:100AF00001D07B698AE0FB681B89002B12D0FB6860
:100B000003F108027B6800937B8A0193104602215F
:100B10000622BB68FFF7D2FD78617B69002B01D00C
:100B20007B6973E0FB681B8A002B12D0FB6803F122
:100B300010027B6800937B8A0193104603210722F1
:100B4000BB68FFF7BBFD78617B69002B01D07B6937
:100B50005CE0FB681B8B002B12D0FB6803F11802D2
:100B60007B6800937B8A0193104614211522BB6891
:100B7000FFF7A4FD78617B69002B01D07B6945E01C
:100B8000FB681B6A002B0DD0FB681A6A7B8A104633
:100B9000B9687A68FFF704FE78617B69002B01D0A1
:100BA0007B6933E0FB685B6A002B0DD0FB685A6AF7
:100BB0007B8A1046B9687A68FFF752FE78617B69D4
:100BC000002B01D07B6921E0FB6893F82C30002BCF
:100BD0000BD07B8AF868B9687A68FFF7B3FE786152
:100BE0007B69002B01D07B6910E0FB681B78002B30
:100BF0000BD07B8AF868B9687A68FFF765FB786183
:100C00007B69002B01D07B6900E07B6918461837AF
:100C1000BD4680BD80B483B000AF78607B68DB7870
:100C200003F00403002B01D1072300E00023184642
:100C30000C37BD465DF8047B704700BF80B483B0BD
:100C400000AF78607B68DB78002B01D0072300E0E1
:100C5000002318460C37BD465DF8047B704700BF83
:100C600080B596B000AF786039601F23A7F84A308E
:100C70001F23A7F848307B68002B1BD07868FFF74C
:100C8000C9FFF864FB6C002B01D0FB6C47E007F157
:100C9000280207F14A03786811461A46FFF7D4FE86
:100CA000F864FB6C002B01D0FB6C38E007F12803E3
:100CB0007B6504E000237B650023A7F84A303B688E
:100CC000002B1BD03868FFF7B9FFF864FB6C002BD2
:100CD00001D0FB6C23E007F1080207F148033868F4
:100CE00011461A46FFF7B0FEF864FB6C002B01D0EA
:100CF000FB6C14E007F108033B6504E000233B654F
:100D00000023A7F84830B7F84A30DAB2B7F84830CD
:100D1000DBB2786D11463A6DFFF746FA0346184686
:100D20005837BD4680BD00BF75DF7047184600BF0D
:100D300076DF7047184600BF7ADF7047184600BF5D
:100D40007BDF7047184600BF80B483B000AF786087
:100D50007B685A88094B1B889A4207D37B685A885C
:100D6000064B5B889A4201D8012300E00023184615
:100D70000C37BD465DF8047B704700BF704500200E
:100D800080B586B000AF7860264B1B884FF6FF72A7
:100D9000934244D0244B1B780133DAB2224B1A70B1
:100DA000224B1A7B204B1B789A4213D31D4B1B8876
:100DB00018461F49FFF7B8FF78617B69002B08D000
:100DC0001A4B9B69002B04D0184B9B697869984794
:100DD00025E024E0144B00221A70144B1B7C002BDE
:100DE00011D0104B1B8818463B21FFF7A1FF38613B
:100DF0003B69002B07D00D4B9B69002B03D00B4B9D
:100E00009B6938699847094B5B69002B07D0002321
:100E10003B73064B5B6907F10C0210469847183785
:100E2000BD4680BD7A45002078450020544500200D
:100E300070450020B0B584B000AF78601C4A7B6874
:100E400014461D460FCD0FC495E8070084E807003F
:100E5000184B00221A707B681B68002B0ED07B6831
:100E60001A68154B1068516803C31348FFF764FFF5
:100E7000F860FB68002B0AD0FB6815E00E48FFF70E
:100E80005FFFF860FB68002B01D0FB680CE00B4BA8
:100E90004FF6FF721A800A4B00221A70094800218F
:100EA000094A07F021FB034618461037BD46B0BD7E
:100EB00054450020A4450020704500207A450020BC
:100EC00078450020F8950400810D020080B584B0BB
:100ED00000AF2448FFF738FF034683F00103DBB27D
:100EE000002B2ED0204B1B78002B0BD01F4B5B69A7
:100EF000002B25D000233B711C4B5B693A1D10462B
:100F0000984729E01A4B1B78002B03D1174B5B68DD
:100F1000FB6002E0154B9B68FB60164B1846F968B6
:100F2000002207F015FBB860BB68002B08D00F4B00
:100F30009B69002B04D00D4B9B69B86898470BE068
:100F40000AE00A4B5B69002B06D001233B70074B7C
:100F50005B693A4610469847034B00221A701037D7
:100F6000BD4680BD7C450020A4450020544500209E
:100F7000784500208445002080B582B000AF7860BD
:100F80007B689A880A4B1A800A4A7B68103393E878
:100F9000030082E80300084B00221A70074BDB892C
:100FA000002B01D1FFF792FF0837BD4680BD00BF7F
:100FB0007A4500207C4500207845002054450020DB
:100FC00080B584B000AF78600C4B4FF6FF721A808A
:100FD0000B4B00221A700B4B184607F0EDFAF86025
:100FE000FB68002B07D0084B9B69002B03D0064BF6
:100FF0009B69F86898471037BD4680BD7A45002048
:1010000078450020844500205445002080B584B0F8
:1010100000AF78607B680633FB60FB681A88134B6F
:10102000DB899A421ED1FB685B89022B1AD1FB68CF
:101030000C33184600F0ACF90346002B02D0FFF742
:1010400045FF0FE00A4B184607F0B6FAB860BB68D8
:10105000002B07D0054B9B69002B03D0034B9B69EA
:10106000B86898471037BD4680BD00BF5445002082
:101070008445002080B582B000AF7860054A7B6867
:10108000083393E8030082E80300FFF71FFF0837E7
:10109000BD4680BD7C45002080B582B000AF786041
:1010A0007B681B88112B0DD0112B02DC102B05D077
:1010B00014E0122B0ED0502B08D00FE07868FFF709
:1010C0005BFF0BE07868FFF77BFF07E07868FFF7CE
:1010D0009DFF03E07868FFF7CDFF00BF0837BD46EE
:1010E00080BD00BF80B584B000AF78601A4B7A68CD
:1010F0001068516803C31848FFF71EFEF860FB68CC
:10110000002B24D11548FFF71FFE034683F001038F
:10111000DBB2002B0DD0124B01221A70114B1B8831
:1011200018460D49FFF700FEF8600F4B01221A70B8
:101130000DE00E4B5B69002B07D001233B720B4B7C
:101140005B6907F10802104698470023FB60FB68C3
:1011500018461037BD4680BD704500207C450020F4
:10116000A44500207A450020784500205445002001
:1011700080B584B000AF0346FB80144B5B6CDB434F
:10118000184607F0C1FB0346FB81FB894FF6FF724F
:10119000934215D0FB890D4A5B001344FA889A806C
:1011A000FB880B480B491A46012307F0CBFBFB8851
:1011B000074809491A46012307F0C4FB012300E050
:1011C000002318461037BD4680BD00BFA84500204B
:1011D000AC450020F0450020EC45002090B585B0DE
:1011E00002AF0346FB80FC880023009304480549B6
:1011F0001D22234607F0BEFB0C37BD4690BD00BF45
:10120000AC450020EC45002080B582B000AF03461D
:10121000FB80FB88044805491A46002307F092FB2F
:101220000837BD4680BD00BFAC450020F04500201A
:1012300090B5A5B000AF184B9B6CDA43164B5B6CB6
:1012400013403A46104615491A4607F0DBFB07F1F2
:1012500048023B46442410461946224621F0E4F950
:101260000023C7F88C300FE0D7F88C305B0007F113
:101270009002134433F8443C1846FFF7AFFFD7F809
:101280008C300133C7F88C30BA6CD7F88C309A4266
:10129000EAD89437BD4690BDA8450020AC45002053
:1012A00080B584B000AF78607B681B88112B25D097
:1012B0001A2B29D0102B48D1FFF7BAFF7B689B88E7
:1012C0001846FFF755FF034683F00103DBB2002BFE
:1012D00005D00420E0211E4A07F09AF935E07B682A
:1012E000DB7B022B0CBF01230023FB737B689A88F6
:1012F000FB7B1848184907F025FB26E07B689B8894
:101300001846FFF781FF20E07B689A887B681B7A8C
:10131000C3F30313DBB2012BCCBF01230023DBB2E9
:101320000C480E4907F00EFB7B689A887B681B7A95
:10133000C3F30313DBB2022BCCBF01230023DBB2C8
:101340000448074907F0FEFA00BF1037BD4680BDCC
:10135000FC950400AC450020F4450020F845002031
:10136000FC45002080B483B000AF78607B681B78B8
:101370009AB27B6801331B781B029BB213439BB26A
:101380009BB218460C37BD465DF8047B704700BF22
:1013900080B584B000AF78607868FFF7E3FF03465C
:1013A000FB81FB8903F00103002B14BF0123002301
:1013B000DBB218461037BD4680BD00BF80B584B093
:1013C00000AF78607868FFF7CDFF0346FB81FB89AB
:1013D00003F00203002B14BF01230023DBB21846E5
:1013E0001037BD4680BD00BF80B483B000AF7860C9
:1013F0004FF080427B68C2F804330C37BD465DF87D
:10140000047B704780B483B000AF78604FF08042B7
:101410007B68C2F808330C37BD465DF8047B704723
:1014200080B483B000AF0346FB71FB7903F18043C6
:1014300001221A600C37BD465DF8047B704700BF7F
:1014400080B485B000AF0346FB80FB8803F1804386
:1014500000221A60FB8803F180431B68FB60FB6875
:101460001437BD465DF8047B704700BF80B483B07D
:1014700000AF0346FB80FB8803F180431B68002B11
:1014800014BF01230023DBB218460C37BD465DF8BC
:10149000047B704780B483B000AF0346FB714FF00C
:1014A0008042FB7903F00303C2F818350C37BD46C0
:1014B0005DF8047B704700BF80B483B000AF034683
:1014C000FB714FF08043D3F80C3403F00112FB7929
:1014D00043F480339A420CBF01230023DBB2184649
:1014E0000C37BD465DF8047B704700BF80B483B005
:1014F00000AF0346FB710C4A97F907305B0952F8BD
:101500002320FB7903F01F0322FA03F303F0010306
:10151000002B14BF01230023DBB218460C37BD4655
:101520005DF8047B704700BF00E100E080B500AFCC
:101530000020FFF7DBFF034683F00103DBB2002B43
:1015400003D00020062100F0E1F980BD3FDF7047A5
:10155000184600BF40DF7047184600BF80B500AF97
:1015600008F028FA0346002B02D0FFF7EFFF09E04E
:101570004FF48070FFF764FF0120FFF735FF002074
:10158000FFF74EFF80BD00BF80B500AF08F012FA34
:101590000346002B02D0FFF7DDFF0CE00420FFF72D
:1015A0003FFF00BF0120FFF787FF0346002BF9D163
:1015B000014B00225A7080BD6046002080B582B089
:1015C00000AF00237B60144B1B78002B02D08523D7
:1015D0007B601BE0104B00229A600F4B00225A6088
:1015E0000D4B00221A610C4B0022DA60FFF79EFFC0
:1015F00008F0E0F9034683F00103DBB2002B02D0D0
:101600000120FFF747FF044B01221A707B68184640
:101610000837BD4680BD00BF6046002080B485B05D
:1016200000AF786039607B681B68FB6007E0FA6890
:101630003B689A4200D10CE0FB681B68FB60FB68CA
:10164000002BF4D17B681A683B681A607B683A68A3
:101650001A601437BD465DF8047B704780B485B0CE
:1016600000AF78607B681B68FB60FB68002B03D0D1
:10167000FB681A687B681A60FB6818461437BD4619
:101680005DF8047B704700BF80B584B000AF786020
:101690001E4B5B78DBB2002B17D07B68002B03D08E
:1016A0007B685B68002098470023FB7307F10F03FA
:1016B000184607F0B3F8154B5B680133134A5360C3
:1016C000FB7B184607F0B4F81CE00023BB7307F15E
:1016D0000E03184607F0A2F87B68002B03D00C48D5
:1016E0007968FFF79BFF094B5B68002B01D1FFF77F
:1016F00035FF064B5B680133044A5360BB7B1846D9
:1017000007F096F81037BD4680BD00BF6046002048
:101710006846002080B582B000AF0023FB71FB1D3E
:10172000184607F07BF8094B5B68013B074A53609A
:10173000064B5B68002B01D1FFF726FFFB791846AB
:1017400007F076F80837BD4680BD00BF6046002030
:1017500080B584B000AF0346FB71FB79002B02D14A
:101760000A4BFB6001E00A4BFB60F868FFF776FF6D
:10177000B860BB68002B00D105E0BB685B68FA79F4
:1017800010469847F1E71037BD4680BD68460020F7
:101790007046002080B500AF4FF48070FFF766FE02
:1017A0000346002B0CD04FF48070FFF749FE012058
:1017B000FFF728FE0D4B01225A700020FFF7C8FFEB
:1017C0004FF48270FFF752FE0346002B0CD04FF40B
:1017D0008270FFF735FE0220FFF714FE034B012253
:1017E0009A700120FFF7B4FF80BD00BF6046002063
:1017F00080B582B000AF78607B68002B02D10020FA
:10180000FFF7A6FF0837BD4680BD00BF80B582B098
:1018100000AF0023FB71FB1D184606F0FFFF0C4BC9
:101820001B7883F00103DBB2002B01D0FFF7C6FE6B
:10183000074BDB680133064AD360054B01229A70DF
:10184000FB79184606F0F4FF0837BD4680BD00BF9F
:101850006046002080B483B000AF0346FB710849A6
:1018600097F907305B09FA7902F01F02012000FAAC
:1018700002F241F823200C37BD465DF8047B704727
:1018800000E100E080B483B000AF0346FB7109497A
:1018900097F907305B09FA7902F01F02012000FA7C
:1018A00002F2603341F823200C37BD465DF8047B1B
:1018B000704700BF00E100E080B483B000AF034692
:1018C0003960FB7197F90730002B0BDA0D49FB7972
:1018D00003F00F03043B3A68D2B25201D2B20B4478
:1018E0001A7609E0084997F907303A68D2B25201EE
:1018F000D2B20B4483F800230C37BD465DF8047B5D
:10190000704700BF00ED00E000E100E080B582B06C
:1019100000AF03460A46FB711346BB71BB7997F9CA
:10192000072010461946FFF7C7FF97F907301846FA
:10193000FFF7A8FF97F907301846FFF78BFF083726
:10194000BD4680BD80B582B000AF0346FB80FB88FA
:10195000184600F023F803461B68012B0CBF012337
:101960000023DBB218460837BD4680BD80B584B081
:1019700000AF0346FB80FB88184600F00FF80346D3
:101980001A4600231360FB88184600F007F8034648
:101990001B68FB60FB681037BD4680BD80B483B018
:1019A00000AF0346FB80FB8803F1804303F5C0438F
:1019B00018460C37BD465DF8047B704780B483B091
:1019C00000AF7860044A7B68C2F804330C37BD4628
:1019D0005DF8047B704700BF0060004080B483B0B6
:1019E00000AF7860044A7B68C2F808330C37BD4604
:1019F0005DF8047B704700BF0060004080B483B096
:101A000000AF7860054BD3F804237B681340184679
:101A10000C37BD465DF8047B704700BF0060004096
:101A200080B483B000AF78600949094A7B6803F548
:101A3000A27352F8233043F001027B6803F5A273CE
:101A400041F823200C37BD465DF8047B704700BF8A
:101A50000060004080B483B000AF78600949094A53
:101A60007B6803F5A27352F8233023F001027B68F0
:101A700003F5A27341F823200C37BD465DF8047BC3
:101A8000704700BF0060004080B485B000AFF860D0
:101A9000B9601346FB711549144AFB6803F5A2733C
:101AA00052F8233023F4473323F44073FA6802F5E5
:101AB000A27241F822300D480C4AFB6803F5A2736C
:101AC00052F82320BB681B0203F4F851FB791B0476
:101AD00003F440330B431A43FB6803F5A27340F849
:101AE00023201437BD465DF8047B7047006000403A
:101AF00080B483B000AF7860074A7B6803F5A273B7
:101B000052F8233003F4F8531B0A18460C37BD462D
:101B10005DF8047B704700BF0060004080B483B074
:101B200000AF7860074A7B6803F5A27352F8233050
:101B300003F440331B0CDBB218460C37BD465DF88E
:101B4000047B70470060004080B483B000AF7860D1
:101B5000054A7B6803F5A273002142F823100C3775
:101B6000BD465DF8047B70470060004080B483B0E0
:101B700000AF78604FF0A04318460C37BD465DF8C3
:101B8000047B704780B584B000AF7860084611468A
:101B90001A460346FB700B46BB7013467B703B1D19
:101BA0001846FFF7E3FFF8607A68F978BB785B00C6
:101BB00019437B789B0019433B7E1B0219433B7FF3
:101BC0001B041943FB6802F5E07243F8221010373A
:101BD000BD4680BD90B585B002AF78600B46FB7006
:101BE000FC780023009300230193786800210022F1
:101BF0002346FFF7C7FF0C37BD4690BD80B584B0C4
:101C000002AF7860002300930023019378680021DD
:101C100001220023FFF7B6FF0837BD4680BD00BF95
:101C200080B584B000AF78603B1D1846FFF79EFF7B
:101C3000F8607A68FB6802F5E07253F8223023F00E
:101C40000203BB607A68FB6802F5E072B96843F88A
:101C500022101037BD4680BD80B584B000AF7860DB
:101C60000B46FB703B1D1846FFF780FFF8607A6853
:101C70007968FB6801F5E07153F8213023F44031B5
:101C8000FB6802F5E07243F822107A687968FB6815
:101C900001F5E07153F82130F97809041943FB6824
:101CA00002F5E07243F822101037BD4680BD00BF38
:101CB00080B584B000AF78603B1D1846FFF756FF33
:101CC000F860F86800F022F802467B6822FA03F315
:101CD00003F0010318461037BD4680BD80B584B0BF
:101CE00000AF78603B1D1846FFF740FFF8607A6848
:101CF000FB6802F5E07253F8223003F440331B0C0A
:101D0000DBB218461037BD4680BD00BF80B483B03B
:101D100000AF78607B68D3F8103518460C37BD46A5
:101D20005DF8047B704700BF80B586B000AFF860F7
:101D3000B9607A604FF0A0433B61FB687B6112E0C1
:101D40007B699B0007F11802134453F8083C1846BE
:101D5000FFF7DCFF02467B681A607B6804337B6018
:101D60007B6901337B61FA68BB681A447B699A42DC
:101D7000E6D81837BD4680BD80B485B000AF786026
:101D800039603B68FB607B68DB08BB607B6803F005
:101D900007037B607B68012202FA03F3F968BA68E3
:101DA0000A441278134018461437BD465DF8047B88
:101DB000704700BF80B485B000AF786039603B6881
:101DC000FB607B68DB08BB607B6803F007037B601C
:101DD000FA68BB681344F968BA680A441278D0B24A
:101DE0007A68012101FA02F2D2B201460A43D2B264
:101DF000D2B21A701437BD465DF8047B704700BF3D
:101E000080B483B000AF78600D4A7B6813444033E0
:101E10001B785BB2002B09DB094A7B681344403313
:101E20001B785BB2072B01DC012300E0002303F0E9
:101E30000103DBB218460C37BD465DF8047B7047E2
:101E40007446002080B483B000AF7860084A7B6895
:101E5000134440331B785BB2072BCCBF0123002314
:101E6000DBB218460C37BD465DF8047B704700BFF7
:101E70007446002080B483B000AF7860074A7B6866
:101E8000134440331B78DB43DBB2DB09DBB218467B
:101E90000C37BD465DF8047B704700BF74460020D8
:101EA00080B485B000AFF860B9607A60FB70BB6841
:101EB000D9B20F4AFB68134440330A461A700C49E2
:101EC000BB687A6841F82320FB7883F00103DBB21A
:101ED000002B08D0BB68083BFA68D1B2044A13440F
:101EE0000A4683F860201437BD465DF8047B7047CE
:101EF0007446002080B483B000AF7860054A7B68E8
:101F000013444033FF221A700C37BD465DF8047B42
:101F1000704700BF7446002080B483B000AF786083
:101F2000054A7B68134440331B785BB218460C3774
:101F3000BD465DF8047B70477446002080B483B0D2
:101F400000AF7860044A7B6852F8233018460C379B
:101F5000BD465DF8047B70477446002080B588B0AC
:101F600000AFF860B9601346FB71FF23FB77FB7984
:101F7000002B01D0002300E008237B61FB79002BBC
:101F800001D0082300E010233B617B69BB6112E0B4
:101F90000E4ABB6952F82330B3F1FF3F08D1FB79F9
:101FA000F868B969BA68FFF77BFFBB69FB7706E0A1
:101FB000BB690133BB61BA693B699A42E8D3FB7FD5
:101FC0005BB218462037BD4680BD00BF7446002076
:101FD00080B483B000AF0346FB71FB79094A4FF030
:101FE000FF3142F82310FB79072B06D9FB79083B18
:101FF000044A1344FF2283F860200C37BD465DF885
:10200000047B70477446002080B582B000AF1D4B42
:1020100093F86830002B03D008233B603B682CE02A
:102020000023FB7106E0FB791846FFF763FFFB799D
:102030000133FB71FB791F2BF5D90023FB7106E0FF
:10204000FB791846FFF7C4FFFB790133FB71FB797D
:102050000F2BF5D906200621FFF758FC4FF4BE7070
:10206000FFF784FC4FF00040FFF7A8FC054B01226E
:1020700083F8682000233B603B6818460837BD465C
:1020800080BD00BF7446002080B400AF064B93F8BB
:102090006830002B14BF01230023DBB21846BD4675
:1020A0005DF8047B704700BF7446002080B586B0A1
:1020B00000AFF860B9607A6000237B61F868FFF7D1
:1020C000D9FE0346002B02D008237B6141E0BB68A8
:1020D000DB78F86879681A46FFF740FF0346FB741F
:1020E00097F91330B3F1FF3F31D0BB689B78002BD9
:1020F00003D0F868FFF794FD05E0BB685B78F868EB
:102100001946FFF767FDBB68DB78002B09D097F90C
:102110001320BB681B781046F9681A46FFF7B4FC19
:1021200017E097F91330083B97F91320083A0B4949
:102130000A4492F86010BA6812789201D2B20A4347
:10214000D1B2064A13440A4683F8602001E0042312
:102150007B617B6918461837BD4680BD74460020F8
:1021600080B586B000AF78600B46FB707868FFF7EB
:1021700069FE0346002B27D07868FFF7CDFE0346A3
:10218000083B2A4A134493F86030BB75BB7D9B091A
:102190007B757B7D032B0AD17868FFF789FD0346A9
:1021A000002B01D0032300E00223FB7506E07B7DBA
:1021B000012B01D1022300E00323FB75FB7D78682E
:1021C0001946FFF749FD2DE07868FFF719FE034631
:1021D000002B27D07868FFF79FFE03463B613B69E1
:1021E0009BB240339BB29B00FB813B691846FFF7D3
:1021F00017FCFB891846FFF7B9FBFB78002B11D0C1
:102200007868FFF789FE03461846FFF797FEB86027
:10221000BB68002B06D001223B6902FA03F3184683
:10222000FFF7CCFB1837BD4680BD00BF74460020C9
:1022300080B584B000AF78607868FFF703FE03468E
:10224000002B04D078680021FFF706FD15E07868C0
:10225000FFF7D6FD0346002B0FD07868FFF75CFE32
:102260000346FB60FB681846FFF7F4FB0122FB689E
:1022700002FA03F31846FFF7B1FB1037BD4680BDE5
:1022800080B582B000AF78607868FFF7D1FF7868DA
:10229000FFF7B6FD0346002B06D07868FFF73CFE3B
:1022A00003461846FFF750FC7868FFF7A7FC7868EC
:1022B000FFF732FE0346DBB21846FFF789FE786867
:1022C000FFF718FE0837BD4680BD00BF80B582B05D
:1022D00000AF78607868FFF7EBFC0346002B14BF73
:1022E00001230023DBB218460837BD4680BD00BF7E
:1022F00080B594B000AF0023FB640023FB604FF473
:102300008073A7F8463001233B640023BB6421E0BF
:10231000B7F846301846FFF715FB0346002B0ED0E2
:10232000386CFFF76BFB0346002B08D0B7F846303C
:102330001846FFF71BFBFA6C3B6C1343FB643B6CCA
:102340005B003B64B7F846300433A7F84630BB6CFB
:102350000133BB64BB6C072BDAD94FF4BE70FFF7B7
:10236000F1FA0346002B0ED04FF4BE70FFF7FEFAD1
:10237000FB6C43F00043FB6407F10C0300200121D8
:102380001A46FFF7D1FCFB6CDBB2002B29D00123EE
:102390003B640023BB6421E03A6CFB6C1340002BD0
:1023A00016D0B86CFFF7A4FB7863B86CFFF7B6FBE8
:1023B000034687F83330B86CFFF7C0FDF862FB6A5C
:1023C000002B05D097F83320FB6A786B11469847AD
:1023D0003B6C5B003B64BB6C0133BB64BB6C072B89
:1023E000DAD9FB6C002B80F2F080002387F83B30B9
:1023F0000023BB600023FB630BE0FB6B9B0007F13A
:10240000500213444FF0FF3243F84C2CFB6B013366
:10241000FB63FB6B002BF0D0002387F83B300023DD
:10242000BB6473E06A4ABB6C134460331B7887F863
:102430002B3097F82B3023F0C0037B62644ABB6CCF
:10244000134460331B785BB2B3F1FF3F5BD03B1D9D
:10245000786A1946FFF790FC0346002B53D097F893
:102460002B309B0987F82330786AFFF755FD034628
:102470001846FFF763FDF861FB69002B03D197F85D
:102480002330032B3FD197F82330032B05D107F1DD
:102490000803786A1946FFF78DFC786AFFF71EFC7F
:1024A0000346FB7607F10C03786A1946FFF764FCD4
:1024B00078617B69002B02D0FB7E022B05D07B6903
:1024C000002B20D1FB7E032B1DD197F82330032B4B
:1024D00010D1FB7E022B01D1032300E00223FB7409
:1024E000FB7C786A1946FFF7B7FB97F83B3001335E
:1024F00087F83B30FB69002B05D097F82320FB6958
:10250000786A11469847BB6C0133BB64BB6C072BE0
:1025100088D997F83B30002B52D0012387F83A3006
:102520003B46002001211A46FFF7FEFB0023FB6318
:1025300016E0FB6B9B0007F15002134453F8502C3C
:10254000FB6B9B0007F150010B4453F8443C9A424B
:1025500003D0002387F83A3005E0FB6B0133FB63BF
:10256000FB6B002BE5D097F83A30002B03D000230B
:1025700087F83B3024E00023FB631EE0FB6B9B00ED
:1025800007F15002134453F8502CFB6B9B0007F1EA
:1025900050010B4443F8442CFB6B9B0007F15002A5
:1025A000134453F8482CFB6B9B0007F150010B447C
:1025B00043F84C2CFB6B0133FB63FB6B002BDDD032
:1025C00097F83B30002B7FF427AF5037BD4680BDD6
:1025D0007446002080B483B000AF0346FB80FB88C4
:1025E00003F1804303F5E8331B68002B14BF01237C
:1025F0000023DBB218460C37BD465DF8047B7047FC
:1026000080B485B000AF0346FB80FB8803F18043B4
:1026100003F5E83300221A60FB8803F1804303F5D9
:10262000E8331B68FB60FB681437BD465DF8047B2C
:10263000704700BF80B400AF034B0022C3F80025F1
:10264000BD465DF8047B704700D0014080B483B084
:1026500000AF78603960064A7B68C2F86035044A8A
:102660003B68C2F864350C37BD465DF8047B7047A3
:1026700000D0014080B400AF034BD3F8603518465A
:10268000BD465DF8047B704700D0014080B500AFC7
:102690004FF48470FFF79EFF0346002B1ED04FF4CB
:1026A0008470FFF7ADFFFFF7E5FF0246274BDB68BD
:1026B0009A4209D1254B5B68244A1169234A128941
:1026C00008461146984740E0204B5B681F4AD16896
:1026D0001E4A128908461146984736E04FF480702A
:1026E000FFF778FF0346002B1FD04FF48070FFF7F1
:1026F00087FF164B01225A70FFF7BCFF0246134BAF
:10270000DB689A4208D1114B1A69104B1B8910469D
:102710001946FFF79BFF18E00C4BDA680B4B1B893F
:1027200010461946FFF792FF0FE04FF48270FFF753
:1027300051FF0346002B08D04FF48270FFF760FF73
:10274000FFF778FF014B00225A7080BDE046002061
:1027500080B483B000AF78600B46FB70FB787A687A
:10276000134401221A600C37BD465DF8047B7047A4
:1027700080B483B000AF78600B46FB70FA787B685A
:10278000134418460C37BD465DF8047B704700BF04
:1027900080B485B000AF78600B467B807B887A6818
:1027A000134400221A607B887A6813441B68FB601C
:1027B000FB681437BD465DF8047B704780B483B076
:1027C00000AF78600B467B807B887A6813441B6877
:1027D000002B14BF01230023DBB218460C37BD4683
:1027E0005DF8047B704700BF80B483B000AF7860B1
:1027F00039607B683A68C3F800220C37BD465DF843
:10280000047B704780B483B000AF786039607B6828
:102810003A68C3F800230C37BD465DF8047B704767
:1028200080B483B000AF78607B680122C3F80025D4
:102830000C37BD465DF8047B704700BF80B485B09F
:1028400000AF786039600023FB730DE0FA7BFB7BFF
:102850009B0039680B4419687B6802F5AC7243F839
:102860002210FB7B0133FB73FB7B032BEED9143768
:10287000BD465DF8047B704780B483B000AF7860DC
:10288000084611461A460346FB700B46BB701346BA
:102890003B80FA787B68C3F80C25BA787B68C3F86C
:1028A00004253A887B68C3F808250C37BD465DF8D7
:1028B000047B704780B584B000AFF8600B467A6047
:1028C000FB727B681B68FA7AF86811461A4600F0BA
:1028D0001BF87B689B88FA7AF86811461A4600F064
:1028E00027F87B689B68FA7AF86811461A4600F068
:1028F00033F87B68DB68FA7AF86811461A4600F00C
:102900003FF81037BD4680BD80B485B000AFF86099
:102910000B467A60FB72FB7A7A68F96829335B01AF
:102920000B441A601437BD465DF8047B704700BF46
:1029300080B483B000AF78600B46FB7013463B80D9
:10294000FB783A88796829335B010B445A600C376D
:10295000BD465DF8047B704780B485B000AFF86079
:102960000B467A60FB72FB7AFA685B01134403F54D
:10297000A5637A681A601437BD465DF8047B70471A
:1029800080B485B000AFF8600B467A60FB72FB7ACA
:10299000FA685B01134403F5A5637A685A6014373B
:1029A000BD465DF8047B704780B483B000AF7860AB
:1029B0000B46FB701346BB70FA78BB781B021A43B8
:1029C0007B68C3F810250C37BD465DF8047B704763
:1029D00080B483B000AF78600B467B807A887B68D8
:1029E000C3F814250C37BD465DF8047B704700BF63
:1029F00080B485B000AF78607B681B0BFB73FB7BFA
:102A00005BB218461437BD465DF8047B704700BFC3
:102A100080B483B000AF78604FF0A04318460C3705
:102A2000BD465DF8047B704780B584B000AF786028
:102A3000084611461A460346FB700B46BB70134608
:102A40007B703B1D1846FFF7E3FFF8607A68F97862
:102A5000BB785B0019437B789B0019433B7E1B02CC
:102A600019433B7F1B041943FB6802F5E07243F8EE
:102A700022101037BD4680BD80B584B002AF7860AB
:102A80000023009300230193786801210122002391
:102A9000FFF7CAFF0837BD4680BD00BF80B584B0D0
:102AA00000AF78603B1D1846FFF7B2FFF8607B6807
:102AB0001A4601239340F868194600F017F81037BA
:102AC000BD4680BD80B584B000AF78603B1D184620
:102AD000FFF79EFFF8607B681A4601239340F86871
:102AE000194600F011F81037BD4680BD80B483B0A0
:102AF00000AF786039607B683A68C3F808250C3706
:102B0000BD465DF8047B704780B483B000AF786049
:102B100039607B683A68C3F80C250C37BD465DF810
:102B2000047B704780B588B000AF786039600023BF
:102B3000FB7747E0FB7F3A68D35CBB77BB7FFF2B1B
:102B400034D0BB7F03F08003002B14BF012300238C
:102B50007B77FB7FBA7F22F080029B0007F1200188
:102B60000B4443F8142C7B7F002B0AD0FB7F9B0087
:102B700007F12002134453F8143C1846FFF78EFF68
:102B800009E0FB7F9B0007F12002134453F8143C3B
:102B90001846FFF797FFFB7F9B0007F120021344C5
:102BA00053F8143C1846FFF767FF08E0FB7F9B00D3
:102BB00007F1200213444FF0FF3243F8142CFB7F3F
:102BC0000133FB77FB7F032BB4D97B681A6807F1CD
:102BD0000C0310461946FFF731FE2037BD4680BD75
:102BE00080B586B000AFF860B9607A60FB681B7989
:102BF000DB00384A13447B617B691B79DBB2002B15
:102C000003D008233B613B695FE07B697A681A6007
:102C1000F868B968FFF786FFFB681B681846FFF77E
:102C2000FFFDFB681868BB685979BB689A79BB6877
:102C30001B89FFF721FEFB681968BB689A7ABB689D
:102C4000DB7A084611461A46FFF7AEFEFB681B68A2
:102C500018460021FFF7C8FDFB681B6818460021D5
:102C6000FFF7D0FDFB681B6818464FF48E71FFF725
:102C70008FFDFB681B6818464FF48871FFF788FDCD
:102C8000FB681B6818464FF48A71FFF781FDFB68EB
:102C90001B6818464FF48271FFF77AFD7B691B6849
:102CA000002B0CD0FB681B681846FFF7A1FE0346FB
:102CB0001A46BB681B7910461946FEF727FE7B694A
:102CC00001221A7100233B613B6918461837BD4643
:102CD00080BD00BFF446002080B586B000AFF8602C
:102CE000B96011461A460B46FB711346BB71BB68AF
:102CF00002221A71BB68FA795A71BB681B68002BF3
:102D000022D082237B61FB7903F00403002B03D0E4
:102D10007B6943F010037B61FB7903F00803002B10
:102D200003D07B6943F020037B61FB7903F0100340
:102D3000002B03D07B6923F080037B61FB681B6859
:102D400018467969FFF75EFDFB681B6818464FF46B
:102D50008271FFF71DFDFB795BB2002B09DAFB687E
:102D60001A68BB7910461946FFF702FD38613B69C6
:102D700007E0FB681A68BB7910461946FFF7E8FCC4
:102D8000002318461837BD4680BD00BF80B588B007
:102D900000AFF860B9603B601346FB80FB681B79AD
:102DA000DB002A4A1344BB61FB681B6818460021FC
:102DB000BA68FFF77FFDFB681B6818460121BA68F7
:102DC000FFF778FDFB8803F00103002B14BF0123FC
:102DD0000023FB75FB681968FB885B089AB2FB7DD2
:102DE0009BB213449BB208461946FFF7F1FD3B68BE
:102DF00003F00103002B02D01023FB610EE03B68BF
:102E000003F00203002B07D0FB7D002B01D0082329
:102E100000E00423FB6101E00023FB61FB681B6809
:102E20001846F969FFF7E0FC3B68DAB2FB7D002B3E
:102E300001D00C2300E00823F868B969FFF74CFFC4
:102E4000034618462037BD4680BD00BFF44600202B
:102E500080B586B000AFF860B9607A607B80FB68AF
:102E60001B79DB001E4A13443B61FB681B68184654
:102E70000021BA68FFF71EFDFB681B681846012198
:102E80007A68FFF717FDFB681A687B8810461946B9
:102E9000FFF79EFD3B6A03F00103002B02D01023D5
:102EA0007B6109E03B6A03F00203002B02D004239C
:102EB0007B6101E000237B61FB681B681846796930
:102EC000FFF792FC3B6ADBB2F86839691A460823BF
:102ED000FFF702FF034618461837BD4680BD00BF06
:102EE000F446002080B582B000AF78603960786821
:102EF0004FF48871FFF762FC0346002B12D078680C
:102F00004FF48871FFF744FC3B685B7903F00403DE
:102F1000002B07D03B681B68002B03D03B681B6865
:102F20000120984778684FF48A71FFF747FC034601
:102F3000002B12D078684FF48A71FFF729FC3B68A8
:102F40005B7903F00803002B07D03B681B68002B5C
:102F500003D03B681B680220984778684FF48E7155
:102F6000FFF72CFC0346002B12D078684FF48E71CB
:102F7000FFF70EFC3B685B7903F01003002B07D1D1
:102F80003B681B68002B03D03B681B6800209847F8
:102F900078684FF48271FFF711FC0346002B0FD0C5
:102FA00078684FF48271FFF7F3FB3B6801221A71D6
:102FB0003B681B68002B03D03B681B6803209847C5
:102FC0000837BD4680BD00BF80B500AF0248034949
:102FD000FFF788FF80BD00BF00C00140F44600201D
:102FE00080B483B000AF7860044A7B68C2F80433D1
:102FF0000C37BD465DF8047B704700BF00D0004031
:1030000080B483B000AF7860044A7B68C2F80833AC
:103010000C37BD465DF8047B704700BF00D0004010
:1030200080B483B000AF0346FB71084BD3F808238C
:10303000FB791340002B14BF01230023DBB2184699
:103040000C37BD465DF8047B704700BF00D00040E0
:1030500080B483B000AF0346FB71FB7903F180437A
:1030600003F5504301221A600C37BD465DF8047B1E
:10307000704700BF80B485B000AF0346FB80FB887B
:1030800003F1804303F5504300221A60FB8803F1EB
:10309000804303F550431B68FB60FB681437BD4653
:1030A0005DF8047B704700BF80B483B000AF034677
:1030B000FB80FB8803F1804303F550431B68002B22
:1030C00014BF01230023DBB218460C37BD465DF860
:1030D000047B704780B400AF044BD3F80835DBB2F3
:1030E0001846BD465DF8047B704700BF00D0004025
:1030F0002FDF7047184600BF30DF7047184600BF0B
:1031000080B500AF4FF48070FFF7B4FF0120FFF7E8
:1031100067FF0020FFF79CFF80BD00BF80B500AFB8
:103120000120FFF76DFF0420FFF792FF80BD00BF75
:1031300080B582B000AF786006F03CFC0346002BFF
:1031400006D07868FFF7D4FF0346002B00D106E0D5
:10315000044804F033FA0346DAB27B681A70083781
:10316000BD4680BD5C96040080B584B000AF786039
:103170000B46FB700023FB600023BB7207F10A03C0
:10318000184605F04BFB06F015FC0346FB72FB7A74
:1031900083F00103DBB2002B08D0FB78114879687B
:1031A0001A4604F0DFF9F860FFF7AAFFBB7A184669
:1031B00005F03EFBFB7A002B0CD0FB7878681946B3
:1031C000FFF79AFFF860FB6842F20702934201D1D1
:1031D0000523FB60FB68022BCED0FB681846103736
:1031E000BD4680BD5C96040080B582B000AF002370
:1031F000FB71FB1D184605F011FB06F0DBFB0346D7
:1032000083F00103DBB2002B21D04FF48070FFF775
:103210004BFF0346002B1AD00120FFF701FF0346A6
:10322000002B14D04FF48070FFF724FFFFF752FFFC
:103230000346BB71BB1D0948194604F087F80748CF
:1032400004F068F80346002B01D0FFF767FFFB7915
:10325000184605F0EDFA0837BD4680BD5C960400BF
:1032600080B483B000AF0346FB71FB7903F1804368
:1032700003F5E04301221A600C37BD465DF8047B7C
:10328000704700BF80B483B000AF0346FB80FB886B
:1032900003F1804303F5E0431B68002B14BF0123B7
:1032A0000023DBB218460C37BD465DF8047B70473F
:1032B00080B485B000AF0346FB80FB8803F18043F8
:1032C00003F5E04300221A60FB8803F1804303F515
:1032D000E0431B68FB60FB681437BD465DF8047B68
:1032E000704700BF80B483B000AF78603960064A91
:1032F0007B68C2F82C36044A3B68C2F830360C377B
:10330000BD465DF8047B70470070004080B58CB00E
:1033100000AF4FF48270FFF7B5FF0346002B45D096
:103320004FF48270FFF7C4FF874B93F82E3083F081
:103330000103DBB2002B04D1834B93F82F30002B19
:1033400034D000233B76804B5B68FB617E4B1B894E
:103350009BB23B847C4BDB68002B03D17A4B002271
:103360001A7419E0784B1A8B774B5A83764BDB68CB
:10337000754A5360744B1A8B734B1A81724B00223F
:10338000DA60714B93F82E3083F00103DBB2002B2F
:1033900002D00020FFF764FF6B4B1B6807F1180297
:1033A00010469847684B002283F82F20664B93F80D
:1033B0002E30002B62D04FF48070FFF763FF03467E
:1033C000002B5BD04FF48070FFF772FF5E4B5A8B7F
:1033D0005D4B93F82D309BB29A421CD95A4B5A8BB5
:1033E000594B93F82D309BB2D31A9AB2564B5A834D
:1033F000554B5A68544B1B899BB21946524B5B8BF9
:10340000CB1A5B001A44504B93F82D3010461946E6
:10341000FFF768FF2BE04C4B5A8B4B4B93F82D304A
:103420009BB29A4214D1484BDB68002B10D0464B1C
:10343000012283F82F20444B00225A83424BDA6842
:10344000414B93F82D3010461946FFF74BFF0EE025
:103450003D4B5A8B3C4B93F82D309BB29A4206D190
:10346000394B012283F82F20374B00225A834FF427
:103470008270FFF71DFF0420FFF7F2FE4FF4887003
:10348000FFF700FF0346002B0ED04FF48870FFF7C4
:103490000FFF2D4B00221A7402233B732A4B1B682B
:1034A00007F10C02104698474FF48A70FFF7EAFEC6
:1034B0000346002B07D04FF48A70FFF7F9FE224B2A
:1034C00000221A743CE0204B5B69FB6235E0FB6A2A
:1034D000B3FA83F3BB62BB6A4FF0004222FA03F3F4
:1034E000DB43FA6A1340FB62BB6A9BB246339BB272
:1034F0009B00FB84FB8C1846FFF7C4FE0346002BA1
:103500001BD0FB8C1846FFF7D3FE01233B70FB8CCE
:10351000A3F58C73DB08DBB23B71FB8CA3F58C73DA
:1035200003F00403002B0CBF01230023DBB27B71EB
:10353000054B1B683A4610469847FB6A002BC6D1DC
:103540003037BD4680BD00BF2C47002080B483B01B
:1035500000AF0346FB71094997F907305B09FA7917
:1035600002F01F02012000FA02F2203341F823206A
:103570000C37BD465DF8047B704700BF00E100E0FA
:1035800080B483B000AF78600B46FB70FB787A683C
:10359000134401221A600C37BD465DF8047B704766
:1035A00080B485B000AF78600B467B807B887A68FA
:1035B000134400221A607B887A6813441B68FB60FE
:1035C000FB681437BD465DF8047B704780B483B058
:1035D00000AF78600B467B807B887A6813441B6859
:1035E000002B14BF01230023DBB218460C37BD4665
:1035F0005DF8047B704700BF80B483B000AF786093
:1036000039607B68D3F800223B68DB431A407B6853
:10361000C3F800220C37BD465DF8047B704700BF3D
:1036200080B483B000AF786039607B683A68C3F8D3
:1036300004230C37BD465DF8047B704780B483B02B
:1036400000AF786039607B683A68C3F808230C37AC
:10365000BD465DF8047B704780B483B000AF7860EE
:103660007B680522C3F800250C37BD465DF8047B56
:10367000704700BF80B483B000AF78607B680022E1
:10368000C3F800250C37BD465DF8047B704700BFCA
:1036900080B485B000AFF860B9607A60FB68BA6842
:1036A000C3F80825FB687A68C3F80C251437BD46B3
:1036B0005DF8047B704700BF80B483B000AF7860D2
:1036C00039607B683A68C3F824250C37BD465DF83D
:1036D000047B704780B485B000AF78607B68D3F816
:1036E000C434FB607B68FA68C3F8C424FB681846DE
:1036F0001437BD465DF8047B704700BF80B483B0CB
:1037000000AF78600B46FB70FA787B68C3F88825B9
:103710000C37BD465DF8047B704700BF80B483B0B2
:1037200000AF78607B68D3F81835DBB218460C37E9
:10373000BD465DF8047B704780B483B000AF78600D
:103740000B46FB70FA787B68C3F81C250C37BD4626
:103750005DF8047B704700BF80B483B000AF786031
:1037600039607B683A68C3F800220C37BD465DF8C3
:10377000047B704780B582B000AF0346FB7197F9B8
:1037800007301846FFF7E2FE0837BD4680BD00BF90
:1037900080B485B000AF78607B681B0BFB73FB7B4C
:1037A0005BB218461437BD465DF8047B704700BF16
:1037B00080B483B000AF78604FF0A04318460C3758
:1037C000BD465DF8047B704780B584B000AF78607B
:1037D0003B1D1846FFF7ECFFF8607B681A46012393
:1037E0009340F868194600F03BF81037BD4680BD9D
:1037F00080B584B000AF78603B1D1846FFF7D8FF56
:10380000F8607B681A4601239340F868194600F077
:1038100035F81037BD4680BD80B584B000AF786004
:103820003B1D1846FFF7C4FFF860F86800F00AF87F
:1038300002467B6822FA03F303F0010318461037AF
:10384000BD4680BD80B483B000AF78607B68D3F89C
:10385000103518460C37BD465DF8047B704700BF35
:1038600080B483B000AF786039607B683A68C3F891
:1038700008250C37BD465DF8047B704780B483B0E3
:1038800000AF786039607B683A68C3F80C250C3764
:10389000BD465DF8047B704780B485B000AF7860AA
:1038A000254BFB607B68002B40D0244B1A68F968DD
:1038B0007B6800BF00BF00BF00BF00BF00BF00BFEC
:1038C00000BF8A422FD000BF00BF00BF00BF00BFB3
:1038D00000BF00BF00BF00BF00BF00BF00BF00BFF0
:1038E00000BF00BF00BF00BF00BF00BF00BF00BFE0
:1038F00000BF00BF00BF00BF00BF00BF00BF00BFD0
:1039000000BF00BF00BF00BF00BF00BF00BF00BFBF
:1039100000BF00BF00BF00BF00BF00BF00BF00BFAF
:1039200000BF00BF00BF013BC3D17B601437BD4661
:103930005DF8047B704700BF0024F400D0420020F3
:1039400080B485B000AF78600323FB607B6803F030
:103950000103002B02D04FF40243FB607B6803F0AD
:103960000203002B02D048F20123FB607B6803F0C6
:103970000403002B02D048F20223FB60FB681846C8
:103980001437BD465DF8047B704700BF80B584B036
:1039900000AF78604FF0A0427B681B6803F5E073CE
:1039A00040F20C6142F823104FF0A0427B685B6844
:1039B00003F5E07340F20C6142F823107B681B684A
:1039C0001846FFF701FF7B685B681846FFF7FCFEAF
:1039D0004FF0A0427B681B6803F5E07340F20D6175
:1039E00042F823104FF0A0427B685B6803F5E07358
:1039F00040F20D6142F823100420FFF74DFF002331
:103A0000FB601FE07B685B681846FFF705FF034615
:103A1000002B04D0FB68002B00D123E015E07B686D
:103A20001B681846FFF7E4FE0420FFF735FF7B68AC
:103A30001B681846FFF7C8FE0420FFF72DFFFB6840
:103A40000133FB60FB68082BDCDD7B685B68184694
:103A5000FFF7CEFE0420FFF71FFF7B685B68184668
:103A6000FFF7B2FE1037BD4680BD00BF80B588B0FD
:103A700000AFF860B9607A603B60FB681B791A465A
:103A800013469B001344DB00354A1344FB61FB697A
:103A900093F82230002B03D00823BB61BB695AE0A6
:103AA000FB697A681A60FB693A685A60FB69002210
:103AB0009A60FB69002283F82520FB69002283F8C5
:103AC0002420BB689A7BFB6983F82720BB685B7B5B
:103AD000002B02D0B868FFF759FF4FF0A042BB6837
:103AE0001B6803F5E07340F20C6142F823104FF0BD
:103AF000A042BB685B6803F5E07340F20C6142F8DA
:103B00002310FB681B687B61BB681A68BB685B6835
:103B1000786911461A46FFF7BBFDBB689B68786958
:103B20001946FFF7C9FDFB691B68002B0CD0FB6829
:103B30001B681846FFF72CFE03461A46BB681B7B22
:103B400010461946FDF7E2FEFB69012283F82220A8
:103B50000023BB61BB6918462037BD4680BD00BF4E
:103B60005C47002080B584B000AF78607B681B792B
:103B70001A4613469B001344DB001D4A1344FB60A6
:103B8000FB681B68002B08D07B681B681846FFF792
:103B9000FFFD03461846FFF7EDFD786800F048F892
:103BA000FB6893F8273083F00103DBB2002B17D0BA
:103BB0004FF0A0427B681B68D3F8083503F5E0732B
:103BC00040F2023142F823104FF0A0427B681B689C
:103BD000D3F80C3503F5E07340F2023142F82310BC
:103BE000FB68002283F822201037BD4680BD00BF4D
:103BF0005C47002080B584B000AF78607B681B799B
:103C00001A4613469B001344DB00084A1344FB602A
:103C10007B681B68BB60B868FFF71EFDFB6802226B
:103C200083F822201037BD4680BD00BF5C470020CE
:103C300080B584B000AF78607B681B791A46134664
:103C40009B001344DB000D4A1344FB607B681B6838
:103C5000BB60B8684FF0FF31FFF7F0FCB8684FF079
:103C6000FF31FFF7C9FCB868FFF704FDFB680122CC
:103C700083F822201037BD4680BD00BF5C4700207E
:103C800080B584B000AFF860B9603B601346FB714B
:103C90003B681B78FA799A4210D93B681B781A4620
:103CA000BB6813441B78F8681946FFF745FD3B686D
:103CB0001B780133DAB23B681A700CE03B7E002BB4
:103CC00005D0F8681C21FFF75BFC002304E0F868CE
:103CD0001421FFF755FC012318461037BD4680BD5F
:103CE00090B585B000AFF860B9603B601346FB71DA
:103CF0003B681B78FA799A4225D93B681B781A46AB
:103D0000BB689C18F868FFF709FD034623703B6801
:103D10001B780133DAB23B681A703B681B781A468D
:103D2000FB79013B9A4204D1F8680221FFF714FDA8
:103D300005E03B681B78FA799A4200D103E0F86805
:103D40002021FFF71DFC1437BD4690BD80B588B01B
:103D500002AFF860B9607A603B60BB681B78002BEB
:103D600005D17B681B7897F820209A4201D1012366
:103D700000E00023FB75FB7D03F00103FB75BB68CE
:103D80001B78002B0FD0F8684FF49271FFF708FCF6
:103D9000F8684FF48E71FFF703FCF8684FF48471F4
:103DA000FFF7FEFB72E0F8684FF49271FFF70EFC2C
:103DB0000346002B0CD0F8684FF49271FFF7F0FB2C
:103DC000F8681421FFF7DCFBBB6801221A705DE084
:103DD000F8684FF48E71FFF7F9FB0346002B2BD0E8
:103DE000F8684FF48E71FFF7DBFBF8684FF49271BF
:103DF000FFF7ECFB0346002B0CD0F8684FF49271F0
:103E0000FFF7CEFBF8681421FFF7BAFBBB6801226D
:103E10001A703BE097F8202097F824300093F86858
:103E200039687B68FFF72CFF034683F00103DBB2A0
:103E3000002B2BD000233CE0F8684FF48471FFF78F
:103E4000C5FB0346002B21D0F8684FF48471FFF7BF
:103E5000A7FBF8684FF49271FFF7B8FB0346002BFD
:103E60000CD0F8684FF49271FFF79AFBF8681421B0
:103E7000FFF786FBBB6801221A7007E097F8203035
:103E8000F86839681A467B68FFF72AFFFB7D002B2C
:103E90000ED0F8684FF48271FFF798FB0346002BB1
:103EA00006D0F8684FF48271FFF77AFB002300E038
:103EB000012318461837BD4680BD00BF90B58BB0B2
:103EC00002AFF860B9607A60FB700023FB6142F2D8
:103ED00010737B61B8684FF48271FFF761FBB868BB
:103EE0004FF49271FFF75CFBB8684FF48E71FFF7E7
:103EF00057FBB8684FF48471FFF752FBB868002194
:103F0000FFF72AFCFB68002283F82620FB680022CA
:103F100083F82320B8682021FFF732FBB868082116
:103F2000FFF72EFBFB6803F12604FA7897F8303090
:103F30000093B86879682346FFF7A2FEFB681B6808
:103F4000002B0AD0FB6840F286229A60FB689B68CF
:103F5000B8681946FFF764FB33E002E07B69013B78
:103F60007B617B69002B11DDFB6803F12301FB689A
:103F700003F12602FB78009397F830300193B8687C
:103F80007B68FFF7E3FE0346002BE7D1FB6893F85D
:103F90002330002B0AD0B868FFF79CFBB861BB69DF
:103FA000002B03D0B869FFF7CBFCF8617B69002BCD
:103FB00007DCB868FFF75EFBB868FFF74DFB03232B
:103FC000FB61FB6918462437BD4690BD80B58AB0B9
:103FD00002AFF860B9607A60FB700023FB6142F2C7
:103FE00010737B61B8684FF48271FFF7D9FAB86833
:103FF0004FF49271FFF7D4FAB8684FF48E71FFF75F
:10400000CFFAB8684FF48471FFF7CAFAFB68002250
:1040100083F82620FB68002283F82320FB78012BFD
:1040200004D1B8680221FFF797FB03E0B8680121CB
:10403000FFF792FBB8682021FFF7A2FAB8680021C9
:10404000FFF79EFAFB681B68002B0AD0FB6840F262
:1040500086229A60FB689B68B8681946FFF7E0FA09
:1040600032E002E07B69013B7B617B69002B10DD64
:10407000FB6803F12301FB6803F12602FB78009340
:1040800000230193B8687B68FFF760FE0346002BAE
:10409000E8D1FB6893F82330002B0AD0B868FFF70B
:1040A00019FBB861BB69002B03D0B869FFF748FC66
:1040B000F8617B69002B07DCB868FFF7DBFAB868AA
:1040C000FFF7CAFA0323FB61FB6918462037BD4698
:1040D00080BD00BF90B589B002AFF860B9607A606A
:1040E0003B6000237B61B8684FF0FF31FFF7A6FA11
:1040F000FB6893F82430DBB2002B09D0FB689B6887
:10410000B8681946FFF78CFA11237B617B6966E07A
:104110003B6803F00403002B0CBF01230023DAB239
:10412000FB6883F824203B6803F00803002B03D0CE
:1041300006237B617B6952E0FB683A689A61FB6801
:104140007A680C3307CA83E807007B689A78FB68B3
:1041500083F820207B685A68FB68DA617B685B78AB
:10416000B8681946FFF7CAFA7B681B78012B20D084
:104170007B681B78002B04D13B6803F02003002BE5
:1041800001D0012300E0002303F00103DAB2FB6851
:1041900083F821207B685A687B689C78FB6893F8D9
:1041A00021300093F868B9682346FFF787FE7861ED
:1041B0000CE0FB68002283F821207B685A687B684A
:1041C0009B78F868B968FFF701FF7861FB681B68A6
:1041D000002B03D1FB68002283F824207B6918465A
:1041E0001C37BD4690BD00BF80B586B000AFF860FB
:1041F000B9607A6000237B61FB681B791A4613461D
:104200009B001344DB000D4A13443B617B6803F0C1
:104210000303002B03D006237B617B6909E0FB6865
:104220001B6838691946BA687B68FFF753FF7861E5
:104230007B6918461837BD4680BD00BF5C4700202B
:1042400080B588B000AFF8607A601A460B46FB7202
:104250001346BB7207F1140300221A6004330022D4
:104260001A60043300221A600433FB7A7B75BB7A30
:10427000BB757B68BB6197F82830002B01D02023E9
:1042800000E0002307F11402F86811461A46FFF710
:10429000ABFF034618462037BD4680BD80B588B0C9
:1042A00000AFF8607A601A460B46FB721346BB7289
:1042B00007F1140300221A60043300221A60043349
:1042C00000221A60043301233B75FB7A7B75BB7AAD
:1042D000BB757B68BB6107F11403F86819460022BF
:1042E000FFF782FF034618462037BD4680BD00BF5A
:1042F000B0B58AB002AF786039603B6803F1230142
:104300003B6803F126053B68DC693B6893F8202095
:104310003B6893F821300092019378682A4623463F
:10432000FFF714FD0346002B00D07CE03B6893F8B8
:10433000233083F00103DBB2002B3FD03B681B7BB3
:10434000022B03D03B681B7B032B37D13B68DA6918
:104350003B681B699A4231D13B685A693B68DA6114
:104360003B68DA7B3B6883F820203B689B6903F05D
:104370002003002B14BF01230023DAB23B6883F82B
:1043800021203B681B7B032B0ED13B68DA693B681D
:1043900093F820403B6893F821300093386879689F
:1043A0002346FFF78BFD3EE03B68DA693B6893F8F4
:1043B000203038687968FFF709FE34E03A6807F181
:1043C00010030C3207CA83E807003B6893F82330D8
:1043D000002B13D07868FFF77DF9F861FB6903F0D3
:1043E0000203002B02D001233B7306E0FB6903F0BC
:1043F0000403002B01D002233B7301E000233B7335
:104400003B68002283F824203B689B6903F0040387
:10441000002B08D13B681B683A68526807F10C0111
:104420000846114698472037BD46B0BD80B500AF5D
:1044300002480349FFF75CFF80BD00BF0030004029
:104440005C47002080B588B000AF78600023FB7720
:104450004CE02A4B1A68FB7FDB001344BB61BB694D
:104460001B781A46012393407B61254B1A687B69B0
:104470001340002B37D07B69DA43214B1B68134074
:104480001F4A1360BB691B781846FDF71FFF0346E0
:10449000FB74BB691B781A46012393401A46194BDB
:1044A0001B681340FA7CB96909788A4093421AD193
:1044B000FB7CBA695278012A0CBF01220022D2B2D9
:1044C00093420CBF01230023DBB2FB60BB695B6836
:1044D000002B08D0BB695B68BA691178FA68D2B260
:1044E000084611469847FB7F0133FB77064B1B7844
:1044F000FA7F9A42ADD32037BD4680BD8447002065
:10450000B4470020B04700208847002080B584B021
:1045100000AF78600B46FB707B68012202FA03F360
:10452000FB601E4B184604F047F8B860BB68002BD0
:1045300000D030E01A4B1A68FB681340002B23D1DF
:104540007868FDF7C3FE0346002B06D0154B1A68AA
:10455000FB681343134A136006E0FB68DA43114B10
:104560001B6813400F4A13600D4B1A68FB68134316
:104570000B4A1360094A0C4B1B681046194600226F
:1045800003F0E6FFB86006E0FB68DA43044B1B6803
:104590001340034A13601037BD4680BD904700208A
:1045A000B4470020B04700208C47002080B588B079
:1045B00000AFF8600B467A60FB727B68042B01D871
:1045C00007234AE0FDF760FD034683F00103DBB2F9
:1045D000002B07D0FDF718FDF861FB69002B01D017
:1045E000FB693AE01F4AFB6813601F4AFB7A1370AD
:1045F0001E4A7B6813601E4B00221A601D4B00226E
:104600001A601FE0FB7ADB00FA681344BB610323E6
:104610003B7500237B750023BB750023FB75BB69CD
:104620009B787B75BB691B781A4607F1140310460B
:104630001946114AFDF73AFDF861FB69002B01D0DC
:10464000FB690AE0FB7A5A1EFA72002BDAD10B489A
:1046500000210B4A03F048FF034618462037BD46A9
:1046600080BD00BF84470020884700208C47002081
:10467000B0470020B44700200D45020070960400AA
:104680004544020080B582B000AF00237B600CE09F
:104690000B4B1A687B68DB0013441B78184601211A
:1046A000FDF75EFD7B6801337B60064B1B781A4685
:1046B0007B689A42ECD8002318460837BD4680BD77
:1046C000844700208847002080B483B000AF786022
:1046D0007B6803F00303002B0CBF01230023DBB234
:1046E00018460C37BD465DF8047B704780B483B034
:1046F00000AF0346FB71064B1A78FB791343DAB21D
:10470000034B1A700C37BD465DF8047B704700BF41
:10471000B847002080B483B000AF0346FB71FB793B
:10472000DB43DAB2064B1B78DBB21340DBB2DAB202
:10473000034B1A700C37BD465DF8047B704700BF11
:10474000B847002080B483B000AF0346FB71084B2C
:104750001A78FB791340DBB2002B14BF012300232E
:10476000DBB218460C37BD465DF8047B704700BFCE
:10477000B847002080B584B000AF78600023FB60AC
:104780000EE00A4AFB6852F82330002B05D0074A96
:10479000FB6852F8233078689847FB680133FB6068
:1047A000FB68072BEDD91037BD4680BDBC47002004
:1047B00080B483B000AF786039607B681B78013BC0
:1047C000052B5BD801A252F823F000BFE547020099
:1047D000ED4702000D4802003F4802005F4802001A
:1047E000754802003B6800221A7048E03B680122CD
:1047F0001A707B681A893B689A817B689A883B6843
:10480000DA817B68DA683B689A6038E03B680222AC
:104810001A707B681A893B689A817B689A883B6822
:10482000DA817B68DA683B689A607B681B7C062BC0
:104830000CBF01230023DAB23B681A741FE03B6807
:1048400003221A707B68DA883B689A817B681A8930
:104850003B68DA817B68DA683B689A600FE03B6806
:1048600004221A707B68DA883B689A813B680022D0
:10487000DA8104E03B6805221A7000E000BF0C37C3
:10488000BD465DF8047B704780B483B000AF7860AC
:104890007B689B884FF6FF72934205D07B681B882C
:1048A000002B01D0012300E0002303F00103DBB261
:1048B00018460C37BD465DF8047B704780B582B062
:1048C00000AF78607B68002B11D00D4B1A687B68B5
:1048D0009A420CD80A4B5A687B689A4207D3786888
:1048E000FFF7F2FE0346002B01D0012300E0002376
:1048F00003F00103DBB218460837BD4680BD00BF98
:104900004044002080B584B000AF78603960002357
:10491000FB6012E0FB68DB007A6813441B681846F2
:10492000FFF7D2FE034683F00103DBB2002B01D078
:10493000002307E0FB680133FB60FA683B689A429A
:10494000E8D3012318461037BD4680BD80B483B03C
:1049500000AF78607B681B680C4A934201D0032348
:104960000DE07B6804331B68094A934204D0094A6E
:10497000934203D1012302E0002300E00323184601
:104980000C37BD465DF8047B704700BFDEC0ADDE6E
:10499000FE011EF1FF011EF180B485B000AF78600A
:1049A0000023FB600CE0FB689B007A6813441B68E3
:1049B000B3F1FF3F01D0002307E0FB680133FB6048
:1049C000FB68B3F5806FEED3012318461437BD465C
:1049D0005DF8047B704700BF80B483B000AF03462E
:1049E0000A46FB801346BB80FB880F4A1B01134419
:1049F00008331A88BB881344BB80FB880A4A1B0112
:104A0000134408335A88BB881344BB80BB8840F2E8
:104A1000FF32934294BF01230023DBB218460C37C8
:104A2000BD465DF8047B7047D848002080B485B04F
:104A300000AF786039600A23FB6000237B811AE0B5
:104A40007B89124A1B0113445A683B689A420FD271
:104A50007B890E4A1B0113445B6803F580523B6857
:104A60009A4205D90023FB607B687A891A8005E0A9
:104A70007B8901337B817B89042BE1D9FB68184654
:104A80001437BD465DF8047B704700BFD84800204E
:104A900080B588B000AFF860B9607A60FB6803F554
:104AA0008053BB610023FB77FB680833FB60BB6866
:104AB00002221A8028E0FB687B617869FFF7E4FE38
:104AC000034683F00103DBB2002B02D00123FB7706
