:0200000260009C
:10900000807F00200DF4060035F4060037F40600DA
:1090100039F406003BF406003DF4060000000000B1
:109020000000000000000000000000003FF4060007
:1090300041F406000000000043F4060045F4060079
:1090400047F4060047F4060047F40600D5A70600DB
:1090500047F4060047F4060047F4060047F406000C
:1090600047F4060047F4060047F4060047F40600FC
:1090700047F406003D99060047F4060047F4060051
:1090800047F40600A9EB060047F4060047F4060083
:10909000E5EB060047F4060049F3060047F4060036
:1090A00047F4060047F4060047F4060047F40600BC
:1090B00047F4060047F4060000000000000000002E
:1090C00047F4060047F4060047F4060047F406009C
:1090D00047F4060047F4060047F4060000000000CD
:1090E0000000000000000000000000000000000080
:1090F0000000000000000000000000000000000070
:10910000000000000000000000000000000000005F
:10911000000000000000000000000000000000004F
:10912000000000000000000000000000000000003F
:10913000000000000000000000000000000000002F
:10914000000000000000000000000000000000001F
:10915000000000000000000000000000000000000F
:1091600000000000000000000000000000000000FF
:1091700000000000000000000000000000000000EF
:1091800000000000000000000000000000000000DF
:1091900000000000000000000000000000000000CF
:1091A00000000000000000000000000000000000BF
:1091B00000000000000000000000000000000000AF
:1091C000000000000000000000000000000000009F
:1091D000000000000000000000000000000000008F
:1091E000000000000000000000000000000000007F
:1091F000000000000000000000000000000000006F
:1092000010B5054C237833B9044B13B10448AFF3C0
:1092100000800123237010BDDC2C00200000000022
:1092200050750700084B10B51BB108480849AFF34B
:1092300000800848036803B910BD074B002BFBD022
:10924000BDE81040184700BF00000000507507003F
:10925000E02C0020C02C002000000000154B002B4B
:1092600008BF134B9D46A3F5803A00218B460F465D
:109270001348144A121A0DF0F4F90F4B002B00D0CA
:1092800098470E4B002B00D0984700200021040087
:109290000D000D48002802D00C48AFF300800DF0FF
:1092A0009FF92000290007F07FFE0DF085F900BF2F
:1092B00000000800807F0020000000000000000087
:1092C000DC2C00207C3A00200000000000000000A0
:1092D00075DF7047184600BF76DF7047184600BF3D
:1092E0007ADF7047184600BF7BDF7047184600BF23
:1092F00082B00190019B5A88074B1B889A4207D382
:10930000019B5A88044B5B889A4201D8012300E0F4
:109310000023184602B07047142D002000B587B016
:109320000190274B1B884FF6FF72934244D0254B88
:109330001B780133DAB2234B1A70234B1A7B214B73
:109340001B789A4213D31E4B1B8818461F49FFF700
:10935000BFFF0590059B002B08D01B4B9B69002B82
:1093600004D0194B9B690598984725E024E0154BDC
:1093700000221A70144B1B7C002B11D0104B1B8841
:1093800018463B21FFF7A8FF0490049B002B07D051
:109390000D4B9B69002B03D00B4B9B69049898479E
:1093A000094B5B69002B07D000238DF80C30064B6E
:1093B0005B6903AA1046984707B05DF804FB00BF3D
:1093C0001E2D00201C2D0020F82C0020142D002024
:1093D00030B585B001901C4A019B14461D460FCD47
:1093E0000FC495E8070084E80700184B00221A70A4
:1093F000019B1B68002B0ED0019B1A68144B106850
:10940000516803C31248FFF76BFF0390039B002BC7
:109410000AD0039B15E00E48FFF766FF0390039BFD
:10942000002B01D0039B0CE00A4B4FF6FF721A8011
:10943000094B00221A7009480021094A05F00AFC6C
:109440000346184605B030BDF82C0020482D0020FA
:10945000142D00201E2D00201C2D002094700700CC
:109460001D93060008B5034B184605F055FC03464E
:10947000184608BD282D002000B585B02548FFF707
:1094800037FF034683F00103DBB2002B2FD0224BC2
:109490001B78002B0CD0214B5B69002B26D00023BE
:1094A0008DF804301D4B5B6901AA104698472AE0ED
:1094B0001B4B1B78002B03D1184B5B68039302E016
:1094C000164B9B680393174B18460399002205F02F
:1094D000F1FB0290029B002B08D0104B9B69002BE4
:1094E00004D00E4B9B69029898470CE00BE00B4BA5
:1094F0005B69002B07D001238DF80030074B5B69B7
:109500006A4610469847044B00221A7005B05DF871
:1095100004FB00BF202D0020482D0020F82C002047
:109520001C2D0020282D002000B583B00190019B48
:109530009A880A4B1A800A4A019B103393E8030069
:1095400082E80300074B00221A70074BDB89002BCF
:1095500001D1FFF791FF03B05DF804FB1E2D002041
:10956000202D00201C2D0020F82C002000B585B0F7
:1095700001900D4B4FF6FF721A800C4B00221A70AF
:109580000B4B184605F0C8FB0390039B002B07D03C
:10959000084B9B69002B03D0064B9B6903989847A7
:1095A00005B05DF804FB00BF1E2D00201C2D00201F
:1095B000282D0020F82C002000B585B00190019BDB
:1095C00006330393039B1A88124BDB899A421ED100
:1095D000039B5B89022B1AD1039B0C33184600F0C6
:1095E00063F80346002B02D0FFF746FF0FE00A4B5B
:1095F000184605F091FB0290029B002B07D0054B0B
:109600009B69002B03D0034B9B690298984705B0D8
:109610005DF804FBF82C0020282D002000B583B055
:109620000190064A019B083393E8030082E8030097
:10963000FFF722FF03B05DF804FB00BF202D0020E0
:1096400000B583B00190019B1B88112B0DD0112B0D
:1096500002DC102B05D014E0122B0ED0502B08D0BA
:109660000FE00198FFF760FF0BE00198FFF77EFF26
:1096700007E00198FFF7A0FF03E00198FFF7CEFF96
:1096800000BF03B05DF804FB82B00190019B1B7822
:109690009AB2019B01331B781B029BB213439BB20E
:1096A0009BB2184602B0704700B585B00190019892
:1096B000FFF7EAFF0346ADF80E30BDF80E3003F0B9
:1096C0000103002B14BF01230023DBB2184605B0B1
:1096D0005DF804FB82B003468DF8073007499DF919
:1096E00007305B099DF8072002F01F02012000FAF5
:1096F00002F241F8232002B0704700BF00E100E011
:1097000082B003468DF8073007499DF907305B09A1
:109710009DF8072002F01F02012000FA02F26033D8
:1097200041F8232002B0704700E100E082B0034618
:1097300000918DF807309DF90730002B0CDA0C49A9
:109740009DF8073003F00F03043B009AD2B2520198
:10975000D2B20B441A7609E006499DF90730009A07
:10976000D2B25201D2B20B4483F8002302B0704748
:1097700000ED00E000E100E000B583B003460A46DA
:109780008DF8073013468DF806309DF806309DF9A8
:10979000072010461946FFF7C9FF9DF90730184604
:1097A000FFF7AEFF9DF907301846FFF793FF03B0B0
:1097B0005DF804FB82B001900F4B0222C3F8042530
:1097C00000BF0D4BD3F80034002BFAD00A4A019B9E
:1097D000C2F8083500BF084BD3F80034002BFAD08C
:1097E000054B0022C3F8042500BF034BD3F8003417
:1097F000002BFAD002B0704700E0014086B0039021
:1098000002910192184B0122C3F8042500BF164BA8
:10981000D3F80034002BFAD00023059313E0059B06
:109820009A00039B13441946059B9B00029A13441C
:109830001B680B6000BF0C4BD3F80034002BFAD030
:10984000059B01330593059A019B9A42E7D3064B8A
:109850000022C3F8042500BF034BD3F80034002BCB
:10986000FAD006B0704700BF00E0014082B001901E
:10987000024A019BC2F8083302B0704700D0004092
:1098800082B003468DF80730064BD3F808239DF8C5
:1098900007301340002B14BF01230023DBB218460E
:1098A00002B0704700D0004082B003468DF8073008
:1098B0009DF8073003F1804303F5504301221A60FD
:1098C00002B0704784B00346ADF80630BDF80630EC
:1098D00003F1804303F5504300221A60BDF80630BF
:1098E00003F1804303F550431B680393039B04B0CB
:1098F000704700BF82B00346ADF80630BDF80630B1
:1099000003F1804303F550431B68002B14BF012370
:109910000023DBB2184602B0704700BF024BD3F8F9
:109920000835DBB21846704700D0004008B501206A
:10993000FFF79CFF0420FFF7B7FF08BD00B583B019
:1099400000238DF807300DF10703184605F09CFA47
:1099500005F07CFC034683F00103DBB2002B23D02F
:109960004FF48070FFF7C6FF0346002B1CD0012088
:10997000FFF786FF0346002B16D04FF48070FFF7E9
:10998000A1FFFFF7CBFF03468DF806300DF106036C
:109990000948194603F03EFE074803F021FE03463E
:1099A000002B01D0FFF7C2FF9DF80730184605F0E5
:1099B00075FA03B05DF804FB9870070082B00346A7
:1099C0008DF8073007499DF907305B099DF807209E
:1099D00002F01F02012000FA02F2203341F8232096
:1099E00002B0704700E100E082B001900B468DF8B4
:1099F00003309DF80330019A134401221A6002B02B
:109A0000704700BF84B001900B46ADF80230BDF83E
:109A10000230019A134400221A60BDF80230019A04
:109A200013441B680393039B04B0704782B00190FA
:109A30000B46ADF80230BDF80230019A13441B68A2
:109A4000002B14BF01230023DBB2184602B070477D
:109A500082B001900091019BD3F80022009BDB4370
:109A60001A40019BC3F8002202B0704782B00190F7
:109A70000091019B009AC3F8042302B0704700BF15
:109A800082B001900091019B009AC3F8082302B0B4
:109A9000704700BF82B00190019B0522C3F80025EA
:109AA00002B0704782B00190019B0022C3F80025EC
:109AB00002B0704784B0039002910192039B029A16
:109AC000C3F80825039B019AC3F80C2504B070471E
:109AD00082B001900091019B009AC3F8242502B046
:109AE000704700BF84B00190019BD3F8C434039346
:109AF000019B039AC3F8C424039B184604B0704723
:109B000082B001900B468DF803309DF80320019B35
:109B1000C3F8882502B0704782B00190019BD3F84A
:109B20001835DBB2184602B0704700BF82B0019012
:109B30000B468DF803309DF80320019BC3F81C25CC
:109B400002B0704782B001900091019B009AC3F867
:109B5000002202B0704700BF00B583B003468DF805
:109B600007309DF907301846FFF728FF03B05DF86E
:109B700004FB00BF84B00190019B1B0B8DF80F30DC
:109B80009DF80F305BB2184604B0704782B0019068
:109B90004FF0A043184602B0704700BF00B585B033
:109BA000019001AB1846FFF7F1FF0390019B1A46A5
:109BB000012393400398194600F036F805B05DF88C
:109BC00004FB00BF00B585B0019001AB1846FFF75C
:109BD000DDFF0390019B1A46012393400398194629
:109BE00000F02CF805B05DF804FB00BF00B585B0AF
:109BF000019001AB1846FFF7C9FF0390039800F0EE
:109C00000BF80246019B22FA03F303F00103184606
:109C100005B05DF804FB00BF82B00190019BD3F852
:109C20001035184602B0704782B001900091019B38
:109C3000009AC3F8082502B0704700BF82B00190B7
:109C40000091019B009AC3F80C2502B0704700BF39
:109C500084B00190234B0393019B002B40D0224BF7
:109C60001A680399019B00BF00BF00BF00BF00BF7F
:109C700000BF00BF00BF8A422FD000BF00BF00BF9F
:109C800000BF00BF00BF00BF00BF00BF00BF00BFDC
:109C900000BF00BF00BF00BF00BF00BF00BF00BFCC
:109CA00000BF00BF00BF00BF00BF00BF00BF00BFBC
:109CB00000BF00BF00BF00BF00BF00BF00BF00BFAC
:109CC00000BF00BF00BF00BF00BF00BF00BF00BF9C
:109CD00000BF00BF00BF00BF00BF013BC3D1019365
:109CE00004B070470024F400042C002084B00190DC
:109CF00003230393019B03F00103002B02D04FF4D5
:109D000002430393019B03F00203002B02D048F2AD
:109D100001230393019B03F00403002B02D048F2BC
:109D200002230393039B184604B0704700B585B027
:109D300001904FF0A042019B1B6803F5E07340F2D5
:109D40000C6142F823104FF0A042019B5B6803F5C1
:109D5000E07340F20C6142F82310019B1B68184627
:109D6000FFF71CFF019B5B681846FFF717FF4FF0DA
:109D7000A042019B1B6803F5E07340F20D6142F8BD
:109D800023104FF0A042019B5B6803F5E07340F2A3
:109D90000D6142F823100420FFF75AFF00230393BC
:109DA0001FE0019B5B681846FFF720FF0346002B6E
:109DB00004D0039B002B00D123E015E0019B1B681E
:109DC0001846FFF7FFFE0420FFF742FF019B1B68C8
:109DD0001846FFF7E3FE0420FFF73AFF039B013329
:109DE0000393039B082BDCDD019B5B681846FFF7A0
:109DF000E9FE0420FFF72CFF019B5B681846FFF784
:109E0000CDFE05B05DF804FB00B589B0039002916A
:109E100001920093039B1B791A4613469B0013443F
:109E2000DB00354A13440793079B93F82230002B3D
:109E300003D008230693069B5AE0079B019A1A60F9
:109E4000079B009A5A60079B00229A60079B00229A
:109E500083F82520079B002283F82420029B9A7B0D
:109E6000079B83F82720029B5B7B002B02D0029884
:109E7000FFF75CFF4FF0A042029B1B6803F5E07305
:109E800040F20C6142F823104FF0A042029B5B6845
:109E900003F5E07340F20C6142F82310039B1B684A
:109EA0000593029B1A68029B5B68059811461A4647
:109EB000FFF700FE029B9B6805981946FFF708FE16
:109EC000079B1B68002B0CD0039B1B681846FFF7F1
:109ED00051FE03461A46029B1B7B10461946FFF7AC
:109EE0004BFC079B012283F8222000230693069B4C
:109EF000184609B05DF804FB7C2D002000B585B044
:109F00000190019B1B791A4613469B001344DB000A
:109F10001C4A13440393039B1B68002B08D0019B2E
:109F20001B681846FFF726FE03461846FFF714FE87
:109F3000019800F045F8039B93F8273083F0010364
:109F4000DBB2002B17D04FF0A042019B1B68D3F867
:109F5000083503F5E07340F2023142F823104FF068
:109F6000A042019B1B68D3F80C3503F5E07340F267
:109F7000023142F82310039B002283F8222005B00F
:109F80005DF804FB7C2D002000B585B00190019B9D
:109F90001B791A4613469B001344DB00074A1344FF
:109FA0000393019B1B6802930298FFF773FD039BC9
:109FB000022283F8222005B05DF804FB7C2D0020EE
:109FC00000B585B00190019B1B791A4613469B0092
:109FD0001344DB000C4A13440393019B1B68029358
:109FE00002984FF0FF31FFF74BFD02984FF0FF3121
:109FF000FFF72EFD0298FFF755FD039B012283F822
:10A00000222005B05DF804FB7C2D002000B585B052
:10A0100003900291009313468DF80730009B1B7844
:10A020009DF807209A4210D9009B1B781A46029B84
:10A0300013441B7803981946FFF778FD009B1B78A3
:10A040000133DAB2009B1A700DE09DF81830002B36
:10A0500005D003981C21FFF7C7FC002304E00398F8
:10A060001421FFF7C1FC0123184605B05DF804FB7D
:10A0700010B584B003900291009313468DF8073019
:10A08000009B1B789DF807209A4227D9009B1B78DC
:10A090001A46029B9C180398FFF73EFD0346237067
:10A0A000009B1B780133DAB2009B1A70009B1B786F
:10A0B0001A469DF80730013B9A4204D103980221C9
:10A0C000FFF740FD06E0009B1B789DF807209A42B1
:10A0D00000D103E003982021FFF786FC04B010BDF7
:10A0E00000B589B00590049103920293049B1B78FC
:10A0F000002B05D1039B1B789DF828209A4201D1A3
:10A10000012300E000238DF81F309DF81F3003F07D
:10A1100001038DF81F30049B1B78002B0FD005988E
:10A120004FF49271FFF76EFC05984FF48E71FFF7B4
:10A1300069FC05984FF48471FFF764FC72E00598A0
:10A140004FF49271FFF772FC0346002B0CD0059878
:10A150004FF49271FFF756FC05981421FFF744FC69
:10A16000049B01221A705DE005984FF48E71FFF791
:10A170005DFC0346002B2BD005984FF48E71FFF742
:10A1800041FC05984FF49271FFF750FC0346002BF9
:10A190000CD005984FF49271FFF734FC0598142108
:10A1A000FFF722FC049B01221A703BE09DF8282057
:10A1B0009DF82C30009305980299039BFFF726FF2A
:10A1C000034683F00103DBB2002B2BD000233DE0DC
:10A1D00005984FF48471FFF729FC0346002B21D02A
:10A1E00005984FF48471FFF70DFC05984FF49271B8
:10A1F000FFF71CFC0346002B0CD005984FF492711E
:10A20000FFF700FC05981421FFF7EEFB049B0122E9
:10A210001A7007E09DF82830059802991A46039BAA
:10A22000FFF726FF9DF81F30002B0ED005984FF446
:10A230008271FFF7FBFB0346002B06D005984FF415
:10A240008271FFF7DFFB002300E00123184609B00D
:10A250005DF804FB10B58AB00590049103928DF867
:10A260000B300023099342F21073079304984FF4C4
:10A270008271FFF7C7FB04984FF49271FFF7C2FB9E
:10A2800004984FF48E71FFF7BDFB04984FF484716E
:10A29000FFF7B8FB04980021FFF754FC059B002250
:10A2A00083F82620059B002283F823200498202190
:10A2B000FFF79AFB04980821FFF796FB059B03F133
:10A2C00026049DF80B209DF83030009304980399E4
:10A2D0002346FFF79BFE059B1B68002B0AD0059BBE
:10A2E00040F286229A60059B9B6804981946FFF706
:10A2F000BDFB34E002E0079B013B0793079B002B6B
:10A3000012DD059B03F12301059B03F126029DF855
:10A310000B3000939DF8303001930498039BFFF7B6
:10A32000DFFE0346002BE6D1059B93F82330002B7C
:10A330000AD00498FFF7D6FB0890089B002B03D0A7
:10A340000898FFF7D3FC0990079B002B07DC0498C3
:10A35000FFF7A8FB0498FFF79DFB03230993099BD4
:10A3600018460AB010BD00BF00B58BB0059004912F
:10A3700003928DF80B300023099342F21073079378
:10A3800004984FF48271FFF73DFB04984FF49271EB
:10A39000FFF738FB04984FF48E71FFF733FB0498F6
:10A3A0004FF48471FFF72EFB059B002283F82620D3
:10A3B000059B002283F823209DF80B30012B04D14C
:10A3C00004980221FFF7BEFB03E004980121FFF788
:10A3D000B9FB04982021FFF707FB04980021FFF741
:10A3E00003FB059B1B68002B0AD0059B40F28622CD
:10A3F0009A60059B9B6804981946FFF737FB33E08A
:10A4000002E0079B013B0793079B002B11DD059B97
:10A4100003F12301059B03F126029DF80B30009305
:10A42000002301930498039BFFF75AFE0346002B79
:10A43000E7D1059B93F82330002B0AD00498FFF74F
:10A4400051FB0890089B002B03D00898FFF74EFCA7
:10A450000990079B002B07DC0498FFF723FB049867
:10A46000FFF718FB03230993099B18460BB05DF80F
:10A4700004FB00BF10B588B00590049103920293CD
:10A480000023079304984FF0FF31FFF7F9FA059B7B
:10A4900093F82430DBB2002B09D0059B9B6804980D
:10A4A0001946FFF7E3FA11230793079B66E0029B27
:10A4B00003F00403002B0CBF01230023DAB2059B39
:10A4C00083F82420029B03F00803002B03D006230B
:10A4D0000793079B52E0059B029A9A61059B039A9A
:10A4E0000C3307CA83E80700039B9A78059B83F81F
:10A4F0002020039B5A68059BDA61039B5B780498D4
:10A500001946FFF7FDFA039B1B78012B20D0039B14
:10A510001B78002B04D1029B03F02003002B01D0F9
:10A52000012300E0002303F00103DAB2059B83F866
:10A530002120039B5A68039B9C78059B93F821304C
:10A540000093059804992346FFF784FE07900CE0DA
:10A55000059B002283F82120039B5A68039B9B786C
:10A5600005980499FFF700FF0790059B1B68002BD7
:10A5700003D1059B002283F82420079B184608B0CE
:10A5800010BD00BF00B587B0039002910192002377
:10A590000593039B1B791A4613469B001344DB006B
:10A5A0000C4A13440493019B03F00303002B03D0D4
:10A5B00006230593059B09E0039B1B680498194635
:10A5C000029A019BFFF756FF0590059B184607B0BE
:10A5D0005DF804FB7C2D002000B589B0039001924A
:10A5E0001A460B468DF80B3013468DF80A3005AB32
:10A5F00000221A60043300221A60043300221A6019
:10A6000004339DF80B308DF815309DF80A308DF825
:10A610001630019B06939DF82830002B01D0202393
:10A6200000E0002305AA039811461A46FFF7AAFF87
:10A630000346184609B05DF804FB00BF00B589B0B9
:10A64000039001921A460B468DF80B3013468DF895
:10A650000A3005AB00221A60043300221A6004336A
:10A6600000221A60043301238DF814309DF80B305A
:10A670008DF815309DF80A308DF81630019B069341
:10A6800005AB039819460022FFF77CFF03461846E6
:10A6900009B05DF804FB00BF30B58BB003900291A8
:10A6A000029B03F12301029B03F12605029BDC6957
:10A6B000029B93F82020029B93F821300092019393
:10A6C00003982A462346FFF70BFD0346002B00D0D4
:10A6D0007DE0029B93F8233083F00103DBB2002B73
:10A6E0003FD0029B1B7B022B03D0029B1B7B032BC7
:10A6F00037D1029BDA69029B1B699A4231D1029BD6
:10A700005A69029BDA61029BDA7B029B83F8202064
:10A71000029B9B6903F02003002B14BF012300233D
:10A72000DAB2029B83F82120029B1B7B032B0ED104
:10A73000029BDA69029B93F82040029B93F8213038
:10A740000093029803992346FFF784FD3FE0029BA4
:10A75000DA69029B93F8203002980399FFF704FE10
:10A7600035E0029A06AB0C3207CA83E80700029B69
:10A7700093F82330002B15D00398FFF7B3F9099015
:10A78000099B03F00203002B03D001238DF8143042
:10A7900007E0099B03F00403002B02D002238DF88D
:10A7A000143002E000238DF81430029B002283F85D
:10A7B0002420029B9B6903F00403002B07D1029B1A
:10A7C0001B68029A526805A90846114698470BB0C3
:10A7D00030BD00BF08B502480249FFF75DFF08BD64
:10A7E000003000407C2D00206CDF7047184600BF11
:10A7F0006DDF7047184600BF72DF7047184600BF14
:10A8000073DF7047184600BF74DF7047184600BFFB
:10A8100076DF7047184600BF7ADF7047184600BFE2
:10A820007CDF7047184600BF7DDF7047184600BFC9
:10A830007FDF7047184600BF86DF7047184600BFAD
:10A840008FDF7047184600BFA0DF7047184600BF73
:10A85000A2DF7047184600BFA5DF7047184600BF4B
:10A86000A6DF7047184600BFA8DF7047184600BF34
:10A87000A9DF7047184600BFADDF7047184600BF1C
:10A8800069DF7047184600BF62DF7047184600BF97
:10A8900066DF7047184600BF82B001900091019BAF
:10A8A000DAB2009B1A70009B0133019A02F47F42D6
:10A8B000120AD2B21A70009B0233019A02F47F028C
:10A8C000120CD2B21A70009B0333019A120ED2B24C
:10A8D0001A700423184602B0704700BF82B001907E
:10A8E000019B1B789AB2019B01331B781B029BB220
:10A8F00013439BB29BB2184602B0704782B00190DE
:10A90000019B1B781A46019B01331B781B021A43DB
:10A91000019B02331B781B041A43019B03331B78F2
:10A920001B061343184602B0704700BF13DF704781
:10A93000184600BF82B001904FF0A043184602B005
:10A94000704700BF00B585B00190084611461A4611
:10A9500003468DF803300B468DF8023013468DF810
:10A96000013001AB1846FFF7E5FF0390019A9DF80F
:10A9700003109DF802305B0019439DF801309B00E5
:10A9800019439DF818301B0219439DF81C301B0415
:10A990001943039B02F5E07243F8221005B05DF8FD
:10A9A00004FB00BF00B585B0039000230093002393
:10A9B00001930398012101220023FFF7C3FF05B093
:10A9C0005DF804FB00B585B0019001AB1846FFF7B8
:10A9D000B1FF0390019B1A46012393400398194647
:10A9E00000F018F805B05DF804FB00BF00B585B0B5
:10A9F000019001AB1846FFF79DFF0390019B1A469B
:10AA0000012393400398194600F00EF805B05DF855
:10AA100004FB00BF82B001900091019B009AC3F833
:10AA2000082502B0704700BF82B001900091019BE1
:10AA3000009AC3F80C2502B0704700BF00B583B080
:10AA40000190019806F0A0FA03B05DF804FB00BF86
:10AA500000B589B001AB00221A60043300221A60ED
:10AA6000043300221A60043300221A6004330022E7
:10AA70001A60043300221A60043300221A6004337F
:10AA800040F6CD4302934FF48043039303238DF8A4
:10AA900010300023ADF8123000238DF81430054B30
:10AAA000079301AB1846FEF793FC0346184609B01E
:10AAB0005DF804FB3DAA060000B58BB003468DF897
:10AAC00007300923ADF82630BDF82630C3F1140352
:10AAD000ADF82430BDF82430ADF81E3002238DF8D7
:10AAE000083001238DF809309DF807308DF80A30C1
:10AAF00003238DF80B3002238DF80C3059238DF889
:10AB00000D30FE238DF80E3002AB03F109020DF17A
:10AB10001E0310461946FFF787FE0890089B002B7E
:10AB200001D0089B2FE0BDF81E30BDF824209A42CA
:10AB300011D3BDF81E30DBB20133DBB28DF80F301C
:10AB400009238DF81030BDF81E20BDF826301344BF
:10AB5000ADF826300CE0BDF82430DBB20133DBB2B7
:10AB60008DF80F3008238DF810301423ADF82630FF
:10AB7000BDF82630DBB202AA104619460022002397
:10AB8000FFF73AFE034618460BB05DF804FB00BF22
:10AB900000B587B0204B1B6803F00203002B01D0E7
:10ABA000002334E001AB1846002110220BF059FDC0
:10ABB0000620FFF781FF0590059B002B01D0059B28
:10ABC00025E000238DF804300023029300238DF844
:10ABD0000C302823ADF80E300023ADF8103001AB57
:10ABE00018460021FFF70CFE0590059B002B01D0B5
:10ABF000059B0CE01120FFF7F9FE1220FFF7E2FEA3
:10AC0000054B1B6843F00203034A136000231846F8
:10AC100007B05DF804FB00BFBC2D002000B583B079
:10AC20000E4B1B6803F00203002B01D1002311E03F
:10AC3000FFF7EAFD0190019B002B01D0019B09E089
:10AC40001120FFF7BFFE054B1B6843F00203034AC8
:10AC500013600023184603B05DF804FBBC2D0020F0
:10AC600000B587B0019000230293002303930223D1
:10AC7000ADF8083004AB03930E4B1988019B1A8A78
:10AC800002AB084611461A46FFF7E6FD0590059B04
:10AC9000002B06D0059B002B14BF01230023DBB241
:10ACA00004E004AB1846FEF7FFFC0346184607B065
:10ACB0005DF804FB002C002000B587B00346ADF81A
:10ACC00006300B46ADF804301346ADF8023002AB47
:10ACD00000221A60043300221A60043300221A6032
:10ACE000043300221A600433BDF80430ADF8083094
:10ACF00001238DF80A300DF102030493064B0593EE
:10AD0000BDF8062002AB10461946FFF7A9FD034621
:10AD1000184607B05DF804FBC02D002010B584B0C4
:10AD200001900B468DF8033013468DF80230002356
:10AD3000ADF80E30019B002B01D10E2349E0264BCC
:10AD40001B884FF6FF72934205D0244B1B6803F01B
:10AD50000103002B01D108233BE0BDF80E305A1C43
:10AD6000ADF80E201A461E4B60219954BDF80E30E6
:10AD70005A1CADF80E201946194A9DF80330535459
:10AD8000BDF80E305A1CADF80E201946144A9DF835
:10AD9000023053549DF802300B2B0ED1BDF80E300B
:10ADA0005A1CADF80E201C4601F01CF903461A4649
:10ADB0000B4B1A55002001F007F9074B1988019B2E
:10ADC0009A89BDF80E30084611461A46FFF774FFFF
:10ADD0000346184604B010BD002C0020BC2D0020F6
:10ADE000C02D002000B587B003900291019200238E
:10ADF000ADF81630039B002B01D10E2352E02B4BF4
:10AE00001B884FF6FF72934205D0294B1B6803F055
:10AE10000103002B01D1082344E0BDF816305A1C71
:10AE2000ADF816201A46234B60219954BDF8163010
:10AE30005A1CADF816201A461E4B03219954BDF832
:10AE400016305A1CADF816201A461A4B0121995497
:10AE5000BDF81630174A134402981946FFF71CFD37
:10AE600003469AB2BDF816301344ADF81630BDF85B
:10AE70001630104A134401981946FFF70DFD03469A
:10AE80009AB2BDF816301344ADF81630074B198846
:10AE9000039B9A89BDF81630084611461A46FFF7FB
:10AEA0000BFF0346184607B05DF804FB002C00209A
:10AEB000BC2D0020C02D002000B587B0039002916A
:10AEC000019200930023ADF81630039B002B01D1B3
:10AED0000E2361E0324B1B884FF6FF72934205D080
:10AEE000304B1B6803F00103002B01D1082353E012
:10AEF000BDF816305A1CADF816201A462A4B6021B0
:10AF00009954BDF816305A1CADF816201A46264B37
:10AF100006219954BDF816305A1CADF816201A4671
:10AF2000214B01219954BDF816301F4A1344029851
:10AF30001946FFF7B1FC03469AB2BDF81630134428
:10AF4000ADF81630BDF81630174A1344019819466B
:10AF5000FFF7A2FC03469AB2BDF816301344ADF8D1
:10AF60001630BDF81630104A134400981946FFF702
:10AF700093FC03469AB2BDF816301344ADF8163070
:10AF8000074B1988039B9A89BDF81630084611466D
:10AF90001A46FFF791FE0346184607B05DF804FB1A
:10AFA000002C0020BC2D0020C02D002000B58BB04F
:10AFB0000190009103AB00221A60043300221A6052
:10AFC000043300221A60043306AB184600210C2219
:10AFD0000BF047FB009B1B7B013B052B00F2C7805E
:10AFE00001A252F823F000BF01B006008BB00600AA
:10AFF000C9B006005FB006006FB106000FB10600D1
:10B00000009B5B89062B06D0019801210322FFF7E4
:10B0100085FE0346B3E05C4B1A885C4B1A80009BAC
:10B020005B7B0793009B0E331846FFF767FC0346D4
:10B03000089301238DF8183006AA03AB00201146AF
:10B040001A4607F08FF803468DF827309DF8273011
:10B05000019801211A46FFF761FE03468FE00323A2
:10B060008DF8183006AA03AB002011461A4607F0E7
:10B0700079F803468DF827309DF827300198042190
:10B080001A46FFF74BFE034679E0009B5B89032BD2
:10B0900006D0019802210322FFF740FE03466EE02E
:10B0A000009B0D331846FFF719FC03461A46364B32
:10B0B0001A80354B1A88354B1A80019802210122DB
:10B0C000FFF72CFE03465AE004238DF8183006AA39
:10B0D00003AB002011461A4607F044F803468DF8EA
:10B0E00027309DF82730012B08D1049A059B019841
:10B0F00011461A46FFF776FE034640E09DF82730DA
:10B10000019803211A46FFF709FE034637E0009B2A
:10B110005B89022B06D0019806210322FFF7FEFD72
:10B1200003462CE0009B5B7B079306238DF81830C9
:10B1300006AA03AB002011461A4607F013F803468F
:10B140008DF827309DF82730012B07D10399049AF9
:10B15000059B0198FFF7B0FE034610E09DF82730ED
:10B16000019806211A46FFF7D9FD034607E0009B28
:10B170001B7B019819460322FFF7D0FD03461846B2
:10B180000BB05DF804FB00BFB82D0020BA2D0020E5
:10B1900000B58BB00190009103AB00221A6004331C
:10B1A00000221A60043300221A60043300221A605D
:10B1B0000433009B06330993009B08330893099BD3
:10B1C0001B78022B4DD1099B5A88019B9B899A427F
:10B1D00047D1099B1B7A042B43D0099B1B7A062B72
:10B1E0003FD0099B1B7A052B3BD002238DF80C30F6
:10B1F0009DF8123043F001038DF81230089B1B8933
:10B20000ADF81430089B5B89ADF81630089B0C3301
:10B2100006930198FFF724FD034683F00103DBB298
:10B22000002B0CD040F2FD13ADF810300F4B1A88F4
:10B2300003AB10461946FFF717FB002312E000236B
:10B24000ADF81030094B1A8803AB10461946FFF7CA
:10B250000BFB0790079B002B0CBF01230023DBB2E5
:10B2600000E0002318460BB05DF804FB002C002022
:10B2700000B58BB001900091009BDA88019B9B8800
:10B280009A423BD103AB00221A60043300221A60B9
:10B29000043300221A60043306AB184600210C2246
:10B2A0000BF0DFF902238DF81830009B123307935F
:10B2B000009B1B8A089306AA03AB002011461A467E
:10B2C00006F050FF03468DF827300E4B1B88002BED
:10B2D00014D00D4B1B88013B9AB20B4B1A800A4BC2
:10B2E0001B88002B0AD1049A059B019811461A4627
:10B2F000FFF778FD034B1A88034B1A800BB05DF8FB
:10B3000004FB00BFB82D0020BA2D002000B58FB07F
:10B310000190019B1B88013B562B00F2758101A215
:10B3200052F823F019B5060009B6060009B6060062
:10B3300009B6060009B6060009B6060009B60600F9
:10B3400009B6060009B6060009B6060009B60600E9
:10B3500009B6060009B6060009B6060009B60600D9
:10B3600081B40600A3B4060009B60600C9B40600FD
:10B3700063B5060009B6060009B6060009B6060060
:10B3800009B6060009B6060009B6060009B60600A9
:10B3900009B6060009B6060009B6060009B6060099
:10B3A00009B60600DBB5060009B6060009B60600B8
:10B3B00009B6060009B6060009B6060009B6060079
:10B3C00009B6060009B6060009B6060009B6060069
:10B3D00009B6060009B6060009B6060009B6060059
:10B3E00009B6060009B6060009B6060009B6060049
:10B3F00009B6060009B6060009B6060009B6060039
:10B4000009B6060009B6060009B6060009B6060028
:10B4100009B6060009B6060009B6060009B6060018
:10B4200009B6060009B6060009B6060009B6060008
:10B4300009B6060009B6060009B6060009B60600F8
:10B4400009B6060009B6060009B6060009B60600E8
:10B4500009B6060009B6060009B6060009B60600D8
:10B46000AFB506003BB5060089B5060009B6060073
:10B4700009B60600B9B50600EFB40600C3B406006D
:10B480001220FFF7B3FA1120FFF79CFA019B9A886C
:10B490005F4B1A805F4B1B6823F002035D4A136009
:10B4A000B3E0FFF775FB0D900D9B0C930C9B002BED
:10B4B00002D00C9805F068FD554B4FF6FF721A80CC
:10B4C000A3E005F0C9FEA0E0514B1B88184685217A
:10B4D00000220023FFF7ACF90D900D9B0B930B9B03
:10B4E000002B03D00B9805F04FFD8EE08DE0019B03
:10B4F0009B79002B0FD1464B1B8818461321FFF771
:10B5000087F90D900D9B0A930A9B002B03D00A9894
:10B5100005F03AFD79E078E03D4B1B8818460021A4
:10B52000FFF7B6F90D900D9B0993099B002B03D0F3
:10B53000099805F029FD68E067E0019B9B79002BE5
:10B540000ED035480199FFF723FE0346002B07D0A4
:10B55000019B083330481946FFF728FD0D9054E051
:10B5600053E0019B9B881846002100220023FFF72F
:10B5700063F90D900D9B0893089B002B03D008984E
:10B5800005F002FD41E040E0019B9B881846002148
:10B5900000220023FFF76CF90D900D9B0793079B8A
:10B5A000002B03D0079805F0EFFC2EE02DE01A48A1
:10B5B0000199FFF75DFE28E0019B9B881846172143
:10B5C000FFF75AF90D900D9B0693069B002B03D0B5
:10B5D000069805F0D9FC18E017E000230393002338
:10B5E0000493019B9A8803AB104619460022FFF78B
:10B5F00027F90D900D9B0593059B002B03D0059813
:10B6000005F0C2FC01E000E000BF0FB05DF804FBF4
:10B61000002C0020BC2D0020A42D002000B583B0FC
:10B6200001900198FEF70CF80198FFF76FFE03B048
:10B630005DF804FB08B51120FFF7B4F91220FFF7FD
:10B64000B1F91120FFF7BEF91220FFF7BBF908BDD1
:10B6500000B585B001AB1846FFF7CAF80390039B0D
:10B66000002B01D0039B10E09DF805300133DBB2C5
:10B670008DF8053001AB1846FFF7B6F80390039B31
:10B68000002B01D0039B00E00023184605B05DF8B5
:10B6900004FB00BF00B585B0002301930023029393
:10B6A0009DF80030012262F303038DF800309DF80D
:10B6B0000030012262F307138DF80030FFF7C8FF56
:10B6C0000390039B002B01D0039B23E013480AF057
:10B6D000D0FF03469BB26A46104610491A46FFF750
:10B6E0009FF80390039B002B01D0039B12E00C23D7
:10B6F000ADF804301823ADF806300023ADF808305B
:10B700004FF4C873ADF80A3001AB1846FFF784F860
:10B710000390039B184605B05DF804FBAC7007006E
:10B7200000B58FB003468DF80730414A07AB10686B
:10B7300018609DF80730002B07D000F0ABFC0D908F
:10B740000D9B002B01D00D9B6EE03A4B1846FFF786
:10B75000EDF80D900D9B002B01D00D9B64E007AB25
:10B76000184635495022354B03F078FD0C900C9B60
:10B770000B930B9B002B02D00B9805F005FC0023CC
:10B78000069306AB184603F0FBFD0D900D9B0A9344
:10B790000A9B002B02D00A9805F0F6FB03AB184673
:10B7A00000210C220AF05DFF01238DF80C300023EC
:10B7B0008DF80D3000238DF80E30069B03AA402033
:10B7C00011461A46FFF75CF80D900D9B0993099BF3
:10B7D000002B02D0099805F0D7FB0D9B002B01D060
:10B7E0000D9B21E003AB184600210C220AF039FF23
:10B7F0009DF80C306FF300038DF80C30069B03AA04
:10B80000A02011461A46FFF73BF80D900D9B0893B8
:10B81000089B002B02D0089805F0B6FB06AB184633
:10B8200003F0BEFD0D900D9B18460FB05DF804FBB4
:10B83000B870070000900600D42D0020F5F3060034
:10B8400000B591B0019009AB00221A6004330022C8
:10B850001A60043300221A60043300221A60043391
:10B8600000221A60043300221A60043300221A6096
:10B87000043304AB00221A60043300221A6004333C
:10B8800000221A60043300221A60043300221A6076
:10B8900004330023ADF80C3000238DF80E309DF8F2
:10B8A000243043F004038DF82430019B9B788DF8FD
:10B8B0000A300223ADF808309DF80C306FF3030313
:10B8C0008DF80C309DF80C306FF307138DF80C30A9
:10B8D0009DF80D30012262F303038DF80D309DF8C1
:10B8E0000D30012262F307138DF80D309DF80E30F4
:10B8F000012262F342038DF80E309DF80E3043F0C2
:10B9000001038DF80E3002AB049303AB05931423AF
:10B91000ADF81C3000230893019B1888019B043369
:10B9200009A904AAFEF794FF0346184611B05DF872
:10B9300004FB00BF00B591B0019009AB00221A6072
:10B94000043300221A60043300221A6004330022F8
:10B950001A60043300221A60043300221A60043390
:10B9600000221A60043304AB00221A600433002260
:10B970001A60043300221A60043300221A60043370
:10B9800000221A6004330023ADF80C3000238DF838
:10B990000E309DF8243043F008038DF824309DF8D4
:10B9A000243043F010038DF82430019B9B788DF8F0
:10B9B0000A300123ADF808309DF80C306FF3030313
:10B9C0008DF80C309DF80C306FF307138DF80C30A8
:10B9D0009DF80D30012262F303038DF80D309DF8C0
:10B9E0000D30012262F307138DF80D309DF80E30F3
:10B9F000012262F342038DF80E309DF80E3043F0C1
:10BA000010038DF80E309DF80E3043F001038DF8D1
:10BA10000E3002AB049303AB05931723ADF81C3033
:10BA200000230893019B1888019B0C3309A904AAE1
:10BA3000FEF70EFF0346184611B05DF804FB00BF89
:10BA400010B588B00190019B002B01D10E2344E07A
:10BA5000234B4FF6FF721A8001238DF81A304FF6F0
:10BA60005963ADF81830019B06AA012011461A4609
:10BA7000FEF7EAFE0790079B002B01D0079B2CE006
:10BA8000184B02AC186859689A68DB680FC4019BB0
:10BA9000023302AA10461946FEF7F6FE0790079BEE
:10BAA000002B01D0079B18E00198FFF7C9FE079013
:10BAB000079B002B01D0079B0FE00198FFF73AFF8F
:10BAC0000790079B002B01D0079B06E0064B1B68E5
:10BAD00043F00103044A13600023184608B010BD68
:10BAE000002C0020BC700700BC2D002000B583B0E6
:10BAF0001E4B1B681D4A1360FFF79CFD0120FFF7DA
:10BB00000FFE0190019B002B01D0019B2AE01848F9
:10BB100003F0FAFB0190019B002B01D0019B21E077
:10BB2000FFF7B8FD0190019B002B01D0019B19E0AC
:10BB30001048FFF785FF0190019B002B01D0019B6E
:10BB400010E0FEF785FF0190019B002B01D0019BC7
:10BB500008E0FFF71DF80190019B002B01D0019B2D
:10BB600000E00023184603B05DF804FBBC2D002064
:10BB70001DB60600A42D002000B583B0002301935C
:10BB8000134B1B884FF6FF7293420BD0104B1B8850
:10BB900018461321FEF73CFE0190019B002B0FD0AD
:10BBA000019B10E00B4B1B6803F00203002B07D036
:10BBB000FFF734F80190019B002B01D0019B02E0BC
:10BBC000FDF750FC019B184603B05DF804FB00BF75
:10BBD000002C0020BC2D0020BFF34F8F0549054BE2
:10BBE000DB6803F4E062044B1343CB60BFF34F8F79
:10BBF00000BFFDE700ED00E00400FA053EDF7047FE
:10BC0000184600BF00B583B00190FFF7E5FF03B011
:10BC10005DF804FB00B583B002F0E8FF0190019BE2
:10BC2000002B02D0019805F0AFF907480021074A20
:10BC300003F010F80090009B002B02D0009805F054
:10BC4000A3F903B05DF804FBCC70070005BC060047
:10BC500000B583B008201421074A01F0DBFD0190F4
:10BC6000019B0093009B002B02D0009805F08CF9FB
:10BC700003B05DF804FB00BF242E002008B5FFF7D9
:10BC8000BDFF01F08DFEFAE708B5FFF7B7FF01F041
:10BC900087FE08BD00B583B0002301930023009305
:10BCA00000F0D4FAFFF7B6FF6B46184600F0B2FD7D
:10BCB0000190019B002B01D00123009305F04AFA6B
:10BCC0000346002B01D0012300934FF08043002254
:10BCD000C3F81C25009B002B07D100F0CFFD0346C5
:10BCE00083F00103DBB2002B0DD0FFF7B1FF00F0B2
:10BCF00035FB0190019B002B01D0019B0FE006F06A
:10BD0000D7F9FFF7BBFF00F0B9FD0346002B05D0C4
:10BD100043F208031B68184600F06CFE0023184627
:10BD200003B05DF804FB00BF00B583B001900B4683
:10BD30008DF80330124B1B6823F00103104A136087
:10BD40009DF80330002B06D10D4B1B6823F0020336
:10BD50000B4A136005E00A4B1B6843F00203084AD4
:10BD60001360019B5B68002B06D0019B5B689DF80C
:10BD7000032001981146984703B05DF804FB00BF0B
:10BD8000742F002000B585B003468DF807300023DE
:10BD900003939DF80730002B13D001F0CBFA034634
:10BDA000002B01D0082310E00A4803F0BDFA0390ED
:10BDB000039B002B01D0082307E0074B04221A60E5
:10BDC00002E0054B00221A60039B184605B05DF89F
:10BDD00004FB00BFEDD40600742F002010B58CB01A
:10BDE000059004910392029300238DF82F30334B7A
:10BDF0001B6803F00403002B28D0304B1B6803F0B2
:10BE00000203002B01D00A2354E02C4B1B6843F0A3
:10BE100001032A4A1360039B9CB2029B00932848AB
:10BE20000599049A234601F091FA03468DF82F30C4
:10BE30009DF82F30002B02D09DF82F303AE01F4B99
:10BE40001B6843F001031D4A136031E0049B002B83
:10BE500002D0059B002B01D103232BE0049B03F0B0
:10BE60000303002B04D1059B03F00303002B01D037
:10BE700006231FE0039B002B01D104231AE0059B3E
:10BE800018460499039AFDF7B9FC029B002B0FD0CA
:10BE900000238DF81C30029B0893059B0993039B9C
:10BEA0009BB2ADF8283007AA029B104600219847A4
:10BEB0009DF82F3018460CB010BD00BF742F002025
:10BEC000C42C002000B58BB0039002910192002396
:10BED0008DF827303A4B1B6803F00403002B2CD05D
:10BEE000374B1B6803F00203002B01D00A2362E0EA
:10BEF000334B1B6843F00103314A1360029B9BB232
:10BF0000304803991A46019B01F08CFA03468DF8DC
:10BF100027309DF82730002B08D0294B1B6823F0D1
:10BF20000103274A13609DF8273044E0244B1B6827
:10BF300043F00103224A13603BE0039BC3F30B036E
:10BF4000002B01D0062336E0039B1B0BADF82430F9
:10BF5000039B1846FDF72EFC039B03F580530393C8
:10BF6000029B013B0293029B002BF1D1019B002B12
:10BF70001FD005AB00221A60043300221A6004337C
:10BF800000221A60043300221A60043301238DF862
:10BF90001430019B0693BDF82430ADF81C30039B90
:10BFA0001B0B9BB2ADF81E3005AA019B1046002169
:10BFB00098479DF8273018460BB05DF804FB00BF8A
:10BFC000742F0020C42C002082B003468DF8073067
:10BFD000034A9DF8073013700B23184602B07047D0
:10BFE000782F002082B0064B1B788DF80730044B69
:10BFF00000221A709DF80730184602B0704700BF43
:10C00000782F002018DF7047184600BF00B589B0B0
:10C0100001900091009B9B08079302AB00221A60DD
:10C02000043300221A60043300221A600433002211
:10C030001A600433019B0393079B049302AB1846D9
:10C04000FFF7E0FF0690069B184609B05DF804FB79
:10C0500000B58BB0039002910192019B9B0809935C
:10C06000099BC3F30903002B01D009230DE0012331
:10C070000493029B0593039B0693099B079304ABD0
:10C080001846FFF7BFFF0890089B18460BB05DF8F5
:10C0900004FB00BF00B587B001AB00221A60043377
:10C0A00000221A60043300221A60043300221A604E
:10C0B00004330223019301AB1846FFF7A3FF059059
:10C0C000059B184607B05DF804FB00BF00B58BB0B8
:10C0D000039002910192019B9B080993032304930F
:10C0E000039B0593029B0693099B079304AB184699
:10C0F000FFF788FF0890089B18460BB05DF804FB1B
:10C1000084B00190234B0393019B002B40D0224B22
:10C110001A680399019B00BF00BF00BF00BF00BFAA
:10C1200000BF00BF00BF8A422FD000BF00BF00BFCA
:10C1300000BF00BF00BF00BF00BF00BF00BF00BF07
:10C1400000BF00BF00BF00BF00BF00BF00BF00BFF7
:10C1500000BF00BF00BF00BF00BF00BF00BF00BFE7
:10C1600000BF00BF00BF00BF00BF00BF00BF00BFD7
:10C1700000BF00BF00BF00BF00BF00BF00BF00BFC7
:10C1800000BF00BF00BF00BF00BF013BC3D1019390
:10C1900004B070470024F400042C002000B583B0E4
:10C1A0000190019B4FF47A7202FB03F31846FFF7EC
:10C1B000A7FF03B05DF804FB00B583B001900B4608
:10C1C0008DF803309DF80330002B02D1084B00227C
:10C1D0001A70084B1B68002B06D0064B1B689DF895
:10C1E000032001981146984703B05DF804FB00BF97
:10C1F000792F00207C2F002008B56420FFF7CEFFA8
:10C2000001F0CEFB08BD00BF08B501E0FFF7F4FF69
:10C21000024B1B78002BF9D108BD00BF792F0020FD
:10C2200008B501E0FFF7E8FF01F0A2F90346002B93
:10C23000F8D108BD08B504485821002200F022FCBE
:10C240000346184608BD00BF1839002000B583B06A
:10C25000164B00221A70164816494FF4AE720AF0B7
:10C26000F5F9134B1B68B3F1FF3F08D0FFF7E2FF6E
:10C2700001900F4B1A68019B9A4200D112E00C48C2
:10C2800000214FF4AE720AF0ECF9094B01225A601A
:10C29000002000F011F80090009B002B02D00098C5
:10C2A00004F072FE03B05DF804FB00BF792F00209C
:10C2B0001439002000F0070000B585B0019000237C
:10C2C0000393FFF7A1FF1F4B01221A701E4A019B27
:10C2D0001360FFF7A5FF1D4801210022FFF7F2FDC3
:10C2E00003460393039B072BF3D0039B002B04D03F
:10C2F000144B00221A70032320E0FFF79BFF024635
:10C30000134B1A60134812494FF4AE720AF09EF9AB
:10C31000FFF786FF0D480F4957220F4BFFF75EFDD1
:10C3200003460393039B072BF2D0039B002B04D0FF
:10C33000044B00221A70032300E00023184605B0C6
:10C340005DF804FB792F00207C2F002000F007000F
:10C3500014390020802F0020B9C1060000B585B037
:10C36000114A124BD31ADB080193002303930023D5
:10C3700002930FE0029BDB000C4A13440093009BE6
:10C380001B6898470390039B002B00D006E0029B9C
:10C3900001330293029A019B9A42EBD3039B184606
:10C3A00005B05DF804FB00BFDC2C0020D42C00207D
:10C3B00000B585B0114A124BD31ADB080193002354
:10C3C0000393002302930FE0029BDB000C4A13440B
:10C3D0000093009B5B6898470390039B002B00D061
:10C3E00006E0029B01330293029A019B9A42EBD32F
:10C3F000039B184605B05DF804FB00BFDC2C002051
:10C40000D42C002082B001900091019A009B13442B
:10C410005A1E009B5B421340184602B0704700BF93
:10C4200000B583B00190019800210C220AF019F99F
:10C43000074B00221A63064B00225A63044B00226A
:10C440001A61034B00225A6103B05DF804FB00BF80
:10C450001439002000B58BB00190484B5B6A0793FC
:10C460004FF4805306930023059343F208031A68A0
:10C47000424B1B6B13440993404B1B6B079AD31A17
:10C480000893089A069B934228BF13460493099A7F
:10C49000069B1B0B104619460022FFF713FD0346AF
:10C4A0000593059B002B01D0059B62E0099A019B37
:10C4B00010461946049A0023FFF790FC03460593A3
:10C4C000059B002B01D0059B53E0099A019B104668
:10C4D0001946049AFFF7FAFD0590059B002B01D041
:10C4E000059B46E0019A069B1B0B1046194600224D
:10C4F000FFF7E8FC03460593059B002B01D0059B45
:10C5000037E01E4B1A6B049B13441C4A1363002034
:10C51000FFF7D2FE0590099A049B13440993019AF0
:10C52000049B13440193089A049BD31A0893089B15
:10C53000002BA6D143F208031B6818460799002276
:10C5400000F0A0FA03900D4B9A6A039B9A4208D11F
:10C550000A4B01221A62094A039BD361074A079BCF
:10C5600093610748FFF75CFF0020FFF7A5FE0590E9
:10C57000059B18460BB05DF804FB00BF1439002082
:10C580003839002000B587B0019000910023029354
:10C59000384B1B6B03F580530593364B5A6B354B69
:10C5A0001B6BD31A18464FF48051FFF72BFF0490F2
:10C5B000049B9B0818464FF48051FFF723FF03901C
:10C5C0002C4B1B6B019A134401932A4B5B6B002B82
:10C5D00007D0284B1A6B274B5B6B9A4201D1002383
:10C5E00044E0039A049B9A4205D904984FF4805181
:10C5F000FFF708FF0390059A019B10461946039A1E
:10C60000FFF726FD0290029B002B01D0029B2DE03C
:10C61000059A019B10461946039AFFF757FD0290B1
:10C62000029B002B01D0029B20E0059A039B134440
:10C630000593019A039B13440193039A049B9A4226
:10C6400002D90023049303E0049A039BD31A0493B2
:10C65000084B5A6B049BD31A064A13630020FFF75A
:10C660002BFE0290049B002BBBD1029B184607B007
:10C670005DF804FB1439002000B585B001900B462D
:10C680008DF8033000F0FAF80346002B0FD0094B69
:10C6900018464FF4A021002202F00CFB0390039BEC
:10C6A0000293029B002B02D0029804F06DFC05B0AF
:10C6B0005DF804FBDC30002000B585B001900091EE
:10C6C00001980099FFF75EFF0390039B002B01D0B8
:10C6D000039B07E00098FFF7A3FE0448FFF7ECFD7B
:10C6E0000390039B184605B05DF804FB79C606006D
:10C6F00000B585B00190009100230393009B1A6858
:10C70000124B5B6BD31A0293104B5B6B019A134471
:10C710000193019B0E481946029AFFF7D7FC03903C
:10C72000039B002B07D10098FFF77AFE0948FFF71B
:10C73000C3FD039005E0019B18460299FFF766FCD4
:10C740000390039B184605B05DF804FB14390020E4
:10C750000090060079C6060000B585B001900091F2
:10C760000023039301980099FFF70CFF0390039BAC
:10C77000002B01D0039B0AE001980099FFF7B8FF56
:10C780000390039B002B01D0039B00E0039B184602
:10C7900005B05DF804FB00BF00B587B003900291BF
:10C7A000019200230593039B9B68A52B13D0A52B17
:10C7B00002D8012B05D026E0AA2B15D0AC2B19D01E
:10C7C00021E0134B5B69012B04D10298FFF742FE75
:10C7D000059018E017E002980399FFF76DFF0590A8
:10C7E000019B01221A600EE002980399FFF780FF77
:10C7F000059008E002980399FFF7AEFF0590019BB2
:10C8000001221A6000BF059B184607B05DF804FBC3
:10C810001439002000B587B0019043F208031B686B
:10C820000493134B1B69012B02D1124B059313E0A8
:10C830000F4B5B69002B02D10E4B05930CE00E4BA6
:10C8400005930B4B9B6918464FF48051FFF7DAFDB7
:10C850000246049B1344049305980499019AFFF738
:10C860009BFF0390039B184607B05DF804FB00BFD5
:10C87000143900202C3900203839002000B583B04D
:10C88000104B1B6A012B01D0002317E00D4BDB6915
:10C89000002B12D043F208031B681A46094B9B6910
:10C8A00010461946002200F0EDF80190054BDA69B8
:10C8B000019B9A4201D0002300E00123184603B0F7
:10C8C0005DF804FB1439002000B587B003900B46D7
:10C8D00001928DF80B30344B1A6843F208031B6841
:10C8E000D31AA3F5C0430493019B002B01D1072366
:10C8F00055E0049A039B9A4201D204234FE02B4B4C
:10C90000059343F208031A68019B1A60284B1B6ABF
:10C91000012B33D1059B1B6818464FF48051FFF75C
:10C9200071FD0246049B9B1A0493039A049B9A424E
:10C930000ED99DF80B30002B01D004232FE01C4BA7
:10C9400001221A611A4B00225A61184B05931DE00F
:10C95000174B00221A61164B01225A61154B0593A1
:10C96000134B9B6918464FF48051FFF74BFD02466D
:10C97000019B1B681A44019B1A6007E00C4B0022C4
:10C980001A610B4B00225A61084B05930598002150
:10C990000C2209F066FE059B039A1A6000231846D4
:10C9A00007B05DF804FB00BF141000102C39002004
:10C9B000143900203839002000B583B000230193DA
:10C9C00004F004FC0190019B002B01D0019B08E0C6
:10C9D000FFF760F90190019B002B01D0019B00E063
:10C9E000019B184603B05DF804FB00BF13DF7047DE
:10C9F000184600BF00B585B00190FFF74BFB0390D0
:10CA0000039B002B00D00FE0094B4FF0FF32C3F81F
:10CA100080200198FFF7EAFF0390039B002B00D0D2
:10CA200002E0019800F006F805B05DF804FB00BFD5
:10CA300000E100E0F0B482B00190019B186880F33F
:10CA400008885868FF2464B2EFF30585002D08D1EB
:10CA5000EFF31481022221EA020181F31488A64631
:10CA600000472546064621273FBAF0B4002400259A
:10CA700000260027F0B4F92040B2004702B0F0BC15
:10CA8000704700BF88B0039002910192019B002B78
:10CA900003D0019B1B68DB4301E04FF0FF3307939A
:10CAA000002306931FE0039A069B13441B781A4643
:10CAB000079B53400793082305930EE0079B5A08F2
:10CAC000079B03F00103002B01D00B4B00E0002378
:10CAD00053400793059B013B0593059B002BEDD12C
:10CAE000069B01330693069A029B9A42DBD3079B6F
:10CAF000DB43184608B070472083B8ED82B0019040
:10CB0000019B03F00303002B0CBF01230023DBB2C6
:10CB1000184602B0704700BF10B58CB00590049164
:10CB20000392029309F0D6FB0B90049B002B05D0D7
:10CB3000039B002B02D0029B002B01D10E2369E046
:10CB4000049B1B68002B07D0039B1B68002B03D0A2
:10CB5000029B1B68002B01D110235BE0049B1B6828
:10CB60001846FFF7CBFF034683F00103DBB2002B2F
:10CB700015D1039B1B681846FFF7C0FF034683F0DF
:10CB80000103DBB2002B0AD1029B1B681846FFF79A
:10CB9000B5FF034683F00103DBB2002B01D0102365
:10CBA00038E006AB0598194600F01EF90A900A9B7A
:10CBB000002B01D00A9B2DE0049B5A68069B9A42E9
:10CBC00001D0092326E0039B5A68099B9A4201D0B1
:10CBD00009231FE0029B5A68089B9A4201D009234F
:10CBE00018E09DF81430042B01D0062312E0049BBA
:10CBF0001868039B1968039B5A68029B1C680B9B6F
:10CC00000093234609F06AFB0346002B01D10B2356
:10CC100000E0002318460CB010BD00BF00B585B081
:10CC2000ADF804000091009B002B01D10E2319E008
:10CC3000009B1B68002B01D1102313E0009B5B6855
:10CC40006F2B01D809230DE09DF80430052B01D08E
:10CC5000062307E0009B1B680393039801F024F868
:10CC60000290029B184605B05DF804FB00B587B042
:10CC7000039002910192039B002B02D0029B002B98
:10CC800001D107230FE0039B5B686F2B01D80923B9
:10CC900009E0039B1B68059305980299019A01F02E
:10CCA00041F80490049B184607B05DF804FB00BFF0
:10CCB00000B589B0ADF80C0002910192029B002BE7
:10CCC00002D0019B002B01D1072332E0029B5B685D
:10CCD000702B01D009232CE0029B1B6806939DF862
:10CCE0000C2004AB1046194600F01CF90590059B7A
:10CCF000002B01D0059B1CE0019B5A68049B9A42C3
:10CD000001D0092315E09DF80D30002B03D101233C
:10CD10008DF81F3002E000238DF81F30019B1A6848
:10CD20009DF81F30069811461A4601F03FF805900D
:10CD3000059B184609B05DF804FB00BF00B5A5B01F
:10CD4000ADF80C0002910192009306AB049370239E
:10CD50000593009B002B02D0029B002B01D10E23D8
:10CD60003EE0009B1B68002B01D1102338E09DF8AA
:10CD70000C30052B01D0062332E09DF80C2022ABAD
:10CD80001046194600F0CEF82390239B002B01D0CB
:10CD9000239B25E0009B5A68229B9A4201D00923DD
:10CDA0001EE004AB03981946FFF738FF2390239B3E
:10CDB000002B01D0239B13E004AB18460299019A83
:10CDC000FFF754FF2390239B002B01D0239B07E008
:10CDD00004AB03981946009AFFF76AFF2390239B40
:10CDE000184625B05DF804FB00B585B001900091B0
:10CDF0009DF80430013B092B7BD801A252F823F0A7
:10CE000029CE06003DCE060051CE060065CE0600B6
:10CE100079CE06008DCE0600A1CE0600B5CE060066
:10CE2000C9CE0600DDCE0600009B14225A60009B8E
:10CE300028221A60009B28229A6065E0009B182235
:10CE40005A60009B30221A60009B30229A605BE09F
:10CE5000009B1C225A60009B38221A60009B3822DB
:10CE60009A6051E0009B20225A60009B40221A6089
:10CE7000009B40229A6047E0009B30225A60009B52
:10CE800060221A60009B60229A603DE0009B422273
:10CE90005A60009B84221A60009B84229A6033E0CF
:10CEA000009B18225A60009B30221A60009B30229F
:10CEB0009A6029E0009B1C225A60009B38221A606D
:10CEC000009B38229A601FE0009B20225A60009B42
:10CED00040221A60009B40229A6015E0009B0022CD
:10CEE0005A60009B00221A60009B00229A60062371
:10CEF00014E0009B00225A60009B00221A60009BF5
:10CF000000229A60062309E09DF80520009B0C335F
:10CF10001046194600F006F80390039B184605B02A
:10CF20005DF804FB82B0034600918DF807309DF850
:10CF30000730013B062B29D801A252F823F000BF8D
:10CF40005DCF06008DCF060065CF06006DCF0600D1
:10CF500075CF06007DCF060085CF0600009B14220A
:10CF60001A6015E0009B14221A6011E0009B1C223D
:10CF70001A600DE0009B20221A6009E0009B30221D
:10CF80001A6005E0009B40221A6001E0062300E0E1
:10CF90000023184602B0704729DF7047184600BFCB
:10CFA00028DF7047184600BF00B587B001900B46D8
:10CFB0008DF8033002AB18460021102209F051FB16
:10CFC000019B1B7A012B02D0022B0BD01AE000230D
:10CFD0008DF80830019B1B690493019B9B8AADF877
:10CFE00014300FE001238DF80830019B9A89019BD2
:10CFF000DB89D31A9BB2ADF81030019B9B89ADF849
:10D00000123000BF019B5B680393019B1B689B6808
:10D0100002A99DF8032008461146984707B05DF81D
:10D0200004FB00BF82B00190019B002B09D0019B43
:10D03000064A934205D3019B054A934201D201233C
:10D0400000E00023184602B0704700BFC42C002047
:10D05000D42C002000B585B00190019B9B8A1A4614
:10D06000019BDB8AD31AB3F5806F07DA019B9A8A9A
:10D07000019BDB8AD31AADF80E3003E04FF48063D6
:10D08000ADF80E30019B1A69019BDB8A9B00D11819
:10D09000019BDA68019BDB8A9B001A44BDF80E30C5
:10D0A000084611461A46FFF777FF0346184605B0B3
:10D0B0005DF804FB00B583B00190019B9B89184685
:10D0C000FFF76EFF0346184603B05DF804FB00BF90
:10D0D0000E4B5B6E013B0D4A53660C4B5B6E002B97
:10D0E00006D10B4B1B7823F00203DAB2084B1A70FF
:10D0F000064B1B6E0133054A1366044B1B6E042B53
:10D1000002D1024B00221A66704700BF0031002096
:10D11000FC30002000B583B01E4B1A6E13465B0036
:10D120001344DB001B4A134400931A4B5B6E002B25
:10D130002CD0009B1B7A012B02D0022B05D009E0DA
:10D140000098FFF787FF019007E00098FFF7B2FF14
:10D15000019002E00923019300BF019B112B0ED126
:10D160000D4B1B7823F00203DAB20B4B1A700A4BFB
:10D170001B7843F00403DAB2074B1A7006E0019BF8
:10D18000002B03D000980921FFF70EFF03B05DF8D4
:10D1900004FB00BF00310020FC30002008B50B4B21
:10D1A0001B7803F00203002B0ED1084B1B7803F011
:10D1B0000403002B08D1054B1B7843F00203DAB2BD
:10D1C000024B1A70FFF7A6FF08BD00BFFC3000201D
:10D1D00000B585B00190294B00221A70019B1B7A83
:10D1E000012B02D0022B2BD044E0019B9B8A1A46D4
:10D1F000019BDB8AD31AB3F5806F07DA019B9A8A09
:10D20000019BDB8AD31AADF80E3003E04FF4806344
:10D21000ADF80E30019BDA8ABDF80E3013449AB295
:10D22000019BDA82019BDA8A019B9B8A9A4206D192
:10D2300001980021FFF7B8FEFFF74AFF1AE019E056
:10D24000019B9B8901339AB2019B9A81019BDB89E7
:10D2500001339AB2019BDA81019BDA89019B1B8A17
:10D260009A4206D101980021FFF79EFEFFF730FF9A
:10D27000FFE700BF05B05DF804FB00BF6831002088
:10D2800000B583B001900B4B1B780133DAB2094B28
:10D290001A70084B1B78032B08D9064B00221A7012
:10D2A00001980821FFF780FEFFF712FF03B05DF839
:10D2B00004FB00BF6831002000B585B001901C4B15
:10D2C0005B6E042B01D100232EE0194B1A6E184B14
:10D2D0005B6E1344032B05D8154B1A6E144B5B6E13
:10D2E000134405E0124B1A6E114B5B6E1344043B62
:10D2F00003930F4B5B6E01330D4A5366039A13463B
:10D300005B001344DB000A4A13441846002118222C
:10D3100009F0A7F9039A13465B001344DB00044AA3
:10D320001A44019B1A600123184605B05DF804FBFE
:10D3300000310020044B1B7843F00103DAB2024BAA
:10D340001A70002318467047FC30002000B587B0E3
:10D35000039002910192ADF80230314B1B7803F03B
:10D360000103002B01D1012356E00398FFF75AFE79
:10D37000034683F00103DBB2002B01D002234BE014
:10D38000019B002B02D0029B002B01D1032343E021
:10D39000019B03F00303002B04D1029B03F0030362
:10D3A000002B01D0062337E0039B1A68029B9A42A8
:10D3B00008D8039B5A68BDF802309B0002990B44C1
:10D3C0009A4201D2052327E0BDF80230002B01D19B
:10D3D000042321E005AB1846FFF76EFF034683F0F8
:10D3E0000103DBB2002B01D0072315E0059B089A4F
:10D3F0005A60059B039A1A60059B01221A72059BCD
:10D40000019ADA60059B029A1A61059BBDF8022019
:10D410009A82FFF7C3FE0023184607B05DF804FBAD
:10D42000FC30002000B587B00390029100931346B2
:10D43000ADF806302C4B1B7803F00103002B01D113
:10D4400001234DE00398FFF7EDFD034683F0010350
:10D45000DBB2002B01D0022342E0029B002B01D162
:10D4600003233DE0029BC3F30B03002B01D00623F3
:10D4700036E0039B1A68029B9A4208D8BDF8063032
:10D480001B03029A1A44039B5B689A4201D9052345
:10D4900026E0BDF80630002B01D1042320E005ABC7
:10D4A0001846FFF709FF034683F00103DBB2002BA8
:10D4B00001D0072314E0059B009A5A60059B039A4C
:10D4C0001A60059B02221A72059B029A120B92B2F5
:10D4D0009A81059BBDF806201A82FFF75FFE0023A4
:10D4E000184607B05DF804FBFC30002000B585B09D
:10D4F00001901D4B1A6E13465B001344DB001A4A61
:10D5000013440393194B1B7803F00203002B0ED036
:10D51000019B022B02D0032B04D020E00398FFF7DD
:10D5200057FE03E00398FFF7ABFE00BF17E00F4B79
:10D530001B7803F00403002B11D00C4B1B7823F055
:10D540000403DAB2094B1A70074B5B6E002B06D04E
:10D55000064B1B7843F00203DAB2044B1A70FFF754
:10D56000D9FD05B05DF804FB00310020FC3000203F
:10D57000044B5B6E042B0CBF01230023DBB2184667
:10D58000704700BF0031002082B001900091019BE4
:10D590009A68009B9A4202D9009B013300E0002365
:10D5A000184602B0704700BF84B00190019B1B6811
:10D5B0001B680393019B1B685B680293029A039BA1
:10D5C0009A4203D3029A039BD31A06E0019B9A68FE
:10D5D000039BD21A029B13440133184604B07047D0
:10D5E00000B585B00190019B1B681B680393019BEC
:10D5F0001B685B68029301980299FFF7C5FF02461A
:10D60000039B9A420CBF01230023DBB2184605B0EE
:10D610005DF804FB10B588B00190009100230793DA
:10D6200000238DF80F300DF10F03184601F02CFC8C
:10D630000198FFF7D5FF03468DF81B309DF81B308E
:10D6400083F00103DBB2002B03D1019B1B7C002B79
:10D650007DD1019B1B685B680593019B1C68019B46
:10D660001B685B6801981946FFF78EFF03466360ED
:10D670009DF81B30002B0AD0019B1C68019B1B6886
:10D680001B6801981946FFF77FFF03462360019B43
:10D69000DB68013B072B38D801A252F823F000BF0A
:10D6A000C1D60600D1D606000BD70600E3D6060089
:10D6B0000BD706000BD706000BD70600F5D60600E1
:10D6C000019B5A68059B1344009A12781A702EE049
:10D6D000019B5A68059B5B001344009A12881A80CC
:10D6E00025E0019B5A68059B9B001344009A126831
:10D6F0001A601CE0019B5A68059BDB00D118009B57
:10D70000D3E90023C1E9002311E0019B5B681946BE
:10D71000019BDB68059A02FB03F30B441A46019B4D
:10D72000DB68104600991A4608F090FF00BF019888
:10D73000FFF73AFF0490019B1B689A68049B9A428A
:10D7400004D2019B1B68049A9A6002E001E0042362
:10D7500007939DF80F30184601F0A0FB079B184671
:10D7600008B010BD82B00190019B03F00303002BB1
:10D770000CBF01230023DBB2184602B0704700BF84
:10D7800082B003468DF807309DF807309AB2064BF9
:10D790001B889A4204D29DF807300133DBB200E0C7
:10D7A0000023184602B070477831002000B583B0DE
:10D7B0000B4B1B788DF807300A4B1B78DBB21846F1
:10D7C000FFF7DEFF03461A469DF8073093420CBF71
:10D7D00001230023DBB2184603B05DF804FB00BF51
:10D7E000743100207531002082B0084B1B788DF811
:10D7F0000730074B1B78DBB29DF807209A420CBF1D
:10D8000001230023DBB2184602B0704774310020B8
:10D810007531002000B585B003460092ADF80630A2
:10D820000B46ADF80430BDF8043001339BB2DB0089
:10D83000ADF80E300098FFF795FF034683F0010323
:10D84000DBB2002B01D0072317E00E4A009B1360C8
:10D85000BDF80E30009A13440B4A13600B4B0022A4
:10D860001A700B4B00221A700A4ABDF8063013805A
:10D87000094ABDF8043013800023184605B05DF84E
:10D8800004FB00BF6C310020703100207531002096
:10D8900074310020763100207831002000B587B047
:10D8A00003900B460192ADF80A30374B1B88BDF848
:10D8B0000A209A4261D84FF6FF73ADF81230002368
:10D8C0008DF811300DF11103184601F0DDFAFFF764
:10D8D0006DFF0346002B0ED12C4B1B78DBB2ADF84D
:10D8E00012302A4B1B78DBB21846FFF749FF03467C
:10D8F0001A46264B1A709DF81130184601F0CEFAE0
:10D90000BDF812304FF6FF72934233D0204B1A68A5
:10D91000BDF81230DB001344019A1A60039B002B00
:10D920001DD0BDF80A30002B19D01A4B1B68BDF86A
:10D9300012201549098801FB02F21A44BDF80A3089
:10D94000104603991A4608F081FE114B1A68BDF87B
:10D950001230DB001344BDF80A209A8007E00C4B1C
:10D960001A68BDF81230DB00134400229A800023AD
:10D97000059304E00423059301E009230593059B27
:10D98000184607B05DF804FB7631002075310020A1
:10D990006C3100207031002000231846704700BF12
:10D9A00000B585B02FE0204B1B78DBB2ADF80E3010
:10D9B0001E4B1B68BDF80E201D49098801FB02F2B1
:10D9C000134402931B4B1A68BDF80E30DB0013445E
:10D9D0009B88ADF80630174B1A68BDF80E30DB0097
:10D9E00013441B680093BDF80620009B0298114663
:10D9F00098470D4B1B78DBB21846FFF7C1FE034674
:10DA00001A46094B1A70FFF7C7FF034683F001035C
:10DA1000DBB2002B04D0FFF7E7FE0346002BC2D099
:10DA200005B05DF804FB00BF7431002070310020A8
:10DA3000763100206C310020CEB001AB18606B460F
:10DA40001960002345930023449327E06B461A682E
:10DA5000449B13441B781A06449B013369460968AA
:10DA60000B441B781B041A43449B02336946096824
:10DA70000B441B781B021343449A0332694609681E
:10DA80000A4412781343194602AB459A43F8221010
:10DA9000459B01334593449B04334493459B0F2B93
:10DAA000D4D943E0459B9A1E02AB53F822304FEA8B
:10DAB0007342459B991E02AB53F821304FEAF34362
:10DAC0005A40459B991E02AB53F821309B0A5A409D
:10DAD000459BD91F02AB53F821301A44459BA3F153
:10DAE0000F0102AB53F821304FEAF311459BA3F12C
:10DAF0000F0002AB53F820304FEAB3435940459B27
:10DB0000A3F10F0002AB53F82030DB084B401A445E
:10DB1000459BA3F1100102AB53F82130D11802ABA1
:10DB2000459A43F82210459B01334593459B3F2B73
:10DB3000B8D901AB1B681B6D4D9301AB1B685B6DC6
:10DB40004C9301AB1B689B6D4B9301AB1B68DB6D6A
:10DB50004A9301AB1B681B6E499301AB1B685B6E5C
:10DB6000489301AB1B689B6E479301AB1B68DB6E50
:10DB70004693002345934FE0499B4FEAB312499BDC
:10DB80004FEAF3235A40499B4FEA73635A40469B3E
:10DB90001A444999489B1940499BD843479B0340E5
:10DBA0004B401A443F49459B51F823301A4402AB7D
:10DBB000459953F82130134443934D9B4FEAB302E8
:10DBC0004D9B4FEA73335A404D9B4FEAB3535A4033
:10DBD0004D994C9B19404D984B9B034059404C9894
:10DBE0004B9B03404B4013444293479B4693489BB7
:10DBF0004793499B48934A9A439B134449934B9BB1
:10DC00004A934C9B4B934D9B4C93439A429B13449A
:10DC10004D93459B01334593459B3F2BACD901ABBD
:10DC20001B681A6D4D9B1A4401AB1B681A6501AB4A
:10DC30001B685A6D4C9B1A4401AB1B685A6501ABBB
:10DC40001B689A6D4B9B1A4401AB1B689A6501AB2C
:10DC50001B68DA6D4A9B1A4401AB1B68DA6501AB9D
:10DC60001B681A6E499B1A4401AB1B681A6601AB0C
:10DC70001B685A6E489B1A4401AB1B685A6601AB7D
:10DC80001B689A6E479B1A4401AB1B689A6601ABEE
:10DC90001B68DA6E469B1A4401AB1B68DA664EB00D
:10DCA000704700BFD070070082B00190019B002B2D
:10DCB00001D10E2322E0019B00221A6401994FF04A
:10DCC00000024FF00003C1E91223019B0D4A1A65BF
:10DCD000019B0D4A5A65019B0C4A9A65019B0C4AAF
:10DCE000DA65019B0B4A1A66019B0B4A5A66019B37
:10DCF0000A4A9A66019B0A4ADA660023184602B06D
:10DD0000704700BF67E6096A85AE67BB72F36E3C79
:10DD10003AF54FA57F520E518C68059BABD9831FF6
:10DD200019CDE05B00B587B0039002910192039B8F
:10DD3000002B01D10E2335E0019B002B04D0029B68
:10DD4000002B01D10E232DE00023059325E0039B3A
:10DD50001B6C0299059A0A441178039AD154039BCB
:10DD60001B6C5A1C039B1A64039B1B6C402B11D128
:10DD7000039B03981946FFF75FFE039BD3E9122329
:10DD800012F5007243F100030399C1E91223039BCA
:10DD900000221A64059B01330593059A019B9A4260
:10DDA000D5D30023184607B05DF804FB2DE9F04FEA
:10DDB0008FB00B900A9113468DF827300B9B002BE8
:10DDC00001D10E239BE10A9B002B01D10E2396E18A
:10DDD0000B9B1B6C0D930B9B1B6C372B10D80D9959
:10DDE0004B1C0D930B9A8023535405E00D994B1C4B
:10DDF0000D930B9A002353540D9B372BF6D91AE041
:10DE00000D994B1C0D930B9A8023535405E00D99EB
:10DE10004B1C0D930B9A002353540D9B3F2BF6D9AB
:10DE20000B9B0B981946FFF707FE0B9B184600212A
:10DE3000382208F016FC0B9BD3E912010B9B1B6CDC
:10DE40001A464FF00003DD0045EA5275D400001970
:10DE500041EB05010B9BC3E912010B9BD3E9122394
:10DE6000D3B20B9A82F83F300B9BD3E912234FEACF
:10DE7000122A4AEA036A4FEA132B5FFA8AF20B9BD3
:10DE800083F83E200B9BD3E912234FEA124848EA5D
:10DE900003484FEA13495FFA88F20B9B83F83D2051
:10DEA0000B9BD3E91223160E46EA03261F0EF2B28D
:10DEB0000B9B83F83C200B9BD3E912231B000093A0
:10DEC000002301939DF800200B9B83F83B200B9BC4
:10DED000D3E912231B0A0293002303939DF8082021
:10DEE0000B9B83F83A200B9BD3E912231B0C049362
:10DEF000002305939DF810200B9B83F839200B9B82
:10DF0000D3E912231B0E0693002307939DF81820D4
:10DF10000B9B83F838200B9B0B981946FFF78CFD61
:10DF20009DF82730002B60D000230D9359E00A9A0A
:10DF30000D9B13440B9AD26E0D99C900CA40D2B200
:10DF40001A700D9B04330A9A13440B9A926E0D9922
:10DF5000C900CA40D2B21A700D9B08330A9A134402
:10DF60000B9A526E0D99C900CA40D2B21A700D9B1D
:10DF70000C330A9A13440B9A126E0D99C900CA40C9
:10DF8000D2B21A700D9B10330A9A13440B9AD26DB9
:10DF90000D99C900CA40D2B21A700D9B14330A9A67
:10DFA00013440B9A926D0D99C900CA40D2B21A70EF
:10DFB0000D9B18330A9A13440B9A526D0D99C900A0
:10DFC000CA40D2B21A700D9B1C330A9A13440B9AA2
:10DFD000126D0D99C900CA40D2B21A700D9B01335F
:10DFE0000D930D9B032BA2D988E000230D9381E0B4
:10DFF0000A9A0D9BD1180B9B186D0D9A13465B075F
:10E000009B1ADB00183320FA03F3DBB20B700D9B75
:10E0100004330A9AD1180B9B586D0D9A13465B076F
:10E020009B1ADB00183320FA03F3DBB20B700D9B55
:10E0300008330A9AD1180B9B986D0D9A13465B070B
:10E040009B1ADB00183320FA03F3DBB20B700D9B35
:10E050000C330A9AD1180B9BD86D0D9A13465B07A7
:10E060009B1ADB00183320FA03F3DBB20B700D9B15
:10E0700010330A9AD1180B9B186E0D9A13465B0742
:10E080009B1ADB00183320FA03F3DBB20B700D9BF5
:10E0900014330A9AD1180B9B586E0D9A13465B07DE
:10E0A0009B1ADB00183320FA03F3DBB20B700D9BD5
:10E0B00018330A9AD1180B9B986E0D9A13465B077A
:10E0C0009B1ADB00183320FA03F3DBB20B700D9BB5
:10E0D0001C330A9AD1180B9BD86E0D9A13465B0716
:10E0E0009B1ADB00183320FA03F3DBB20B700D9B95
:10E0F00001330D930D9B032B7FF67AAF0023184657
:10E100000FB0BDE8F08F00BF82B003468DF8073036
:10E1100007499DF907305B099DF8072002F01F02AF
:10E12000012000FA02F241F8232002B0704700BF3C
:10E1300000E100E082B003468DF8073007499DF901
:10E1400007305B099DF8072002F01F02012000FA4A
:10E1500002F2203341F8232002B0704700E100E0D2
:10E1600082B003468DF8073007499DF907305B09F7
:10E170009DF8072002F01F02012000FA02F240334E
:10E1800041F8232002B0704700E100E082B003466E
:10E190008DF8073007499DF907305B099DF8072086
:10E1A00002F01F02012000FA02F2603341F823203E
:10E1B00002B0704700E100E082B0034600918DF8A4
:10E1C00007309DF90730002B0CDA0C499DF8073019
:10E1D00003F00F03043B009AD2B25201D2B20B44B7
:10E1E0001A7609E006499DF90730009AD2B2520129
:10E1F000D2B20B4483F8002302B0704700ED00E078
:10E2000000E100E084B00190234B0393019B002BBD
:10E2100040D0224B1A680399019B00BF00BF00BF8A
:10E2200000BF00BF00BF00BF00BF8A422FD000BFA9
:10E2300000BF00BF00BF00BF00BF00BF00BF00BFE6
:10E2400000BF00BF00BF00BF00BF00BF00BF00BFD6
:10E2500000BF00BF00BF00BF00BF00BF00BF00BFC6
:10E2600000BF00BF00BF00BF00BF00BF00BF00BFB6
:10E2700000BF00BF00BF00BF00BF00BF00BF00BFA6
:10E2800000BF00BF00BF00BF00BF00BF00BF013B19
:10E29000C3D1019304B070470024F400042C002083
:10E2A00000B583B00190054A019BC2F808351120E2
:10E2B0000721FFF781FF03B05DF804FB0010014068
:10E2C00008B50D4B4FF48032C3F844230A4B4FF48A
:10E2D0008032C3F804231120FFF758FF1120FFF705
:10E2E00013FF054B01221A602F20FFF78BFF034B12
:10E2F00001221A7008BD00BF001001409A320020B0
:10E3000008B51120FFF716FF0E4B4FF48032C3F80B
:10E3100048230C4B4FF48032C3F80823094B0122E9
:10E320005A602F20FFF76EFF064B01229A60064BC2
:10E3300000221A602F20FFF765FF044B00221A709D
:10E3400008BD00BF001001408C3200209A3200202E
:10E35000024BD3F804351846704700BF0010014047
:10E3600082B001900091019A009BD31A23F07F4361
:10E37000184602B0704700BF82B00190024A019B6C
:10E38000C2F8403502B070470010014086B00190DD
:10E39000274B1B68002B03D1254A019B136045E0E6
:10E3A000019B1A68224B1B681B689A4210D8204BAD
:10E3B0001B681F4A12681168019A12688A1A1A604B
:10E3C0001B4B1A68019BDA61194A019B13602DE00F
:10E3D000019B1B680393164B1B680593144B1B682A
:10E3E000049309E0049B1B68039AD31A0393049BCC
:10E3F0000593049BDB690493049B002B04D0049BCE
:10E400001A68039B9A42EDD3049B002B05D0049B12
:10E410001A68039BD21A049B1A60019B039A1A6024
:10E42000019B049ADA61059B019ADA6106B0704794
:10E430008832002000B587B00190294B1B680393F8
:10E44000274B1B680593059B049309E0049A019BE5
:10E450009A4200D107E0049B0593049BDB69049377
:10E46000049B002BF2D1049B002B01D1002333E04D
:10E47000059A049B9A4214D1194B1B68DB69184A10
:10E480001360174B1B68002B0BD1164B01229A60AF
:10E49000154B00221A60154B01221A702F20FFF72E
:10E4A000B1FE049B1B680293049BDA69059BDA6149
:10E4B000059BDB690493049B002B05D0049B1A6821
:10E4C000029B1A44049B1A60054B1B68039A9A42EC
:10E4D00014BF01230023DBB2184607B05DF804FB2C
:10E4E00088320020001001408C3200209B32002036
:10E4F00008B51120FFF734FE08BD00BF08B5142091
:10E50000FFF72EFE08BD00BF00B585B001900B4699
:10E51000ADF80230BDF80230082B0CBF01230023F8
:10E52000DBB20393039B002B02D1002002F02CFDF1
:10E53000019B0293029B1B68029A526810469847FF
:10E5400005B05DF804FB00BF00B587B00190019BEA
:10E550005B690293019B9B69039302AB18460821F8
:10E56000074AFFF79BF90590059B0493049B002B3A
:10E5700002D0049802F008FD07B05DF804FB00BF6C
:10E5800009E5060000B585B02A4B1B68002B4DD06D
:10E5900000230193FFF7DCFE0246274B1B68104661
:10E5A0001946FFF7DDFE0290224B1B6803931EE025
:10E5B000039B1A68029B9A4200D91BE0039B1B68CD
:10E5C000029AD31A0293039B1B68019A1344019386
:10E5D000039B0093039BDB690393009B1B7C002B35
:10E5E00005D0009B00221A740098FFF7ADFF039B33
:10E5F000002BDDD1114B1A78114B1B789A420CD1AC
:10E600000F4B1B780133DAB20D4B1A700C4B1B7891
:10E61000022B02D10A4B00221A70094B1B781946B3
:10E62000084A019B42F82130FFF768FF05B05DF80A
:10E6300004FB00BF883200208C320020983200207A
:10E64000993200209032002082B00190184B1A7845
:10E65000184B1B789A4223D0154B1B780133DAB242
:10E66000134B1A70124B1B78022B02D1104B002255
:10E670001A700F4B1B781A460F4B53F82220019B40
:10E680001A60019B1A680D4B1B6813440B4A1360F8
:10E690000A4B1B6823F07F43084A1360012303E001
:10E6A000019B00221A600023184602B0704700BF89
:10E6B0009832002099320020903200208C320020C5
:10E6C00088B00390029101920023079338E01F4B1A
:10E6D0001B680693069B1A68039B9A4206D9069B01
:10E6E0001A68039BD21A069B1A602DE0069B1B68D2
:10E6F000039AD31A0393069B1B68079A1344079344
:10E70000069B00221A60114B1B680593069BDB6970
:10E710000E4A1360069BDB68002B11D0029A079B00
:10E72000134423F07F42069B5A60069BDA68069BDF
:10E730009A60019B1A68069BDA61019B059A1A6030
:10E74000024B1B68002BC2D108B0704788320020F2
:10E7500000B589B0019000238DF81F30664B1B680F
:10E760000593AAE0019B002B05D0019B0693069B15
:10E77000DB69019361E0614B1B781A4613465B002D
:10E780001344DB005D4A1344043304935B4B1B7852
:10E790000133DAB2594B1A70584B1A78574B9B78A1
:10E7A0009A4202D1554B00221A70049B5B68069373
:10E7B000049B1B78022B04D0032B1BD0012B1FD0F2
:10E7C0001DE0049B5B681846FFF734FE0346002BF0
:10E7D00002D001238DF81F30069B00221A746CE0D2
:10E7E000454B1B680393039B00221A74039BDB6950
:10E7F000414A1360404B1B68002BF1D15DE05CE0A7
:10E8000000BF069B1B7C002B00D056E0049B9A683F
:10E81000069B5A60049BDA68069B9A60049B1A69FF
:10E82000069BDA60049B5A69069B9A61344B1B78FD
:10E83000002B02D0069B00225A60069B5A68314B7F
:10E840001B68D31A23F07F432F4A93420ED8069BAE
:10E850005A682C4B1B6810461946FFF781FD02468B
:10E86000069B9B681A44069B1A6017E0254B1A68A2
:10E87000069B5B6810461946FFF772FD0290069BE7
:10E880009A68029B9A4206D9069B9A68029BD21A02
:10E89000069B1A6002E0069B00221A60069B00227B
:10E8A0005A60069B00229A60069B01221A74069BFE
:10E8B0000022DA610698FFF769FD019B002B7FF4C7
:10E8C00051AF0E4B1A780D4B5B789A427FF44AAFEA
:10E8D0009DF81F30002B04D1074B1A68059B9A4204
:10E8E00001D0012300E0002303F00103DBB218464E
:10E8F00009B05DF804FB00BF883200207C310020A5
:10E900009B3200208C320020FEFF7F0010B588B0C3
:10E910000190274B1B68002B45D0254B1B681B68BB
:10E920000793FFF715FD0690224B1B680593069889
:10E930000599FFF715FD0346033304931E4B1B781F
:10E9400083F00103DBB2002B01D0FFF7B9FC049A7E
:10E95000079B934238BF1346059A13440593059BC2
:10E9600023F07F4305930598FFF706FDFFF7F0FCC2
:10E97000039003980699FFF7F3FC0346DC1C059807
:10E980000699FFF7EDFC03469C420BD9FFF7E0FC2C
:10E9900003461846FFF7F0FC2F20FFF733FCFFF784
:10E9A000A7FD02E001E0FFF7ABFC08B010BD00BF1F
:10E9B000883200208C3200209A32002000B587B0C7
:10E9C0000023019300238DF81730194B1B68049323
:10E9D000184B1B6803936B461846FFF735FE03463A
:10E9E0008DF80B309DF80B30002B09D0009A01AB4D
:10E9F000104604991A46FFF763FE01238DF817307D
:10EA0000019B1846FFF7A4FE0346002B02D001230A
:10EA10008DF817309DF81730002B02D00398FFF7C0
:10EA200075FF054B00221A7007B05DF804FB00BFAC
:10EA30008C320020883200209B32002082B00346B6
:10EA40008DF80730024A9DF80730537002B07047C6
:10EA50007C31002084B00190144B5B7801338DF839
:10EA60000F30124B9B789DF80F209A4202D1002361
:10EA70008DF80F300D4B1B789DF80F209A4201D175
:10EA800000230FE0019B9DF80F201A70074B5B7865
:10EA90001A4613465B001344DB00044A1344043354
:10EAA0000293029B184604B0704700BF7C310020DF
:10EAB00000B589B00390029101920093002307935F
:10EAC00000238DF816300DF11603184600F0DCF91E
:10EAD0000DF117031846FFF7BDFF0690069B002BAC
